:020000040800F2
:10000000D82500209D01000885300008E52B000858
:1000100081300008C90A00088D3500080000000082
:100020000000000000000000000000002133000874
:10003000E10B000800000000F530000879330008EB
:10004000B7010008B7010008B7010008B7010008B0
:10005000B7010008B7010008E50B0008B701000868
:10006000F10B0008590C0008650C0008B7010008E6
:10007000B7010008B7010008B7010008B701000880
:10008000B7010008B7010008B7010008B701000870
:10009000B7010008B7010008B7010008B701000860
:1000A000B7010008B7010008B7010008B701000850
:1000B000B7010008B7010008B7010008B701000840
:1000C000B7010008B7010008B7010008B701000830
:1000D000B7010008B7010008B7010008B701000820
:1000E000B7010008B7010008B7010008B701000810
:1000F000B7010008B7010008B7010008B701000800
:10010000B7010008B7010008B7010008F93000087E
:10011000B7010008B7010008B7010008B7010008DF
:10012000B7010008B7010008B7010008B7010008CF
:10013000B7010008B7010008B7010008B7010008BF
:10014000B7010008B7010008B7010008B7010008AF
:10015000B7010008B7010008B7010008B70100089F
:10016000B7010008B7010008B7010008B70100088F
:10017000B7010008B7010008B7010008000000003F
:10018000B7010008B7010008DFF80CD000F020FB31
:1001900000480047E5890008D82500200648804728
:1001A00006480047FEE7FEE7FEE7FEE7FEE7FEE75C
:1001B000FEE7FEE7FEE7FEE73D34000889010008A0
:1001C0002DE9F05F0546002092469B46884606468C
:1001D000814640241BE0284641464746224600F01F
:1001E00041FA53465A46C01A914110D31146184657
:1001F000224600F028FA2D1A67EB01084F462246E6
:100200000120002100F01FFA17EB00094E41201ECB
:10021000A4F10104DFDC484631462A464346BDE8E6
:10022000F09FD2B201E000F8012B491EFBD27047CB
:100230000022F6E710B513460A4604461946FFF7B2
:10024000F0FF204610BD2DE9FE4F804681EA0300F5
:10025000C00F0C46009021F0004123F00045B8EBA0
:100260000200A94105D24046214690461C460B4655
:10027000024623F00040104347D0270DC7F30A0081
:10028000C3F30A510290401A019040286BDAC3F37D
:10029000130040F4801B0098924620B10023D2EB5B
:1002A000030A63EB0B0B01985946C0F1400250461C
:1002B00000F0C9F906460D4650465946019A00F02D
:1002C000E1F910EB08006141002487EA115284EA49
:1002D000E7731A4340D0009A62B3019A012A4FEAA9
:1002E000075215DC001B61EB02014FF0004202EAED
:1002F0000752CDE90042001C41F5801132462B46E1
:1003000000F018FA03B0BDE8F08F40462146F9E747
:10031000001B61EB0201001C41F5801300185B41DA
:100320002018A2F5001747EB030140EAD570B61973
:100330006D4111E06D084FEA360645EAC0754FEA97
:100340000752001B61EB0201001C41F580114908B6
:100350004FEA30000019514132462B4603B0BDE848
:10036000F04F00F0D8B90098012240000023D0EBF4
:10037000020263EBE073009821464FEAE074B8EBA9
:10038000000061EB0401E9E783F000435BE781F0E3
:10039000004158E72DE9FE4F81EA030404F00044D0
:1003A00021F0004100944FF0000B23F0004350EA8D
:1003B00001045ED052EA03045BD0C3F30A54C1F3D4
:1003C0000A552C44A4F2F3340194A0FB0254C1F367
:1003D000130141F48011C3F3130343F4801301FBB1
:1003E000024400FB034E840A970A44EA815447EA18
:1003F0008357A4FB076802958D0A05FB07854FEA22
:10040000932C04FB0C542705029D4FEA065847EA3B
:100410001637B5EB08056EEB070C870E920E47EA10
:10042000811742EA8312A7FB0201B6EB0B0164EBD2
:1004300000042B0D43EA0C335E1844EB1C50DA46E3
:100440005146E7FB0201C5F313044FEA0B3343EABD
:1004500014534FEA0432019C43EA0603A4F10C044E
:100460000294009CCDE900B400F064F903B0BDE84B
:10047000F08F00200146F9E72DE9F04D81EA0304F1
:1004800004F0004B21F0004514464FF0000A23F021
:10049000004150EA050220D054EA01021DD0C5F304
:1004A0000A570246C5F31303C1F31300C1F30A56FA
:1004B00040F4801543F48013A7EB0608101BD646C2
:1004C00008F2FD3873EB050002D308F1010801E0E2
:1004D00092185B41B8F1000F03DA00200146BDE835
:1004E000F08D00204FF48011064684460EE0171B65
:1004F00073EB050705D3121B63EB050306434CEAB8
:10050000010C49084FEA300092185B4150EA01079C
:10051000EDD152EA030012D082EA040083EA050119
:10052000084305D0101BAB4106D20122002306E090
:1005300000224FF0004302E06FF0010253101AEB6B
:1005400006004CEB085110EB0A0041EB0B01BDE833
:10055000F04D00F0E0B80EB5C10F80EAE07008443D
:10056000CA07002140F233438DE80E000A460B46CD
:1005700000F0E0F803B000BD70B5C1F30A5201F01D
:1005800000450024C1F3130140F2FF3341F4801110
:100590009A4201DA002070BD40F233439A42A2F23F
:1005A000334203DC524200F05DF800E090402C43FF
:1005B000F1D0404270BDC1F30A5210B5C1F313012E
:1005C00040F2FF3341F480119A4201DA002010BD5D
:1005D00040F233439A42A2F2334203DC524200F02B
:1005E00041F810BD904010BD00F0004230F00040D6
:1005F0000AD0C10D01F56071C0F3160042EA015145
:10060000C20840071143704700200146704701F0BF
:10061000004330B421F0004150EA010206D00A0D37
:10062000A2F56072C1F31301002A02DC30BC002085
:100630007047440F44EAC104C100E01830BC00EB2D
:10064000C25000F031B8202A04DB203A00FA02F14F
:10065000002070479140C2F1200320FA03F31943B0
:1006600090407047202A04DB203A21FA02F0002152
:10067000704721FA02F3D040C2F1200291400843B2
:1006800019467047202A06DBCB17203A41FA02F0C0
:1006900043EAE07306E041FA02F3D040C2F12002DF
:1006A00091400843194670470029A8BF7047401C75
:1006B000490008BF20F00100704710B4B0FA80FC78
:1006C00000FA0CF050EA010404BF10BC704749B1B5
:1006D000CCF1200421FA04F411FA0CF118BF012125
:1006E00021430843A3EB0C01CB1D4FEA00614FEA05
:1006F000102042BF002010BC704700EBC3501044D4
:100700000029A4BF10BC7047401C490008BF20F05E
:10071000010010BC704710B5141E73F1000408DA14
:10072000401C41F1000192185B411A4301D120F0B5
:10073000010010BD2DE9F04D92469B4611B1B1FA72
:1007400081F202E0B0FA80F220329046FFF77BFFA0
:1007500004460F4640EA0A0041EA0B0153465A4656
:10076000084313D0114653EA010019D0C8F14002E2
:100770005046FFF777FF05460E465046594642461B
:10078000FFF761FF084305D0012004E02046394609
:10079000BDE8F08D0020054346EAE0762C43374360
:1007A0000A986305E40AA0EB08000022FD0A44EA67
:1007B00047540A3002D500200146E9E70105101927
:1007C0006941DDE9084500196941BDE8F04DA2E73E
:1007D000064C074D06E0E06840F0010394E807008E
:1007E00098471034AC42F6D3FFF7D2FCE44B010833
:1007F000044C010880B584B08DF80F000020C4F2CD
:100800000200019020210291002200F035FF6420B7
:10081000009003F0C1FE9DF80F0000F027F900984A
:1008200003F0BAFE01980299012200F025FF04B0FE
:1008300080BD000080B582B00A2000F0C3FF002018
:10084000C4F20200019020210122009200F014FF66
:10085000009A0198402100F00FFF019880210022AA
:1008600000F00AFF00F002F802B080BD80B588B049
:100870000020C4F20200039040210022029200F006
:10088000FBFE039820210122059200F0F5FE029A5A
:1008900003988021049100F0EFFE03980499059AD3
:1008A00000F0EAFE4FF47A70079000F043FC11204C
:1008B0000690FFF79FFF079800F03CFC0620FFF72B
:1008C00099FF079800F036FC0698FFF793FF07980A
:1008D00000F030FCFFE741F2E920C2F200000178AD
:1008E0000020732901900AD0FFE741F2E920C2F20B
:1008F00000000078533818BF01200190FFE70198ED
:10090000C00770B1FFE72020002100F033F841F26A
:10091000E921C2F2000108704FF47A7000F00AFC7D
:10092000D9E741F2E821C2F200010120087042201B
:10093000A32100F01FF80A2000F0FCFB4120022157
:10094000009100F017F84420002100F013F8452032
:10095000152100F00FF846202C2100F00BF800992B
:10096000492000F007F84A20032100F003F808B0FE
:1009700080BD000080B582B08DF806008DF80510AE
:100980000020C4F2020020210022009200F074FE38
:10099000642003F001FE9DF8060000F067F800985F
:1009A00000F064F89DF806008006002806D5FFE7F1
:1009B000002000F05BF88DF8070012E09DF80500BC
:1009C00000F054F8FFE7642003F0E6FD0020C4F2D5
:1009D00002002021012200F04FFE00208DF80700C8
:1009E000FFE79DF8070002B080BD000080B584B02D
:1009F0000020C4F2020020210022019200F03CFEFF
:100A000001980290FFE70298092805DCFFE7FFE75D
:100A1000029801300290F6E700200390FFE7039868
:100A200008280EDCFFE7FF2000F020F8039A41F2CF
:100A3000DF21C2F200018854FFE7039801300390E0
:100A4000EDE700200290FFE70298092805DCFFE7A8
:100A5000FFE7029801300290F6E70020C4F202009E
:100A60002021012200F008FE04B080BD80B582B0D4
:100A70008DF807009DF807008DF8060000208DF81E
:100A8000050069460A20086042F29C00C2F200009C
:100A90000DF106010DF10502012301F0E9FD9DF8BC
:100AA000050002B080BD000080B51020FFF7A2FE57
:100AB0000020C4F202004021012200F0DDFD0A20E6
:100AC00000F08AFE80BD0000FFE7FEE781B041F242
:100AD0000400CEF2000000680090009840F22C0163
:100AE000C2F200010968884208D2FFE740F23001F3
:100AF000C2F20001086801300860FFE7009840F288
:100B00002C01C2F20001086001B0704780B584B0CA
:100B1000039041F20400CEF20000006802900298B7
:100B200003990968401A00EE100AB8EE400A40F234
:100B30002000C2F2000090ED001AB8EE411A80EEDB
:100B4000010A8DED010A029803990860FFF7BEFFC4
:100B50009DED010A04B080BD81B000904EF6FC51BD
:100B6000CEF20001086840F08070086041F2040194
:100B7000CEF200010020086041F20002CEF2000235
:100B8000116841F001011160009944F24022C0F265
:100B90000F024A4340F22001C2F200010A600A68D3
:100BA00044F6D353C1F26203A2FB0332920940F22E
:100BB0002403C2F200031A6009684DF68362C4F28E
:100BC0001B32A1FB0221890C40F22802C2F2000272
:100BD000116040F23001C2F20001086001B07047BC
:100BE0007047000080B5012000F04EFB80BD000082
:100BF00080B5042000F048FB42F2BC10C2F20000B5
:100C0000006838B9FFE742F2BC11C2F200010120CE
:100C100008601FE042F2BC10C2F200000068012828
:100C200007D1FFE742F2BC11C2F2000102200860C6
:100C30000FE042F2BC10C2F200000068022807D1A7
:100C4000FFE742F2BC11C2F2000100200860FFE79A
:100C5000FFE7FFE780BD000080B5082000F014FB2F
:100C600080BD000080B5102000F00EFB41F2DE20B8
:100C7000C2F20000007848B9FFE7FFF7B7FE41F283
:100C8000DE21C2F2000101200870FFE780BD0000F4
:100C900072B6FFE7FEE7000080B58EB0ADF8360013
:100CA000BDF9360040F21001C2F20001B1F90010A6
:100CB000884201D1FFE700E1BDF8360040F21001A3
:100CC000C2F200010880FFE741F2C020C2F200003A
:100CD000079008F091F80798BDF9361008F0B8F8B9
:100CE000079800210B910A91A02109918168089130
:100CF000006808B9FFE7E0E041F2C021C2F200015C
:100D00008868C96888423FDCFFE7FFE7089841F23E
:100D1000C021C2F20001C968884234DCFFE741F219
:100D2000C020C2F200004068089950F82100FFF787
:100D300012FC41EC100B099948F61870C0F600003F
:100D400000EBC10090ED001B9DED0A2B8DED042BF7
:100D500053EC112B51EC100BFFF71CFB9DED040B1A
:100D600041EC110B51EC110B53EC102BFFF76BFA0C
:100D700041EC100B8DED0A0B099801380990089889
:100D800001300890C2E781E0FFE7089841F2C021F6
:100D9000C2F2000109690139884235DCFFE741F2FE
:100DA000C020C2F200004068089950F82100FFF707
:100DB000D2FB41EC100B099948F61870C0F6000000
:100DC00000EBC10090ED001B9DED0A2B8DED022B79
:100DD00053EC112B51EC100BFFF7DCFA9DED020BDD
:100DE00041EC110B51EC110B53EC102BFFF72BFACC
:100DF00041EC100B8DED0A0B099801380990FFE7C3
:100E0000089801300890C0E700200890FFE7089894
:100E100041F2C021C2F20001C968884235DCFFE717
:100E200041F2C020C2F200004068089950F8210049
:100E3000FFF791FB41EC100B099948F61870C0F6CA
:100E4000000000EBC10090ED001B9DED0A2B8DED25
:100E5000002B53EC112B51EC100BFFF79BFA9DED7F
:100E6000000B41EC110B51EC110B53EC102BFFF765
:100E7000EAF941EC100B8DED0A0B09980138099045
:100E8000FFE7089801300890C1E7FFE7FFE79DED15
:100E90000A0B51EC100B9FED0A0B53EC102BFFF7D4
:100EA00079FA41EC100B51EC100BFFF765FB41F2A6
:100EB000D421C2F200010880FFE70EB080BD00BF60
:100EC000000000000000104080B584B041F2C02056
:100ED000C2F2000041F23C01C2F20001A12207F07F
:100EE00075FF01200390FFE70398A1280CDCFFE7C2
:100EF00041F2C020C2F20000002107F0A9FFFFE785
:100F0000039801300390EFE74FF4FA6000F012F914
:100F100000200290FFE70298A02823DCFFE7029957
:100F2000019148F61870C0F6000000EBC10090ED8A
:100F3000000B51EC100B9FED0C0B53EC102BFFF73B
:100F400029FA0A46019942EC100B41F67830C2F2B8
:100F5000000000EBC10080ED000BFFE702980130BC
:100F60000290D8E704B080BD000000000000F0400F
:100F700080B584B003900291019200930098B0F57F
:100F8000804F1DD1FFE70398019950F821000021FF
:100F9000CCF6F0710840029B1968D3F804E0D3F84E
:100FA00008C0DA6841EA0E1141EA0C219B69194335
:100FB00041EA024108430399019A41F8220006E000
:100FC0000399019A6FF0704041F82200FFE700207A
:100FD00004B080BD80B585B0049003910499039856
:100FE000026851F8220020F0010041F82200039825
:100FF0008068082803D1FFE74020029002E000202B
:101000000290FFE702980399D1F804E0D1F808C0F4
:10101000CB680A6940EA0E0040EA0C00184310430E
:101020004A691043CA6910430A6A10434A6A104366
:101030008A6A1043CA6A1043096B084301900398F7
:1010400081690198084301900398C16B0198084396
:1010500001904FF67F30C0F208000090009840F4F5
:1010600080600090009840F4E0200090049803997C
:10107000096850F8210000998843019908430499B0
:10108000039A126841F82200002005B080BD0000DC
:1010900080B583B00290019100920298009900EB14
:1010A0008100406800F04040019A1168D2F804E0E5
:1010B000D2F808C0D36841EA0E1141EA0C2141EA96
:1010C0000341D2F810C00023CFF6F07303EB0C53AA
:1010D00019435369FE3341EA03619269114308439E
:1010E0000299009A01EB82014860002003B080BDA4
:1010F00082B00090009890F83500022807D0FFE7F2
:1011000000998020486501208DF807000EE00099C5
:10111000052081F8350000980168086820F001007A
:101120000860FFE700208DF80700FFE79DF8070043
:1011300002B0704780B584B0039000F0B5FA029019
:10114000039801900198013048B1FFE740F2120086
:10115000C2F200000178019808440190FFE7FFE720
:1011600000F0A2FA0299401A0199884201D2FFE7E1
:10117000F6E704B080BD000080B58CB000200B9075
:101180000A9009900890079041F2D820C2F200001E
:10119000006808B1FFE76EE041F2D821C2F2000119
:1011A00001200860FFE70020069043F63800C4F2F3
:1011B0000200016841F001010160006800F00100D7
:1011C00006900698FFE74FF48050059007900220A4
:1011D00000900890002001900990032002900A904E
:1011E0000C2003900B9041F20040C4F2020007A9CA
:1011F000049100F065F8DDF800C0019B029A0398A5
:1012000004994FF6807ECDF81CE0CDF820C00993FC
:101210000A920B9041F20000C4F2020000F050F874
:10122000DDF800C0019B029A039804994CF2337ECA
:10123000CDF81CE0CDF820C009930A920B9040F63F
:101240000040C4F2020000F03BF8DDF800C0019B52
:10125000029A03980499DDF814E0CDF81CE0CDF86B
:1012600020C009930A920B9041F60000C4F20200DC
:1012700000F026F8FFE70CB080BD000081B0ADF8AB
:10128000020001B07047000080B582B0ADF80600E2
:1012900043F61440C4F201000068BDF8061008428D
:1012A0000CD0FFE7BDF8060043F61441C4F201017B
:1012B0000860BDF80600FFF7E1FFFFE702B080BD60
:1012C0008EB00D900C9100200A90099008900B9020
:1012D000FFE70B980F2800F2CC81FFE70B99012064
:1012E00088400A900C9800680A990840099009986B
:1012F0000A99884240F0B881FFE70C98406800F0F6
:101300000300012807D0FFE70C98406800F00300B5
:1013100002282FD1FFE70D98806808900B984100B4
:10132000032000FA01F10898884308900C98C068DF
:101330000B99490000FA01F10898084308900898B1
:101340000D9988600D98406808900B99012000FA6B
:1013500001F10898884308900C984068C0F3001089
:101360000B9900FA01F108980843089008980D9924
:101370004860FFE70C98406800F00300032818D08D
:10138000FFE70D98C06808900B984100032000FA11
:1013900001F10898884308900C9880680B994900DF
:1013A00000FA01F108980843089008980D99C86060
:1013B000FFE70C98406800F00300022826D1FFE701
:1013C0000D980B996FF0030202EA51010844006A7C
:1013D00008900B9800F0070081000F2000FA01F13F
:1013E0000898884308900C9800690B9901F0070150
:1013F000890000FA01F108980843089008980D99AF
:101400000B9B02EA530211440862FFE70D98006843
:1014100008900B984100032000FA01F108988843D6
:1014200008900C98406800F003000B99490000FAFE
:1014300001F108980843089008980D9908600C98E5
:1014400080798007002800F00E81FFE7FFE7002089
:10145000079043F64400C4F20200016841F4804161
:101460000160006800F4804007900798FFE70B9840
:1014700020F0030043F60801C4F20101405808902F
:101480000B9800F0030081000F2000FA01F108988A
:10149000884308900D980021C4F20201884203D1CC
:1014A000FFE7002006905EE00D9840F20041C4F294
:1014B0000201884203D1FFE70120059050E00D981A
:1014C00040F60001C4F20201884203D1FFE7022086
:1014D000049042E00D9840F60041C4F202018842B7
:1014E00003D1FFE70320039034E00D9841F200019F
:1014F000C4F20201884203D1FFE70420029026E0F3
:101500000D9841F20041C4F20201884203D1FFE785
:101510000520019018E00D9841F60001C4F2020187
:10152000884203D1FFE7062000900AE00D9941F6BA
:101530000042C4F202020820914208BF0720009036
:10154000FFE700980190FFE701980290FFE70298FB
:101550000390FFE703980490FFE704980590FFE7E6
:1015600005980690FFE70698C0B20B9901F00301B9
:10157000890000FA01F108980843089008980B992F
:1015800021F0030143F60802C4F20102885043F639
:101590000840C4F20100006808900999089888433F
:1015A00008900C988079C006002805D5FFE70999B6
:1015B000089808430890FFE7089843F60841C4F2EA
:1015C0000101086043F60C40C4F201000068089075
:1015D00009990898884308900C988079800600281B
:1015E00005D5FFE70999089808430890FFE7089890
:1015F00043F60C41C4F20101086043F60440C4F212
:1016000001000068089009990898884308900C9890
:1016100080798007002805D5FFE7099908980843D5
:101620000890FFE7089843F60441C4F201010860FE
:1016300043F60040C4F20100006808900999089838
:10164000884308900C988079C00728B1FFE7099972
:10165000089808430890FFE7089843F60041C4F251
:1016600001010860FFE7FFE7FFE70B9801300B90EF
:101670002FE60EB07047000082B00190ADF8021066
:101680008DF801209DF8010028B1FFE7BDF80200A8
:101690000199886105E0BDF80200000401998861A4
:1016A000FFE702B07047000042F2D410C2F200001F
:1016B0000068704740F21200C2F20000027842F265
:1016C000D411C2F20001086810440860704700009D
:1016D00080B543F60041C4F20201086840F400708E
:1016E0000860086840F480600860086840F4807012
:1016F0000860032000F094F80F2000F005F800F0D7
:101700003BF8002080BD000080B582B0009040F220
:101710000400C2F20000006840F21201C2F20001AF
:101720000A784FF47A71B1FBF2F1B0FBF1F001F0FD
:10173000B9F920B1FFE701208DF8070018E0009803
:101740000F280DD8FFE700994FF0FF30002200F07E
:101750004DF8009840F21401C2F20001086003E065
:1017600001208DF8070003E000208DF80700FFE757
:101770009DF8070002B080BD82B0FFE70020019015
:1017800043F64400C4F20200016841F48041016064
:10179000006800F4804001900198FFE7FFE7002017
:1017A000009043F64000C4F20200016841F080510D
:1017B0000160006800F0805000900098FFE702B0E0
:1017C0007047000080B582B08DF807009DF90700D2
:1017D00001F0DEFE02B080BD80B582B08DF807005A
:1017E0009DF9070001F0F0FE02B080BD80B586B023
:1017F0008DF81700049103920020029001F0FCFE86
:1018000002909DF91700019002980499039A01F043
:101810003BFC0146019801F0F7FE06B080BD0000D8
:1018200080B582B00190019801F010FF02B080BD38
:1018300080B584B002900191029820B9FFE70120A1
:101840008DF80F0021E1019843F60041C4F2020136
:10185000096801F00701884212D9FFE7019943F6B0
:101860000040C4F202000170006800F00700019916
:10187000884204D0FFE701208DF80F0005E1FFE763
:1018800002980078800700282AD5FFE702980078A0
:101890004007002809D5FFE743F60801C4F202011A
:1018A000086840F4E0500860FFE7029800780007FD
:1018B000002809D5FFE743F60801C4F202010868D1
:1018C00040F460400860FFE743F60801C4F20201FB
:1018D000086820F0F000029A926810430860FFE761
:1018E00002980078C00700286ED0FFE70298406891
:1018F000012811D1FFE743F60000C4F2020000689E
:1019000000F400310020B0EB514F04D1FFE701207B
:101910008DF80F00B9E02CE002984068022805D04D
:10192000FFE702984068032811D1FFE743F6000063
:10193000C4F20200006800F000710020B0EB516FAB
:1019400004D1FFE701208DF80F009EE010E043F680
:101950000000C4F20200006800F002010020B0EBB9
:10196000510F04D1FFE701208DF80F008DE0FFE754
:10197000FFE743F60801C4F20201086820F0030003
:10198000029A526810430860FFF78EFE0090FFE74E
:1019900043F60800C4F20200006800F00C0002994F
:1019A0004968B0EB810F0ED0FFE7FFF77DFE00998D
:1019B000401A41F28931884204D3FFE703208DF8B1
:1019C0000F0062E0E4E7FFE7019843F60041C4F24C
:1019D0000201096801F00701884212D2FFE701996C
:1019E00043F60040C4F202000170006800F00700F6
:1019F0000199884204D0FFE701208DF80F0044E0F0
:101A0000FFE702980078400700280CD5FFE743F66F
:101A10000801C4F20201086820F4E050029AD2687A
:101A200010430860FFE702980078000700280DD5F2
:101A3000FFE743F60801C4F20201086820F46040A1
:101A4000029A126940EAC2000860FFE700F04CF811
:101A500043F60801C4F202010968C9B20A0948F64E
:101A6000FC61C0F60001895CC84040F20401C2F28A
:101A70000001086040F21400C2F200000068FFF7A5
:101A800043FE00208DF80F00FFE79DF80F0004B023
:101A900080BD000040F20400C2F200000068704700
:101AA00080B5FFF7F7FF43F60801C4F202010968A9
:101AB000C1F3822248F60C71C0F60001895CC8406F
:101AC00080BD000080B5FFF7E5FF43F60801C4F2D2
:101AD0000201096889B24A0B48F60C71C0F6000190
:101AE000895CC84080BD000080B586B000200590AC
:101AF00004900390029043F60800C4F202000068CC
:101B000000F00C000146019140B1FFE70198042864
:101B10000AD0FFE7019808280CD04FE042F20040BD
:101B2000C0F2F40002904FE041F20020C0F27A00CF
:101B3000029049E043F60400C4F20200016801F09B
:101B40003F01059100684002002813D5FFE743F6E6
:101B50000400C4F202000068C0F3881041F20021C2
:101B6000C0F27A01A0FB0101059A0023FEF728FBD1
:101B7000049012E043F60400C4F202000068C0F3CF
:101B8000881042F20041C0F2F401A0FB0101059A65
:101B90000023FEF715FB0490FFE743F60400C4F2B0
:101BA0000200006800F44031022000EBD1300390C5
:101BB00004980399B0FBF1F0029005E042F2004076
:101BC000C0F2F4000290FFE7029806B080BD00006A
:101BD00080B586B00490049820B9FFE701208DF805
:101BE000170050E304980078C007002800F0A58093
:101BF000FFE743F60800C4F20200006800F00C00A2
:101C0000042813D0FFE743F60800C4F2020000687E
:101C100000F00C0008281ED1FFE743F60400C4F2D0
:101C2000020000684002002815D5FFE743F60000D7
:101C3000C4F20200006800F400310020B0EB514F04
:101C400008D0FFE70498406820B9FFE701208DF82D
:101C5000170018E370E0FFE704984068B0F5803F94
:101C600009D1FFE743F60001C4F20201086840F41D
:101C70008030086020E004984068B0F5A02F0DD1B6
:101C8000FFE743F60001C4F20201086840F4802037
:101C90000860086840F4803008600CE043F60001FA
:101CA000C4F20201086820F480300860086820F45B
:101CB00080200860FFE7FFE7FFE704984068E8B18D
:101CC000FFE7FFF7F1FC0390FFE743F60000C4F2E3
:101CD0000200006800F400310020B0EB514F0CD13D
:101CE000FFE7FFF7E1FC0399401A652804D3FFE7FB
:101CF00003208DF81700C6E2E7E71CE0FFF7D4FCED
:101D00000390FFE743F60000C4F20200006800F40D
:101D100000310020B0EB514F0CD0FFE7FFF7C4FCBF
:101D20000399401A652804D3FFE703208DF81700B4
:101D3000A9E2E7E7FFE7FFE7FFE7049800788007FD
:101D4000002840F19680FFE743F60800C4F2020045
:101D5000006810F00C0F13D0FFE743F60800C4F240
:101D60000200006800F00C0008282CD1FFE743F6C1
:101D70000400C4F2020000684002002823D4FFE7F8
:101D800043F60000C4F20200006800F002010020E7
:101D9000B0EB510F09D0FFE70498C068012804D0C8
:101DA000FFE701208DF817006DE243F60001C4F251
:101DB0000201086820F0F800049A126940EAC200A3
:101DC0000860FFE754E00498C06870B3FFE70021A3
:101DD000C4F2472101200860FFF766FC0390FFE78B
:101DE00043F60000C4F20200006800F00201002087
:101DF000B0EB510F0CD1FFE7FFF756FC0399401AE7
:101E0000032804D3FFE703208DF817003BE2E7E740
:101E100043F60001C4F20201086820F0F800049AB9
:101E2000126940EAC200086021E00021C4F24721A3
:101E300000200860FFF738FC0390FFE743F600003E
:101E4000C4F20200006800F002010020B0EB510F64
:101E50000CD0FFE7FFF728FC0399401A032804D3AE
:101E6000FFE703208DF817000DE2E7E7FFE7FFE744
:101E7000FFE704980078000700284BD5FFE7049897
:101E8000406918B3FFE740F68061C4F247210120A2
:101E90000860FFF709FC0390FFE743F67400C4F203
:101EA0000200006800F002010020B0EB510F0CD1DD
:101EB000FFE7FFF7F9FB0399401A032804D3FFE774
:101EC00003208DF81700DEE1E7E722E040F68061AD
:101ED000C4F2472100200860FFF7E6FB0390FFE70C
:101EE00043F67400C4F20200006800F00201002012
:101EF000B0EB510F0CD0FFE7FFF7D6FB0399401A68
:101F0000032804D3FFE703208DF81700BBE1E7E7C0
:101F1000FFE7FFE7049800784007002840F1CE80F3
:101F2000FFE700208DF8070043F64000C4F20200EE
:101F30000068C000002815D4FFE7FFE700200090EC
:101F400043F64000C4F20200016841F08051016094
:101F5000006800F0805000900098FFE701208DF8A5
:101F60000700FFE747F20000C4F200000068C00568
:101F7000002822D4FFE747F20001C4F200010868FC
:101F800040F480700860FFF78FFB0390FFE747F293
:101F90000000C4F200000068C00500280CD4FFE770
:101FA000FFF782FB0399401A032804D3FFE70320BD
:101FB0008DF8170067E1EAE7FFE7FFE7049880681C
:101FC000012809D1FFE743F67001C4F20201086855
:101FD00040F0010008601FE00498806805280DD1DA
:101FE000FFE743F67001C4F20201086840F0040004
:101FF0000860086840F0010008600CE043F67001DA
:10200000C4F20201086820F001000860086820F0AE
:1020100004000860FFE7FFE7FFE704988068F8B175
:10202000FFE7FFF741FB0390FFE743F67000C4F2C0
:102030000200006800F002010020B0EB510F0ED149
:10204000FFE7FFF731FB0399401A41F289318842DB
:1020500004D3FFE703208DF8170014E1E5E71EE045
:10206000FFF722FB0390FFE743F67000C4F2020083
:10207000006800F002010020B0EB510F0ED0FFE726
:10208000FFF712FB0399401A41F28931884204D3C9
:10209000FFE703208DF81700F5E0E5E7FFE79DF87F
:1020A0000700012809D1FFE743F64001C4F202010D
:1020B000086820F080500860FFE7FFE70498806917
:1020C000002800F0DC80FFE743F60800C4F20200BD
:1020D000006800F00C00082800F08580FFE70498F5
:1020E000806902285CD1FFE76021C4F2472100200B
:1020F0000860FFF7D9FA0390FFE743F60000C4F247
:102100000200006800F000710020B0EB516F0CD0AD
:10211000FFE7FFF7C9FA0399401A032804D3FFE742
:1021200003208DF81700AEE0E7E70499C869D1F8FD
:1021300020C04B6A8A6A40EA0C0040EA8310D2034E
:102140004FF6FF739A43A2F580321043C96A40EA02
:10215000016043F60401C4F2020108606021C4F288
:10216000472101200860FFF79FFA0390FFE743F63D
:102170000000C4F20200006800F000710020B0EB23
:10218000516F0CD1FFE7FFF78FFA0399401A03282C
:1021900004D3FFE703208DF8170074E0E7E721E0A0
:1021A0006021C4F2472100200860FFF77DFA039008
:1021B000FFE743F60000C4F20200006800F000717F
:1021C0000020B0EB516F0CD0FFE7FFF76DFA0399D9
:1021D000401A032804D3FFE703208DF8170052E0CC
:1021E000E7E7FFE74AE004988069012804D1FFE7A8
:1021F00001208DF8170046E043F60400C4F2020007
:102200000068029004988069012831D0FFE70298A5
:1022100000F480000499C969884229D1FFE7029837
:1022200000F03F000499096A884221D1FFE7029833
:1022300047F6C07108400499496AB0EB811F17D175
:10224000FFE7029800F440300499896AC9034FF609
:10225000FF729143A1F58031884209D1FFE70298CE
:1022600000F070600499C96AB0EB016F04D0FFE719
:1022700001208DF8170006E0FFE7FFE7FFE70020E9
:102280008DF81700FFE79DF8170006B080BD00002D
:1022900081B0009001B0704780B588B00790079872
:1022A00000684068069007980068806805909DF86F
:1022B000140000F040010020B0EB911F11D1FFE7A6
:1022C0000598C00768B1FFE79DF8180000F04001CD
:1022D0000020B0EB911F04D0FFE70798016C8847FE
:1022E000F0E09DF8140000F002010020B0EB510F67
:1022F0000BD0FFE79DF818100020B0EBD11F04D0E1
:10230000FFE70798416C8847DCE09DF8140000F077
:1023100020010020B0EB511F10D1FFE79DF8140001
:1023200000F040010020B0EB911F07D1FFE79DF8BE
:102330001500C007002800F0C580FFE79DF81800D1
:1023400000F020010020B0EB511F00F0BB80FFE740
:102350009DF8140000F040010020B0EB911F28D040
:10236000FFE7079890F85100032813D0FFE707997B
:10237000486D40F004004865FFE70020049007988E
:102380000068C0680490079800688068049004980A
:10239000FFE70DE0FFE70020039007980068C068A2
:1023A000039007980068806803900398FFE789E02E
:1023B000FFE79DF8140000F020010020B0EB511F52
:1023C00015D0FFE70799486D40F001004865FFE729
:1023D00000200290079800688068029007980168C2
:1023E000086820F0400008600298FFE7FFE79DF8CA
:1023F0001500C00778B1FFE70799486D40F0080065
:102400004865FFE700200190079800688068019008
:102410000198FFE7FFE70798406D002851D0FFE7DC
:1024200007980168486820F0E0004860079901209B
:1024300081F85100069800F00200022805D0FFE75D
:102440009DF81800C007B8B3FFE70798016848680F
:1024500020F0030048600798C06CA0B1FFE7079820
:10246000C16C43F20910C0F6000008650798C06C03
:10247000FEF73EFE30B1FFE70799486D40F040009F
:102480004865FFE7FFE70798806CA0B1FFE7079872
:10249000816C43F20910C0F6000008650798806C53
:1024A000FEF726FE30B1FFE70799486D40F0400087
:1024B0004865FFE7FFE703E00798FFF7E9FEFFE75E
:1024C000FFE7FFE708B080BD80B584B002900298B6
:1024D00020B9FFE701208DF80F0071E00298406AF3
:1024E00060B9FFE702984068B0F5827F01D1FFE74D
:1024F00003E002990020C861FFE705E0029900208F
:10250000086102994861FFE70299002088620298F9
:1025100090F8510040B9FFE70299002081F850007F
:10252000029800F051F8FFE70299022081F851006B
:1025300002980168086820F040000860029A019241
:1025400011685068D2F808C0D36800F482700CF4A7
:10255000044C604403F400631844136903F002035D
:102560001844536903F001031844936903F400739A
:102570001844D36903F038031844136A03F0800346
:102580001843926A02F4005210430860029A508B7A
:1025900000F004001168526A02F010021044486012
:1025A00002980168C86920F40060C861029900209F
:1025B0004865029A012182F851108DF80F00FFE75B
:1025C0009DF80F0004B080BD80B58AB0099000204E
:1025D000089007900690059004900998006843F6CB
:1025E0000041C4F2000188423FD1FFE7FFE700202D
:1025F000039043F64000C4F20200016841F4004138
:102600000160006800F4004003900398FFE7FFE7D3
:102610000020029043F63000C4F20200016841F04D
:1026200004010160006800F0040002900298FFE7D6
:102630004FF4E05004900220059000200090069096
:10264000032007900620089040F60000C4F2020024
:1026500004A9FEF735FE009A332001901146FFF7DA
:10266000C5F80198FFF7B8F8FFE70AB080BD000091
:1026700080B58CB0DDF838C00A9009910892ADF8A9
:102680001E3001200390FFF70FF804900A9890F88D
:1026900051008DF817000A9840680690BDF81E009A
:1026A000ADF81C009DF81700012812D0FFE706982E
:1026B000B0F5827F09D1FFE70A98806828B9FFE763
:1026C0009DF81700042804D0FFE702208DF82F00A2
:1026D0009BE1099838B1FFE7089820B1FFE7BDF802
:1026E0001E0020B9FFE701208DF82F008DE1FFE7E4
:1026F0000A9890F85000012804D1FFE702208DF8D5
:102700002F0082E10A99012081F85000FFE7FFE7DE
:102710000A9890F85100042805D0FFE70A9905208F
:1027200081F85100FFE70A990020486508990A9A44
:102730009163BDF81E100A9AD187BDF81E100A9A3F
:10274000918709990A9A1163BDF81E100A9AD186D9
:10275000BDF81E100A9A91860A9908640A9948647D
:102760000A980068006800F04000402807D0FFE7A2
:102770000A980168086840F040000860FFE70A987E
:10278000C068B0F5006F40F08180FFE70A984068AC
:1027900028B1FFE7BDF81C0001280ED1FFE70A9819
:1027A0000168006B0088C8600A99086B02300863F2
:1027B0000A99C88E0138C886FFE7FFE70A98C18EDC
:1027C0000120019039B9FFE70A98C08F002818BF8F
:1027D00001200190FFE70198C007002855D0FFE7CE
:1027E0000A98006880688007002818D5FFE70A98D3
:1027F000C08EA0B1FFE70398012810D1FFE70A9827
:102800000168006B0088C8600A99086B0230086391
:102810000A99C88E0138C88600200390FFE70A98FD
:1028200000688068C007A8B1FFE70A98C08F88B128
:10283000FFE70A980068C0680A99896B08800A99BE
:10284000886B023088630A99C88F0138C8870120D5
:102850000390FFE7FEF728FF0499401A0E9988427B
:1028600012D3FFE70E98013070B1FFE70A990120FB
:1028700081F85100FFE70A99002081F85000FFE736
:1028800003208DF82F00C0E098E782E00A984068A6
:1028900028B1FFE7BDF81C0001280ED1FFE70A9818
:1028A0000168006B007808730A99086B01300863AF
:1028B0000A99C88E0138C886FFE7FFE70A98C18EDB
:1028C0000120009039B9FFE70A98C08F002818BF8F
:1028D00001200090FFE70098C007002858D0FFE7CC
:1028E0000A98006880688007002818D5FFE70A98D2
:1028F000C08EA0B1FFE70398012810D1FFE70A9826
:102900000168006B007808730A99086B013008634E
:102910000A99C88E0138C88600200390FFE70A98FC
:1029200000688068C007A8B1FFE70A98C08F88B127
:10293000FFE70A980068C0680A99896B08700A99CD
:10294000886B013088630A99C88F0138C8870120D5
:102950000390FFE7FEF7A8FE0499401A0E998842FB
:1029600004D3FFE70E98013018B9FFE70E9870B94D
:10297000FFE70A99012081F85100FFE70A9900203A
:1029800081F85000FFE703208DF82F003DE095E728
:10299000FFE70A980E99049A00F0C6FB68B1FFE7BA
:1029A0000A9920204865FFE70A99002081F8500025
:1029B000FFE701208DF82F0027E00A98806870B9A2
:1029C000FFE7FFE7002002900A980068C0680290C5
:1029D0000A980068806802900298FFE7FFE70A996A
:1029E000012081F85100FFE70A99002081F850008A
:1029F000FFE70A98406D20B1FFE701208DF82F0016
:102A000003E000208DF82F00FFE79DF82F000CB0A9
:102A100080BD000080B584B00290019100920298C0
:102A200020B9FFE701208DF80F002FE0029890F801
:102A3000490040B9FFE70299002081F84800029858
:102A400000F028F8FFE7029951F8080BFEF7C2FAE8
:102A5000029A019910689268FEF71AFB029B00998E
:102A600058689A681B6BFEF783FA029801688268BF
:102A700051F8220040F0010041F8220002990120A3
:102A800081F8490000208DF80F00FFE79DF80F0046
:102A900004B080BD80B582B00190FEF76DFB02B03E
:102AA00080BD000080B582B00190019800F03AFC32
:102AB00002B080BD80B582B00090009820B9FFE7D9
:102AC00001208DF8070040E00098806908B1FFE719
:102AD00000E0FFE7009890F8410040B9FFE7009957
:102AE000002081F84000009800F034F8FFE70099DA
:102AF000242081F8410000980168C86820F4005043
:102B0000C860009800F0A4FC00980168086920F4EF
:102B10009040086100980168486920F02A004861E7
:102B200000980168C86840F40050C860009900200F
:102B30004864009A202182F84110009A82F84210DD
:102B4000009948638DF80700FFE79DF8070002B081
:102B500080BD000080B588B00790002006900590E9
:102B60000490039002900798006841F20001C4F2BB
:102B70000101884234D1FFE7FFE70020019043F6CE
:102B80004400C4F20200016841F0100101600068D5
:102B900000F0100001900198FFE7FFE7002000908F
:102BA00043F63000C4F20200016841F00101016007
:102BB000006800F0010000900098FFE74FF4C0604B
:102BC000029002200390002004900320059007202B
:102BD00006900020C4F2020002A9FEF771FBFFE795
:102BE00008B080BDFFE7FEE782B0019000200090B2
:102BF000FFE70098022813DCFFE7019A009B02EB35
:102C0000C301002042F8330048600199009A01EBAB
:102C1000C201C8618861FFE7009801300090E8E7D1
:102C200002B0704780B590B00F908DED0C0B022074
:102C30000B90FFE70B9801280DDBFFE70F980B992E
:102C400000EBC10010ED020B80ED000BFFE70B98CD
:102C500001380B90EEE79DED0C0B0F9880ED000B0B
:102C60000020099008900790FFE7079802282BDCC6
:102C7000FFE7079949F23840C0F6000000EBC100B9
:102C800090ED001B0F9800EBC10090ED000B9DED47
:102C9000082B8DED022B51EC110B53EC102BFDF793
:102CA00079FB9DED020B41EC110B51EC110B53EC38
:102CB000102BFDF7C8FA41EC100B8DED080BFFE768
:102CC000079801300790D0E701200690FFE70698AB
:102CD00002282BDCFFE7069949F22040C0F60000ED
:102CE00000EBC10090ED001B0F9800EBC10090EDD0
:102CF000040B9DED082B8DED002B51EC110B53ECCB
:102D0000102BFDF747FB9DED000B41EC110B53EC35
:102D1000112B51EC100BFDF737FB41EC100B8DED37
:102D2000080BFFE7069801300690D0E702200590D7
:102D3000FFE7059801280DDBFFE70F98059900EBE9
:102D4000C10090ED040B80ED060BFFE705980138FC
:102D50000590EEE79DED080B0F9880ED060B9DEDBD
:102D6000080B10B080BD000080B590B0002100912C
:102D70000F910E910D910C910B910A91099108916F
:102D800007910691059104910391029142F2F4009A
:102D9000C2F2000001904FF02042026040F20412A3
:102DA000CAF20002426006228260C1600161102303
:102DB00043618161C161016241624FF4805282626C
:102DC000C1624FF4804202634163816341644FF00A
:102DD0000F0CCDF824C0CDF828C0FF220B92CDF8FF
:102DE00030C00D9311220E920F914FF0090ECDF8C5
:102DF00008E0CDF80CC04FF0080CCDF810C00591DC
:102E000006930792089109A902AAFFF703FE18B1D9
:102E1000FFE7FDF73DFFFFE710B080BD80B598B03C
:102E2000002017901690159014901390FFE7002043
:102E3000129043F63000C4F20200016841F0100124
:102E40000160006800F0100012901298FFE7FFE7A1
:102E50000020119043F63000C4F20200016841F0F6
:102E600080010160006800F0800011901198FFE778
:102E7000FFE70020109043F63000C4F20200016822
:102E800041F001010160006800F00100109010980D
:102E9000FFE7FFE700200F9043F63000C4F2020086
:102EA000016841F004010160006800F004000F9027
:102EB0000F98FFE7FFE700200E9043F63000C4F2C2
:102EC0000200016841F020010160006800F020006C
:102ED0000E900E98FFE7FFE700200D9043F63000BC
:102EE000C4F20200016841F008010160006800F0CE
:102EF00008000D900D98FFE7FFE700200C9043F6C7
:102F00003000C4F20200016841F040010160006835
:102F100000F040000C900C98FFE70020C4F2020083
:102F20000290E021039100220A92FEF7A5FB0C20FB
:102F300013904FF488100190149001200490159084
:102F400041F20000C4F2020013A90591FEF7B8F99E
:102F5000019A0298049B05991393149202220892F5
:102F60001592FEF7ADF90298DDF810C00599089AA0
:102F70000A9BDDF80CE0CDF84CE0CDF850C015937D
:102F80001692FEF79DF904980599102213924FF4BA
:102F900004121492159040F60000C4F20200FEF7ED
:102FA0008FF908990A9A06200690FEF71FFC0698EA
:102FB000FEF712FC08990A9A08200790FEF716FC03
:102FC0000798FEF709FC08990A9A09200990FEF76C
:102FD0000DFC0998FEF700FC0A9A0A200B90114696
:102FE000FEF704FC0B98FEF7F7FB18B080BD00005D
:102FF00080B582B042F29C00C2F20000019043F61C
:103000000041C4F2000101604FF48271416000216F
:103010008160C1600161012242614FF400728261EE
:103020002022C2610162416281620A21C162FFF70E
:103030004BFA18B1FFE7FDF72BFEFFE702B080BDAA
:1030400080B582B042F24410C2F20000019041F219
:103050000001C4F2010101604FF4E131416000213F
:103060008160C16001610C2242618161C161FFF731
:1030700021FD18B1FFE7FDF70BFEFFE702B080BDB1
:10308000FFE7FEE7FFE7FEE788B0079006910592AD
:10309000079800F0070004900498C0F10700052885
:1030A00003D3FFE70420019004E00498C0F1070077
:1030B0000190FFE70198039004980430062803D894
:1030C000FFE70020009003E0049803380090FFE73A
:1030D0000098029006980399012202FA01F1013941
:1030E0000840029B984005999A40013A11400843D4
:1030F00008B070477047000080B542F29C00C2F2F1
:103100000000FFF7C9F880BD80B582B0019001983A
:10311000806B009000990020C8870099C8860098AD
:10312000FFF7B6F802B080BD80B586B00490039179
:1031300002920498039B02996A46116002210122BF
:1031400000F058F848B1FFE70499486D40F02000BE
:10315000486503208DF8170048E040F20400C2F2F1
:10316000000000684AF6AB21CAF6AA21A0FB0110B4
:1031700000094DF68361C4F21B31A0FB0110800CE5
:103180004FF47A714843019004984068B0F5827F0B
:1031900015D1FFE70498039B02996A4611608021CC
:1031A000002200F027F848B1FFE70499486D40F08D
:1031B0002000486503208DF8170017E012E0FFE7B4
:1031C000019808B9FFE70CE0019801380190FFE78A
:1031D000049800688068C1B20020B0EBD11FEFD125
:1031E000FFE7FFE700208DF81700FFE79DF81700C5
:1031F00006B080BD80B58AB0DDF830C00890079178
:103200008DF81B20059305980190FEF74DFA0246B4
:1032100001980C99891A08440390FEF745FA029028
:10322000039840F20401C2F200010968C1F3CB31F6
:1032300048430490FFE708980068806807990840B1
:10324000401AB0FA80F040099DF81B1088425ED009
:10325000FFE705980130002858D0FFE7FEF724FA71
:103260000299401A0399884204D2FFE70398002884
:1032700042D1FFE708980168486820F0E000486004
:1032800008984068B0F5827F13D1FFE708988068FE
:10329000B0F5004F06D0FFE708988068B0F5806F62
:1032A00007D1FFE708980168086820F0400008602F
:1032B000FFE70898806AB0F5005F0FD1FFE7FFE7EE
:1032C00008980168086820F40050086008980168B0
:1032D000086840F400500860FFE7FFE70899012004
:1032E00081F85100FFE70899002081F85000FFE7BE
:1032F00003208DF827000EE0049818B9FFE700209E
:103300000390FFE7049801380490FFE793E700205B
:103310008DF82700FFE79DF827000AB080BD000068
:103320007047000080B582B0009000980138B0F17D
:10333000807F03D3FFE70120019019E00098013856
:103340004EF21401CEF2000108604FF0FF300F2161
:1033500000F05AF94EF21801CEF200010020086088
:103360004EF21002CEF20002072111600190FFE739
:10337000019802B080BD000080B5FEF79BF980BDCA
:1033800080B594B008A83021FCF752FF00200790C8
:103390000690059004900390FFE70020029043F60A
:1033A0004000C4F20200016841F0805101600068F1
:1033B00000F0805002900298FFE7FFE700200190A4
:1033C00047F20000C4F20000016841F4804101604E
:1033D000006800F4804001900198FFE70120089008
:1033E0004FF48030099002210E914FF480000F902D
:1033F00004201090A82211921291139008A8FEF7B1
:10340000E7FB18B1FFE7FDF743FCFFE70F20039050
:1034100002200490002005904FF4A05006904FF435
:103420008050079003A80521FEF702FA18B1FFE7C4
:10343000FDF72EFCFFE714B080BD00004EF688516A
:10344000CEF20001086840F4700008607047000088
:1034500080B586B0059005980068006920F440505A
:10346000059A1168D26810430861059988680B694C
:103470004A69C969184310430843049005980068D5
:10348000C06849F20C6188430499084305990968AA
:10349000C86005980068406920F44070059A11687A
:1034A0009269104348610598006841F20001C4F236
:1034B0000101884209D0FFE70598006841F2004108
:1034C000C4F20101884204D1FFE7FEF7FBFA039042
:1034D00003E0FEF7E5FA0390FFE70598C069B0F551
:1034E000004F29D1FFE703981921A0FB0101059A9C
:1034F0001368029353685A00DB0FFCF761FE0299D0
:10350000864648F21F53C5F2EB13AEFB0320420977
:1035100010014FF0640C02FB1CEC322202EBCC02D7
:10352000A2FB0332F82303EA521300EB4300C2F379
:1035300042121044886026E003981921A0FB010183
:10354000059A1368019353689A009B0FFCF738FEA5
:103550000199844648F21F52C5F2EB12ACFB0230CF
:103560004309642003FB10CC322000EB0C10A0FBBD
:103570000202F02000EA521000EB0310C2F34312E3
:1035800010448860FFE706B080BD0000FFE7FEE75B
:1035900081B08DF803009DF90300002812D4FFE7E5
:1035A0009DF9031001F01F02012090404A094EF2DC
:1035B0008011CEF2000141F82200BFF34F8FBFF31C
:1035C0006F8FFFE701B0704781B08DF803009DF960
:1035D000030000280ED4FFE79DF9031001F01F023D
:1035E000012090404A094EF20011CEF2000141F84C
:1035F0002200FFE701B070474EF60C50CEF20000FB
:103600000068C0F30220704782B08DF80700009177
:103610009DF9070000280AD4FFE7009800019DF9F2
:1036200007104EF20042CEF2000288540BE00098E0
:1036300000019DF8071001F00F014EF61452CEF272
:1036400000028854FFE702B07047000083B0029088
:10365000029800F0070000904EF60C51CEF20001E7
:103660000868019001984FF6FF0210400190019800
:10367000009A40EA02200022C0F2FA521043019060
:103680000198086003B0704786B00590ADF812103D
:10369000ADF8102003930020ADF80400BDF812101F
:1036A0004908ADF80A10BDF81220012101EB5201C2
:1036B000ADF80810ADF80600FFE7BDF80600BDF84C
:1036C0000A100239884200F2C680FFE7BDF8060002
:1036D000BDF80410884271DAFFE70598BDF80610BE
:1036E00050F8310000900599BDF8040051F8300001
:1036F000BDF8062041F8320000980599BDF8042075
:1037000041F832000598BDF8061000EBC100406892
:1037100000900599BDF8040001EBC0004068BDF8B9
:10372000062001EBC201486000980599BDF804200D
:1037300001EBC20148600598BDF80610BDF80820ED
:10374000114450F8310000900599BDF80400BDF80F
:103750000830184451F83000BDF806201A4441F8EA
:10376000320000980599BDF80420BDF808301A44CD
:1037700041F832000598BDF80610BDF80820114444
:1037800000EBC100406800900599BDF80400BDF849
:103790000830184401EBC0004068BDF806201A4408
:1037A00001EBC201486000980599BDF80420BDF8FE
:1037B00008301A4401EBC2014860FFE70598BDF8E4
:1037C000061000EBC100806800900599BDF8040068
:1037D000BDF80A20104451F83000BDF8062001EB76
:1037E000C201886000980599BDF80420BDF80A3030
:1037F0001A4441F832000598BDF8061000EBC100EC
:10380000C06800900599BDF80400BDF80A20104476
:1038100001EBC0004068BDF8062001EBC201C860A2
:1038200000980599BDF80420BDF80A301A4401EB50
:10383000C201486003980088ADF80400BDF810107C
:10384000039800EB41000390FFE7BDF8060002304B
:10385000ADF8060031E706B07047000080B582B0D1
:10386000019000910198807801280ED1FFE700981F
:10387000DDF804C0BCF80010DCF80420BCF80C3003
:103880009CED040A00F01CFB07E00098019B1988DE
:103890005A689B8900F05EF9FFE70198C07801281B
:1038A00008D1FFE70098019B1988DA899B68FFF728
:1038B000EBFEFFE702B080BD84B00390ADF80A10C4
:1038C0008DF809208DF80830FF208DF807000020C2
:1038D0008DF80700BDF80A000399088003994CF69B
:1038E000E430C0F6000048609DF809000399887034
:1038F0009DF808000399C87003980088014600915C
:10390000102856D0FFE70098402841D0FFE70098E4
:10391000B0F5807F2BD0FFE70098B0F5806F15D011
:10392000FFE70098B0F5805F56D1FFE703990120CB
:1039300088810399C881039949F25040C0F600007C
:10394000886003994FF06650086149E003990420AC
:1039500088810399C881039949F25040C0F600005C
:103960000630886003994FF06A50086138E0039987
:10397000102088810399C881039949F25040C0F60C
:1039800000001E30886003994FF06E50086127E0F8
:103990000399402088810399C881039949F25040D6
:1039A000C0F600007E30886003994FF072500861C5
:1039B00016E003994FF4807088810399C8810399B8
:1039C00049F25040C0F6000000F5FF70886003998E
:1039D0004FF07650086103E0FF208DF80700FFE705
:1039E0009DF9070004B0704780B58AB00690059134
:1039F000049204980390FFE70398C0B3FFE706988A
:103A0000011D0691006802900698011D069100684C
:103A100001909DED020A9DED011A21EE011A20EEA2
:103A2000000A30EE010A0598011D05918DED080A86
:103A300007909DED080AB5EE400AF1EE10FA0BDB97
:103A4000FFE79DED080A05F026FA079880ED000AC9
:103A500000208DF8270006E0079900200860FF206D
:103A60008DF82700FFE7039801380390C4E70AB0F8
:103A700080BD000087B0069005910492039300205A
:103A800000900698811C06910088ADF80800059802
:103A900001380190FFE70198D0B1FFE70698811C3B
:103AA00006910088ADF80A00BDF90800BDF90A10BA
:103AB000884209DAFFE7BDF80A00ADF8080005986A
:103AC0000199401A0090FFE7019801380190E2E760
:103AD000BDF808000499088000980399086007B0B1
:103AE0007047000087B00690059104920393002070
:103AF00000900698811C06910088ADF80800059892
:103B000001380190FFE70198D0B1FFE70698811CCA
:103B100006910088ADF80A00BDF90800BDF90A1049
:103B2000884209DDFFE7BDF80A00ADF808000598F6
:103B30000199401A0090FFE7019801380190E2E7EF
:103B4000BDF808000499088000980399086007B040
:103B5000704700009BB01A90ADF866101892ADF84F
:103B60005E30BDF86600089008980990BDF86600C0
:103B70000690FFE706980228C0F09F81FFE70898AB
:103B80000990089880080890002010900790FFE79F
:103B9000109800440F900F98109908440E901898B0
:103BA000109950F8310016901898109900EBC10048
:103BB0004068139018980F9950F831001590189894
:103BC0000F9900EBC1004068129018980E9950F8B8
:103BD0003100149018980E9900EBC10040681190C4
:103BE0001098BDF85E100844109007980D90FFE7FC
:103BF0000D98089908440C900C98089908440B906B
:103C00000B98089908440A901A980D9900EBC10185
:103C100091ED000A0B9900EBC10090ED001A30EE17
:103C2000010A8DED030A1A980D9900EBC10191ED7F
:103C3000000A0B9900EBC10090ED001A30EE410A2A
:103C40008DED020A1A980D9900EBC10191ED010A60
:103C50000B9900EBC10090ED011A30EE010A8DEDD9
:103C6000010A1A980D9900EBC10191ED010A0B9917
:103C700000EBC10090ED011A30EE410A8DED000A13
:103C80001A980C9900EBC10191ED000A0A9900EB1A
:103C9000C10090ED001A30EE010A8DED050A9DED90
:103CA000030A9DED051A30EE010A1A980D9900EBF2
:103CB000C10080ED000A9DED030A9DED051A30EE6E
:103CC000410A8DED030A1A980C9900EBC10191EDA0
:103CD000010A0A9900EBC10090ED011A30EE010AC9
:103CE0008DED040A9DED010A9DED041A30EE010AE6
:103CF0001A980D9900EBC10080ED010A9DED010AB3
:103D00009DED041A30EE410A8DED010A1A980C99C6
:103D100000EBC10191ED010A0A9900EBC10090EDA1
:103D2000011A30EE410A8DED050A1A980C9900EB44
:103D3000C10191ED000A0A9900EBC10090ED001A53
:103D400030EE410A8DED040A9DED030A9DED152A22
:103D50009DED011A9DED123A21EE031A20EE020AA2
:103D600030EE010A1A980C9900EBC10080ED000AB0
:103D70009DED010A9DED152A9DED031A9DED123A68
:103D800021EE031A20EE020A30EE410A1A980C992D
:103D900000EBC10080ED010A9DED020A9DED051AC0
:103DA00030EE010A8DED030A9DED020A9DED051A24
:103DB00030EE410A8DED020A9DED000A9DED041AD8
:103DC00030EE410A8DED010A9DED000A9DED041AC9
:103DD00030EE010A8DED000A9DED030A9DED162AD5
:103DE0009DED011A9DED133A21EE031A20EE020A11
:103DF00030EE010A1A980B9900EBC10080ED000A21
:103E00009DED010A9DED162A9DED031A9DED133AD5
:103E100021EE031A20EE020A30EE410A1A980B999D
:103E200000EBC10080ED010A9DED020A9DED142A10
:103E30009DED001A9DED113A21EE031A20EE020AC3
:103E400030EE010A1A980A9900EBC10080ED000AD1
:103E50009DED000A9DED142A9DED021A9DED113A8B
:103E600021EE031A20EE020A30EE410A1A980A994E
:103E700000EBC10080ED010A09990D9808440D90EE
:103E8000FFE70D98BDF866108842FFF4B1AEFFE77A
:103E9000079801300790FFE7079808990139884291
:103EA0007FF676AEFFE7BDF85E008000ADF85E00FD
:103EB000FFE70698800806905CE61BB0704700009C
:103EC0009CB01B90ADF86A101992ADF862308DED80
:103ED000170ABDF86A00089008980990BDF86A00B2
:103EE0000690FFE706980528C0F09F81FFE7089835
:103EF0000990089880080890002010900790FFE72C
:103F0000109800440F900F98109908440E9019983B
:103F1000109950F8310016901998109900EBC100D3
:103F20004068139019980F9950F83100159019981E
:103F30000F9900EBC1004068129019980E9950F843
:103F40003100149019980E9900EBC100406811904F
:103F50001098BDF862100844109007980D90FFE784
:103F60000D98089908440C900C98089908440B90F7
:103F70000B98089908440A901B980D9900EBC10111
:103F800091ED000A0B9900EBC10090ED001A30EEA4
:103F9000010A8DED030A1B980D9900EBC10191ED0B
:103FA000000A0B9900EBC10090ED001A30EE410AB7
:103FB0008DED020A1B980D9900EBC10191ED010AEC
:103FC0000B9900EBC10090ED011A30EE010A8DED66
:103FD000010A1B980D9900EBC10191ED010A0B99A3
:103FE00000EBC10090ED011A30EE410A8DED000AA0
:103FF0001B980C9900EBC10191ED000A0A9900EBA6
:10400000C10090ED001A30EE010A8DED050A9DED1C
:10401000030A9DED051A30EE010A1B980D9900EB7D
:10402000C10080ED000A9DED030A9DED051A30EEFA
:10403000410A8DED030A1B980C9900EBC10191ED2B
:10404000010A0A9900EBC10090ED011A30EE010A55
:104050008DED040A9DED010A9DED041A30EE010A72
:104060001B980D9900EBC10080ED010A9DED010A3E
:104070009DED041A30EE410A8DED010A1B980C9952
:1040800000EBC10191ED010A0A9900EBC10090ED2E
:10409000011A30EE410A8DED050A1B980C9900EBD0
:1040A000C10191ED000A0A9900EBC10090ED001AE0
:1040B00030EE410A8DED040A9DED030A9DED152AAF
:1040C0009DED011A9DED123A21EE031A20EE020A2F
:1040D00030EE410A1B980C9900EBC10080ED000AFC
:1040E0009DED010A9DED152A9DED031A9DED123AF5
:1040F00021EE031A20EE020A30EE010A1B980C99F9
:1041000000EBC10080ED010A9DED020A9DED051A4C
:1041100030EE410A8DED030A9DED020A9DED051A70
:1041200030EE010A8DED020A9DED000A9DED041AA4
:1041300030EE010A8DED010A9DED000A9DED041A95
:1041400030EE410A8DED000A9DED030A9DED162A21
:104150009DED011A9DED133A21EE031A20EE020A9D
:1041600030EE410A1B980B9900EBC10080ED000A6C
:104170009DED010A9DED162A9DED031A9DED133A62
:1041800021EE031A20EE020A30EE010A1B980B9969
:1041900000EBC10080ED010A9DED020A9DED142A9D
:1041A0009DED001A9DED113A21EE031A20EE020A50
:1041B00030EE410A1B980A9900EBC10080ED000A1D
:1041C0009DED000A9DED142A9DED021A9DED113A18
:1041D00021EE031A20EE020A30EE010A1B980A991A
:1041E00000EBC10080ED010A09990D9808440D907B
:1041F000FFE70D98BDF86A108842FFF4B1AEFFE703
:10420000079801300790FFE707980899013988421D
:104210007FF676AEFFE7BDF862008000ADF8620081
:10422000FFE70698800806905CE6089809900898D1
:104230008008089000200D90FFE70D98BDF86A10E7
:10424000099A891A884200F22381FFE70D9808999C
:1042500008440C900C98089908440B900B98089906
:1042600008440A901B980D9900EBC10191ED000ADA
:104270000B9900EBC10090ED001A30EE010A8DEDB4
:10428000030A1B980D9900EBC10191ED000A0B99EF
:1042900000EBC10090ED001A30EE410A8DED020AEC
:1042A0001B980D9900EBC10191ED010A0B9900EBF0
:1042B000C10090ED011A30EE010A8DED010A1B9844
:1042C0000D9900EBC10191ED010A0B9900EBC100C2
:1042D00090ED011A30EE410A8DED000A1B980C9901
:1042E00000EBC10191ED000A0A9900EBC10090EDCD
:1042F000001A30EE010A8DED050A9DED030A9DEDD1
:10430000051A30EE010A9DED171A20EE010A1B98DE
:104310000D9900EBC10080ED000A9DED030A9DEDB3
:10432000051A30EE410A8DED030A1B980C9900EB3B
:10433000C10191ED010A0A9900EBC10090ED011A4B
:1043400030EE010A8DED040A9DED010A9DED041A7F
:1043500030EE010A9DED171A20EE010A1B980D9907
:1043600000EBC10080ED010A9DED010A9DED041AEC
:1043700030EE410A8DED010A1B980C9900EBC1014A
:1043800091ED010A0A9900EBC10090ED011A30EE9F
:10439000410A8DED050A1B980C9900EBC10191EDC6
:1043A000000A0A9900EBC10090ED001A30EE410AB4
:1043B0008DED040A9DED030A9DED171A20EE010A0A
:1043C0001B980C9900EBC10080ED000A9DED010ADD
:1043D0009DED171A20EE010A1B980C9900EBC10005
:1043E00080ED010A9DED020A9DED051A30EE410AAD
:1043F0008DED030A9DED020A9DED051A30EE010ACE
:104400008DED020A9DED000A9DED041A30EE010AC1
:104410008DED010A9DED000A9DED041A30EE410A72
:104420008DED000A9DED030A9DED171A20EE010A9D
:104430001B980B9900EBC10080ED000A9DED010A6D
:104440009DED171A20EE010A1B980B9900EBC10095
:1044500080ED010A9DED020A9DED171A20EE010A7A
:104460001B980A9900EBC10080ED000A9DED000A3F
:104470009DED171A20EE010A1B980A9900EBC10066
:1044800080ED010AFFE709990D9808440D90D4E6E4
:104490001CB0704782B000208DF80700FFE79DF840
:1044A000070001283EDCFFE79DF8072002EB4200F1
:1044B00041F2DF23C2F200031844C07840F2180131
:1044C000C2F20001009141F822009DF8072051F846
:1044D0002200000241F822009DF8072002EB420072
:1044E000184490F804C051F8220040EA0C0041F84A
:1044F00022009DF8072051F82200000241F8220016
:104500009DF8072002EB42001844437951F822003D
:10451000184341F82200FFE79DF8070001308DF8AD
:104520000700BCE740F21801C2F20001086800125F
:1045300008604868001248600888086088884860F9
:104540000A6840F23800C2F20000028049684180E7
:10455000B0F9000000EE100AB8EEC00A9FED071A8D
:1045600020EE010A9FED061A80EE010A41F2EC20CE
:10457000C2F2000080ED000A02B0704748E11A4024
:1045800000FEFF4680B582B0ADF80600BDF806001B
:10459000FCF7D0FD02B080BD82B0019000200090F9
:1045A000FFE700980199884206D2FFE700BFFFE7C6
:1045B000009801300090F4E702B0704780B58AB0EF
:1045C0000990ADF82210BDF8220000EE100AB8EEF6
:1045D000C00A9FED6C1A80EE010A42F2B810C2F2D6
:1045E000000080ED000A42F2A211C2F200014FF673
:1045F0006A70088042F2B011C2F200019620088071
:104600000020059000F0F0FA0598ADF81A00FFE7D9
:10461000BDF81A00BDF822100139884280F2AA8044
:10462000FFE7BDF81A0000EE100AB8EEC00A42F229
:10463000B810C2F2000090ED001A80EE010ABDEE43
:10464000C00A10EE100AADF81C00BDF81C000A30BC
:10465000ADF820000998BDF81A1030F91100DC21DE
:10466000484348F2B511C1F64E3150FB01F14809FB
:1046700000EBD170C0F1F000ADF81E0040F20C006C
:10468000C2F200000068E0B1FFE7BDF81E100A208A
:1046900004904FF6FF7200F075FC049842F29011FE
:1046A000C2F200010880BDF81E0042F29211C2F26F
:1046B0000001088040F20C01C2F2000100200860F5
:1046C0001FE042F29010C2F200000290008842F215
:1046D0009211C2F2000103910988BDF82020BDF8B3
:1046E0001E30EE464FF6FF7CCEF800C000F0B2FB65
:1046F000029A0399BDF820001080BDF81E000880C2
:10470000FFE70998BDF81A1030F9110042F2A21122
:10471000C2F20001B1F9001088420BDDFFE70998F1
:10472000BDF81A1030F8110042F2A211C2F20001D5
:104730000880FFE70998BDF81A1030F9110042F21D
:10474000B011C2F20001B1F9001088420BDAFFE7A4
:104750000998BDF81A1030F8110042F2B011C2F2F7
:1047600000010880FFE7FFE7BDF81A000130ADF84F
:104770001A004DE740F20C01C2F20001012008606E
:104780000AB080BD0000E64380B58AB0ADF82600CF
:1047900042F2B410C2F200000088ADF8200042F2EC
:1047A000AE10C2F200000088ADF81E004FF6D870BF
:1047B000ADF81C005020ADF81A00BDF91C00BDF981
:1047C0002610BDF92030C91ABDF91A20121A51431A
:1047D000BDF91E20D21A91FBF2F10844ADF8180081
:1047E000BDF91800DC21484344F6D351C1F26201FF
:1047F00050FB01F1480900EBD170C0F16E00ADF83B
:10480000220040F20800C2F200000078E0B1FFE7A9
:10481000BDF822100A2005904FF6FF7200F0B2FB9F
:10482000059842F29011C2F200010880BDF8220002
:1048300042F29211C2F20001088040F20801C2F275
:104840000001002008704DE042F29010C2F200001A
:1048500000880130ADF82400BDF82400B0F59B7F3E
:1048600020DAFFE742F29010C2F2000003900088C5
:1048700042F29211C2F2000104910988BDF824208D
:10488000BDF82230EE464FF6FF7CCEF800C000F0B7
:10489000E1FA039A0499BDF824001080BDF82200C3
:1048A00008801EE06846002101604FF4A072BE231C
:1048B000084603F05BF8BDF822100A2002904FF67C
:1048C000FF7200F05FFB029842F29011C2F2000109
:1048D0000880BDF8220042F29211C2F20001088065
:1048E000FFE7FFE70AB080BD80B586B00A20ADF8CB
:1048F00016008C20ADF814000520ADF81200ADF8BC
:104900001000BDF81600BDF814306A464FF6FF716E
:1049100011604FF49B72194600F09CFABDF8160026
:10492000ADF80E00FFE7BDF80E00B0F59B7F19DA79
:10493000FFE7BDF80E20BDF81400BDF81230C11A13
:104940001844EC464FF6FF73CCF8003089B283B2BE
:10495000104600F07FFAFFE7BDF80E001430ADF806
:104960000E00E0E7BDF81620BDF8143069464FF69A
:10497000FF7008600A210291104600F06BFA02985D
:10498000ADF80C00FFE7BDF80C00BDF8141088422C
:1049900019DCFFE7BDF81610BDF81020881ABDF825
:1049A0000C301144EC464FF6FF72CCF8002080B278
:1049B0008AB2194600F04EFAFFE7BDF80C00143039
:1049C000ADF80C00DFE706B080BD0000000000007D
:1049D00080B586B000200590FFE70598FF2824DC0D
:1049E000FFE7059940F23C00C2F2000030F81100E8
:1049F0004CF6CD42CCF6CC42A0FB0220000900EEE2
:104A0000100AB8EEC00A40F23C40C2F2000000EBCF
:104A1000C10181ED000A059900EBC1010020486049
:104A2000FFE7059801300590D7E742F2C010C2F2C7
:104A3000000040F23C41C2F200010391FEF70EFF7C
:104A4000039840F63C41C2F200014FF48072FEF739
:104A5000CBFF00200490FFE70498FF2848DCFFE725
:104A60000499019140F63C40C2F20000029050F8D7
:104A70002100FBF7B9FD41EC100B51EC100B9FED41
:104A80001E0B53EC102BFBF785FC41EC100B51EC8B
:104A9000100B9FED1B0B53EC102BFBF77BFC41EC39
:104AA000100B51EC100B9FED180B53EC102BFBF778
:104AB000E3FC41EC100B51EC100BFBF7A8FD019A45
:104AC0000146029840F82210049A00EB820090ED13
:104AD000000ABDEEC00A10EE100A41F2F021C2F247
:104AE000000121F81200FFE7049801300490B3E7B9
:104AF00006B080BD00BF00BF0AD7A3703D0AD73FF4
:104B0000000000000000E03F0000000000408F4077
:104B100083B0019042F2A410C2F20000B0F900008C
:104B200000EB907080104000009042F29400C2F2BE
:104B300000000068A8B9FFE742F29401C2F2000148
:104B400001200860019842F29801C2F20001086059
:104B5000019842F29001C2F2000108600020029028
:104B60003EE0019842F29001C2F2000109688842D9
:104B700007DCFFE7019842F29001C2F200010860F1
:104B80002BE042F29800C2F20000006842F290016D
:104B9000C2F200010968401A009988420FDBFFE762
:104BA000019842F29801C2F200010860019842F2B5
:104BB0009001C2F2000108600120029010E001980B
:104BC00042F29801C2F200010860019842F290019D
:104BD000C2F200010860FFE7FFE700200290FFE754
:104BE000029803B07047000080B584B0ADF80E00A5
:104BF00000210091029142F29410C2F2000002885A
:104C000001924288019850430190084603F0C2FB8C
:104C100003F0CAFE00980290FFE7029801998842CB
:104C20000BD2FFE7BDF80E008021C6F600410880D8
:104C3000FFE7029801300290EFE704B080BD00006A
:104C400080B582B08DF807009DF8070042F29411FC
:104C5000C2F2000188719DF80700002840F08080B2
:104C6000FFE742F29410C2F20000F02101804FF4FD
:104C7000A0714180808845F21051884214D1FFE72D
:104C800042F29411C2F200014FF4305008814FF407
:104C9000285048814FF42C5088814FF4F0700880E0
:104CA0004FF44870488026E042F29410C2F20000AF
:104CB000808841F66311884211D1FFE742F29411D6
:104CC000C2F200012C2008812B2048812A208881F3
:104CD0004FF4F07008804FF4487048800AE042F2C8
:104CE0009411C2F200012C2008812A2048812B2037
:104CF0008881FFE7FFE742F29410C2F2000080884B
:104D000045F2103188420AD0FFE742F29410C2F215
:104D10000000808847F2967188420BD1FFE742F28B
:104D20009411C2F200014FF4A07008804FF4F070AB
:104D30004880FFE742F29410C2F20000808849F6F2
:104D4000060188420BD1FFE742F29411C2F2000142
:104D50004FF4F07008804FF448704880FFE773E02C
:104D600042F29410C2F200004FF4A0710180F021D1
:104D70004180808845F21051884214D1FFE742F209
:104D80009411C2F200014FF4305008814FF42850C2
:104D900048814FF42C5088814FF4487008804FF4BC
:104DA000F070488030E042F29410C2F20000808837
:104DB00041F6631188420AD0FFE742F29410C2F232
:104DC0000000808849F60601884211D1FFE742F2CF
:104DD0009411C2F200012C2008812A2048812B2046
:104DE00088814FF4487008804FF4F07048800AE0E2
:104DF00042F29411C2F200012C2008812A2048813D
:104E00002B208881FFE7FFE742F29410C2F20000F6
:104E1000808845F2103188420AD0FFE742F29410B0
:104E2000C2F20000808847F2967188420BD1FFE7FA
:104E300042F29411C2F200014FF4F07008804FF476
:104E4000A0704880FFE7FFE7002003F0F5F802B00C
:104E500080BD000080B58CB084460E98ADF82EC0A1
:104E6000ADF82C10ADF82A20ADF82830ADF82600AA
:104E7000002008900790BDF82A00BDF82E10401AB7
:104E80000690BDF82800BDF82C10401A0590BDF81A
:104E90002E000190BDF82C0000900698012803DB3D
:104EA000FFE7012003900DE0069818B9FFE7002006
:104EB000039006E04FF0FF300390069840420690C2
:104EC000FFE7FFE70598012803DBFFE701200290D9
:104ED0000DE0059818B9FFE70020029006E04FF0BA
:104EE000FF300290059840420590FFE7FFE70698E3
:104EF0000599884203DDFFE70698049002E00598D3
:104F00000490FFE70020ADF82400FFE7BDF824007F
:104F100004990131884233DCFFE7BDF80400BDF895
:104F20000010BDF8262000F02DF8069908980844D6
:104F300008900599079808440790089804998842B2
:104F400009DDFFE704990898401A08900399019831
:104F500008440190FFE707980499884209DDFFE7BC
:104F600004990798401A0790029900980844009005
:104F7000FFE7FFE7BDF824000130ADF82400C5E7E6
:104F80000CB080BD80B582B0ADF80600ADF804105D
:104F90000092BDF80600BDF8041003F0FBF903F021
:104FA00003FD00988021C6F60041088002B080BD54
:104FB00080B58CB0CF2003F0E7FC00200A9003F00E
:104FC000D3FCC120009003F0CFFC3020019003F00F
:104FD000CBFCED2003F0D8FC642003F0C5FC0320DB
:104FE00003F0C2FC122003F0BFFC812003F0BCFCE4
:104FF000E82003F0C9FC852003F0B6FC10200490E3
:1050000003F0B2FC7A2003F0AFFCCB2003F0BCFC31
:10501000392003F0A9FC2C2003F0A6FC0A9803F029
:10502000A3FC342003F0A0FC022003F09DFCF72039
:1050300003F0AAFC202003F097FCEA2003F0A4FC74
:105040000A9803F091FC0A9803F08EFCC02003F04C
:105050009BFC1B2003F088FC009803F095FC0120CA
:10506000079003F081FCC52003F08EFC019803F04B
:105070007BFC019803F078FCC72003F085FCB72087
:1050800003F072FC362003F07FFC482003F06CFC38
:105090003A2003F079FC552003F066FCB12003F0C0
:1050A00073FC0A9803F060FC1A2003F05DFCB62044
:1050B00003F06AFC0A20039003F056FCA22003F0E0
:1050C00053FCF22003F060FC0A9803F04DFC26200C
:1050D00003F05AFC079803F047FCE02003F054FC6F
:1050E0000F20059003F040FC2A20099003F03CFCBF
:1050F000282003F039FC0820029003F035FC0E2034
:1051000003F032FC029803F02FFC542003F02CFC37
:10511000A92003F029FC432003F026FC039803F0A8
:1051200023FC059803F020FC0A9803F01DFC0A9864
:1051300003F01AFC0A9803F017FC0A9803F014FC19
:10514000E12003F021FC0A9803F00EFC152003F087
:105150000BFC172003F008FC072003F005FC1120CE
:105160000B9003F001FC062003F0FEFB2B200690C1
:1051700003F0FAFB562003F0F7FB3C2003F0F4FBAE
:10518000052003F0F1FB049803F0EEFB059803F013
:10519000EBFB3F20089003F0E7FB089803F0E4FBEB
:1051A000059803F0E1FB069803F0EEFB0A9803F084
:1051B000DBFB0A9803F0D8FB079803F0D5FB0898AF
:1051C00003F0D2FB099803F0DFFB0A9803F0CCFB55
:1051D0000A9803F0C9FB0A9803F0C6FBEF2003F01E
:1051E000C3FB0B9803F0D0FB7820FFF7CBF9292005
:1051F00003F0CAFB0CB080BD80B596B0FF200190D3
:1052000003F0C2FB019803F0AFFB982003F0ACFB66
:1052100006200D9003F0A8FBBC2003F0B5FB012095
:10522000129003F0A1FB0F20109003F09DFB612072
:1052300003F09AFB019803F097FB129803F094FB9C
:10524000129803F091FB0B200A9003F08DFB1020C5
:10525000099003F089FB372003F086FB632003F0FD
:1052600083FB019803F080FB019803F07DFB12980B
:1052700003F07AFB129803F077FB0020159003F0FF
:1052800073FB159803F070FB019803F06DFB52203F
:1052900003F06AFB129803F067FB159803F064FBB8
:1052A0004020069003F060FBBD2003F06DFB1298D8
:1052B00003F05AFB2320029003F056FB4520039095
:1052C00003F052FB6720049003F04EFB129803F0AA
:1052D0004BFB029803F048FB039803F045FB04984E
:1052E00003F042FBBE2003F04FFB159803F03CFB9C
:1052F000129803F039FBAB2003F036FB602003F07B
:1053000033FB2220059003F02FFB059803F02CFBC4
:10531000059803F029FB059803F026FB059803F098
:1053200023FBC72003F030FB3620149003F01CFB56
:10533000ED2003F029FB7F2003F016FB109803F00B
:1053400013FBC02003F020FB109803F00DFB0A981C
:1053500003F00AFB0A200E9003F006FBFC2003F08A
:1053600013FB082003F000FBDF20139003F00CFB7D
:10537000159803F0F9FA159803F0F6FA159803F06A
:10538000F3FA159803F0F0FA159803F0EDFA2020DF
:10539000089003F0E9FAF32003F0F6FA742003F022
:1053A000E3FAB42003F0F0FA159803F0DDFA15984B
:1053B00003F0DAFA159803F0D7FAF72003F0E4FACD
:1053C000822003F0D1FAB12003F0DEFA159803F041
:1053D000CBFA13200B9003F0C7FA0B9803F0C4FA32
:1053E000F22003F0D1FA802003F0BEFA042003F08B
:1053F000BBFA069803F0B8FA282003F0B5FAC120EA
:1054000003F0C2FA172003F0AFFA8820079003F0E8
:10541000ABFA079803F0A8FA089803F0A5FAE02081
:1054200003F0B2FA159803F09FFA0E9803F09CFA75
:10543000122003F099FA099803F096FA0E200F90C3
:1054400003F092FA089803F08FFACC2003F08CFA5C
:10545000072003F089FA0D9803F086FA0A9803F002
:1054600083FA0F9803F080FA109803F07DFA0D206C
:105470000C9003F079FA1520119003F075FA099851
:1054800003F072FA159803F06FFAE12003F07CFA4A
:10549000159803F069FA0A9803F066FA0B9803F07E
:1054A00063FA0C9803F060FA0F9803F05DFA1B2082
:1054B00003F05AFA712003F057FA0D9803F054FAEA
:1054C0000D9803F051FA0E9803F04EFA109803F07D
:1054D0004BFA0F9803F048FA109803F045FA119828
:1054E00003F042FA0C2003F03FFA159803F03CFA5F
:1054F0002A2003F049FA159803F036FA159803F0BC
:1055000033FA129803F030FA139803F02DFA2B2097
:1055100003F03AFA159803F027FA159803F024FAE5
:10552000032003F021FA1F2003F01EFA3A2003F0B3
:105530002BFA552003F018FA149803F025FA159861
:1055400003F012FA112003F01FFA7820FFF71AF87F
:10555000292003F019FA1420FFF714F82C2003F087
:1055600013FA16B080BD000080B5CEB0ED2003F078
:105570000BFA0120219003F0F7F9FE2003F0F4F973
:10558000EE2003F001FADE2003F0EEF921200B906B
:1055900003F0EAF9F12003F0F7F9219803F0E4F9B8
:1055A000DF2003F0F1F91020459003F0DDF9C4206D
:1055B0002D9003F0E9F98F2003F0D6F9C62008906A
:1055C00003F0E2F900204A9003F0CEF9E2201690B1
:1055D00003F0CAF9169803F0C7F9169803F0C4F956
:1055E000BF2003F0D1F9AA20419003F0BDF9B0200B
:1055F00003F0CAF90D20009003F0B6F94A9803F0C1
:10560000B3F9009803F0B0F94A9803F0ADF911200E
:10561000479003F0A9F94A9803F0A6F9192003F07E
:10562000A3F94A9803F0A0F90B9803F09DF94A9862
:1056300003F09AF92D2003F097F94A9803F094F9B2
:105640003D2003F091F94A9803F08EF95D202690F1
:1056500003F08AF94A9803F087F9269803F084F951
:105660004A9803F081F9B12003F08EF9802003F00D
:105670007BF94A9803F078F98B20109003F074F9C5
:105680004A9803F071F99620019003F06DF94A9859
:1056900003F06AF9B22003F077F94A9803F064F94D
:1056A0004A9803F061F90220239003F05DF94A98CB
:1056B00003F05AF90320029003F056F94A9803F0D8
:1056C00053F9B3202B9003F05FF94A9803F04CF99B
:1056D0004A9803F049F94A9803F046F94A9803F0CA
:1056E00043F94A9803F040F94A9803F03DF94A9883
:1056F00003F03AF94A9803F037F94A9803F034F97D
:105700004A9803F031F94A9803F02EF94A9803F0C9
:105710002BF94A9803F028F94A9803F025F94A989A
:1057200003F022F94A9803F01FF94A9803F01CF994
:105730004A9803F019F94A9803F016F94A9803F0C9
:1057400013F94A9803F010F94A9803F00DF94A98B2
:1057500003F00AF94A9803F007F9B42003F014F9AA
:10576000109803F001F94A9803F0FEF8019803F04D
:10577000FBF84A9803F0F8F8A12003F0F5F84A98EE
:1057800003F0F2F8B52003F0FFF8239803F0ECF8EB
:105790004A9803F0E9F8029803F0E6F84A9803F013
:1057A000E3F80420039003F0DFF84A9803F0DCF8F4
:1057B000B62003F0E9F84A9803F0D6F84A9803F0C7
:1057C000D3F8B7201D9003F0DFF84A9803F0CCF827
:1057D0004A9803F0C9F83F2003F0C6F84A9803F04E
:1057E000C3F85E2003F0C0F84A9803F0BDF86420C7
:1057F000489003F0B9F84A9803F0B6F88C2003F00B
:10580000B3F84A9803F0B0F8AC2003F0ADF84A982A
:1058100003F0AAF8DC20309003F0A6F84A9803F0D1
:10582000A3F8702003F0A0F84A9803F09DF89020A8
:1058300003F09AF84A9803F097F8EB2003F094F8F5
:105840004A9803F091F8309803F08EF84A9803F0E4
:105850008BF8B82003F098F84A9803F085F84A9836
:1058600003F082F84A9803F07FF84A9803F07CF836
:105870004A9803F079F84A9803F076F84A9803F0CA
:1058800073F84A9803F070F8BA2003F07DF82420EA
:10589000069003F069F84A9803F066F84A9803F016
:1058A00063F84A9803F060F8C12003F06DF82020F7
:1058B000099003F059F84A9803F056F8542003F081
:1058C00053F84A9803F050F8FF204B9003F04CF83F
:1058D0004A9803F049F8C2201E9003F055F80A20B8
:1058E000189003F041F84A9803F03EF8039803F04B
:1058F0003BF84A9803F038F8C32003F045F83C2001
:10590000249003F031F84A9803F02EF83A2046909C
:1059100003F02AF84A9803F027F8392003F024F816
:105920004A9803F021F8372003F01EF84A9803F054
:105930001BF8249803F018F84A9803F015F836205D
:105940000D9003F011F84A9803F00EF832203390CE
:1059500003F00AF84A9803F007F82F20049003F0A8
:1059600003F84A9803F000F82C204D9002F0FCFF59
:105970004A9802F0F9FF2920499002F0F5FF4A9871
:1059800002F0F2FF2620059002F0EEFF4A9802F0A6
:10599000EBFF069802F0E8FF4A9802F0E5FF069850
:1059A00002F0E2FF4A9802F0DFFF2320379002F076
:1059B000DBFF4A9802F0D8FF249802F0D5FF4A98FE
:1059C00002F0D2FF0D9802F0CFFF4A9802F0CCFF10
:1059D000339802F0C9FF4A9802F0C6FF049802F01B
:1059E000C3FF4A9802F0C0FF4D9802F0BDFF4A98ED
:1059F00002F0BAFF499802F0B7FF4A9802F0B4FFEC
:105A0000059802F0B1FF4A9802F0AEFF069802F046
:105A1000ABFF4A9802F0A8FF069802F0A5FF4A984B
:105A200002F0A2FF379802F09FFF4A9802F09CFF15
:105A30002D9802F0A9FF62201A9002F095FF4A9873
:105A400002F092FF0520179002F08EFF4A9802F0B4
:105A50008BFF8420289002F087FF4A9802F084FF91
:105A6000F020429002F080FF4A9802F07DFF18205B
:105A7000079002F079FF4A9802F076FFA42002F026
:105A800073FF4A9802F070FF079802F06DFF4A9882
:105A900002F06AFF5020439002F066FF4A9802F03D
:105AA00063FF0C2002F060FF4A9802F05DFF1720B0
:105AB0000A9002F059FF4A9802F056FF952002F032
:105AC00053FF4A9802F050FFF320449002F04CFF3D
:105AD0004A9802F049FFE620319002F045FF4A98CB
