:020000040800F2
:10000000404600209D0100084D300008252D0008C5
:1000100049300008550B0008453900080000000071
:10002000000000000000000000000000E9320008AD
:100030006D0C000800000000BD300008C13500084C
:10004000B7010008B7010008B7010008B7010008B0
:10005000B7010008B7010008B7010008B7010008A0
:10006000B7010008B7010008710C0008B7010008CB
:10007000B7010008B7010008B7010008B701000880
:10008000B7010008B7010008B7010008B701000870
:10009000B7010008B7010008B7010008B701000860
:1000A000B7010008B7010008B7010008B701000850
:1000B000B7010008B7010008B7010008B701000840
:1000C000B7010008B7010008B7010008B701000830
:1000D000B7010008B7010008B7010008B701000820
:1000E000B7010008B7010008B7010008B701000810
:1000F000B7010008B7010008B7010008B701000800
:10010000B7010008B7010008B7010008C1300008B6
:10011000B7010008B7010008B7010008B7010008DF
:10012000B7010008B7010008B7010008B7010008CF
:10013000B7010008B7010008B7010008B7010008BF
:10014000B7010008B7010008B7010008B7010008AF
:10015000B7010008B7010008B7010008B70100089F
:10016000B7010008B7010008B7010008B70100088F
:10017000B7010008B7010008B7010008000000003F
:10018000B7010008B7010008DFF80CD000F066FBEB
:1001900000480047358C000840460020064880474C
:1001A00006480047FEE7FEE7FEE7FEE7FEE7FEE75C
:1001B000FEE7FEE7FEE7FEE7853600088901000856
:1001C0002DE9F05F0546002092469B46884606468C
:1001D000814640241BE0284641464746224600F01F
:1001E00057FA53465A46C01A914110D31146184641
:1001F000224600F03EFA2D1A67EB01084F462246D0
:100200000120002100F035FA17EB00094E41201EB5
:10021000A4F10104DFDC484631462A464346BDE8E6
:10022000F09FD2B201E000F8012B491EFBD27047CB
:100230000022F6E710B513460A4604461946FFF7B2
:10024000F0FF204610BD2DE9FE4F804681EA0300F5
:10025000C00F0C46009021F0004123F00045B8EBA0
:100260000200A94105D24046214690461C460B4655
:10027000024623F00040104347D0270DC7F30A0081
:10028000C3F30A510290401A019040286BDAC3F37D
:10029000130040F4801B0098924620B10023D2EB5B
:1002A000030A63EB0B0B01985946C0F1400250461C
:1002B00000F0DFF906460D4650465946019A00F017
:1002C000F7F910EB08006141002487EA115284EA33
:1002D000E7731A4340D0009A62B3019A012A4FEAA9
:1002E000075215DC001B61EB02014FF0004202EAED
:1002F0000752CDE90042001C41F5801132462B46E1
:1003000000F02EFA03B0BDE8F08F40462146F9E731
:10031000001B61EB0201001C41F5801300185B41DA
:100320002018A2F5001747EB030140EAD570B61973
:100330006D4111E06D084FEA360645EAC0754FEA97
:100340000752001B61EB0201001C41F580114908B6
:100350004FEA30000019514132462B4603B0BDE848
:10036000F04F00F0EEB90098012240000023D0EBDE
:10037000020263EBE073009821464FEAE074B8EBA9
:10038000000061EB0401E9E783F000435BE781F0E3
:10039000004158E72DE9FE4F81EA030404F00044D0
:1003A00021F0004100944FF0000B23F0004350EA8D
:1003B00001045ED052EA03045BD0C3F30A54C1F3D4
:1003C0000A552C44A4F2F3340194A0FB0254C1F367
:1003D000130141F48011C3F3130343F4801301FBB1
:1003E000024400FB034E840A970A44EA815447EA18
:1003F0008357A4FB076802958D0A05FB07854FEA22
:10040000932C04FB0C542705029D4FEA065847EA3B
:100410001637B5EB08056EEB070C870E920E47EA10
:10042000811742EA8312A7FB0201B6EB0B0164EBD2
:1004300000042B0D43EA0C335E1844EB1C50DA46E3
:100440005146E7FB0201C5F313044FEA0B3343EABD
:1004500014534FEA0432019C43EA0603A4F10C044E
:100460000294009CCDE900B400F07AF903B0BDE835
:10047000F08F00200146F9E72DE9F04D81EA0304F1
:1004800004F0004B21F0004514464FF0000A23F021
:10049000004150EA050220D054EA01021DD0C5F304
:1004A0000A570246C5F31303C1F31300C1F30A56FA
:1004B00040F4801543F48013A7EB0608101BD646C2
:1004C00008F2FD3873EB050002D308F1010801E0E2
:1004D00092185B41B8F1000F03DA00200146BDE835
:1004E000F08D00204FF48011064684460EE0171B65
:1004F00073EB050705D3121B63EB050306434CEAB8
:10050000010C49084FEA300092185B4150EA01079C
:10051000EDD152EA030012D082EA040083EA050119
:10052000084305D0101BAB4106D20122002306E090
:1005300000224FF0004302E06FF0010253101AEB6B
:1005400006004CEB085110EB0A0041EB0B01BDE833
:10055000F04D00F0F6B80EB5C10F80EAE070084427
:10056000CA07002140F233438DE80E000A460B46CD
:1005700000F0F6F803B000BD70B5C1F30A5201F007
:1005800000450024C1F3130140F2FF3341F4801110
:100590009A4201DA002070BD40F233439A42A2F23F
:1005A000334203DC524200F073F800E090402C43E9
:1005B000F1D0404270BDC1F30A5210B5C1F313012E
:1005C00040F2FF3341F480119A4201DA002010BD5D
:1005D00040F233439A42A2F2334203DC524200F02B
:1005E00057F810BD904010BD00F0004230F00040C0
:1005F0000AD0C10D01F56071C0F3160042EA015145
:10060000C20840071143704700200146704701F0BF
:10061000004330B421F0004150EA010206D00A0D37
:10062000A2F56072C1F31301002A02DC30BC002085
:100630007047440F44EAC104C100E01830BC00EB2D
:10064000C25000F047B830B50B46014600202022CA
:10065000012409E021FA02F59D4205D303FA02F5CF
:10066000491B04FA02F52844151EA2F10102F1DC2F
:1006700030BD202A04DB203A00FA02F10020704746
:100680009140C2F1200320FA03F3194390407047D0
:10069000202A04DB203A21FA02F00021704721FAD7
:1006A00002F3D040C2F1200291400843194670473E
:1006B000202A06DBCB17203A41FA02F043EAE07326
:1006C00006E041FA02F3D040C2F120029140084313
:1006D000194670470029A8BF7047401C490008BF51
:1006E00020F00100704710B4B0FA80FC00FA0CF062
:1006F00050EA010404BF10BC704749B1CCF120049A
:1007000021FA04F411FA0CF118BF01212143084326
:10071000A3EB0C01CB1D4FEA00614FEA102042BF52
:10072000002010BC704700EBC35010440029A4BF48
:1007300010BC7047401C490008BF20F0010010BCED
:10074000704710B5141E73F1000408DA401C41F123
:10075000000192185B411A4301D120F0010010BD45
:100760002DE9F04D92469B4611B1B1FA81F202E0BB
:10077000B0FA80F220329046FFF77BFF04460F4626
:1007800040EA0A0041EA0B0153465A46084313D097
:10079000114653EA010019D0C8F140025046FFF754
:1007A00077FF05460E46504659464246FFF761FF21
:1007B000084305D0012004E020463946BDE8F08D0D
:1007C0000020054346EAE0762C4337430A98630548
:1007D000E40AA0EB08000022FD0A44EA47540A306C
:1007E00002D500200146E9E7010510196941DDE95C
:1007F000084500196941BDE8F04DA2E7C1F30A526E
:10080000C1F3130140F2FF3341F480119A4202DA3E
:1008100000200146704740F233439A42A2F233422D
:1008200002DC5242FFF734BFFFF723BF30B5041E8E
:1008300071F1000404DB4FF00044404264EB01011D
:10084000141E73F1000405DB1C464FF000435242B6
:1008500063EB0403994208BF904230BD064C074D3C
:1008600006E0E06840F0010394E807009847103480
:10087000AC42F6D3FFF78CFC105501083055010847
:1008800080B584B08DF80F000020C4F20200019002
:1008900020210291002200F0F7FE6420009004F075
:1008A00089F89DF80F0000F027F9009804F082F80D
:1008B00001980299012200F0E7FE04B080BD00001B
:1008C00080B582B00A2000F085FF0020C4F202004B
:1008D000019020210122009200F0D6FE009A01989A
:1008E000402100F0D1FE01988021002200F0CCFED2
:1008F00000F002F802B080BD80B58AB00020C4F2DA
:100900000200059040210022049200F0BDFE0598EF
:1009100020210122079200F0B7FE049A0598802159
:10092000069100F0B1FE05980699079A00F0ACFE1A
:100930004FF47A70099000F005FC11200890FFF741
:100940009FFF099800F0FEFB0620FFF799FF09982A
:1009500000F0F8FB0898FFF793FF099800F0F2FB0E
:10096000FFE743F62830C2F2000001780020732927
:1009700003900AD0FFE743F62830C2F20000007867
:10098000533818BF01200390FFE70398C00770B1E8
:10099000FFE72020002100F033F843F62831C2F2AF
:1009A000000108704FF47A7000F0CCFBD9E743F6F1
:1009B0000431C2F20001012008704220A02100F0A1
:1009C0001FF80A2000F0BEFB41200221029100F036
:1009D00017F844200021019100F012F801994520F8
:1009E00000F00EF846202C2100F00AF80299492068
:1009F00000F006F84A20032100F002F80AB080BD9A
:100A000080B582B08DF806008DF805100020C4F284
:100A1000020020210022009200F036FE642003F044
:100A2000C9FF9DF8060000F067F8009800F064F830
:100A30009DF806008006002806D5FFE7002000F09C
:100A40005BF88DF8070012E09DF8050000F054F8FF
:100A5000FFE7642003F0AEFF0020C4F20200202173
:100A6000012200F011FE00208DF80700FFE79DF83D
:100A7000070002B080BD000080B584B00020C4F241
:100A8000020020210022019200F0FEFD0198029058
:100A9000FFE70298092805DCFFE7FFE7029801302D
:100AA0000290F6E700200390FFE7039808280EDC89
:100AB000FFE7FF2000F020F8039A43F6FB21C2F283
:100AC00000018854FFE7039801300390EDE7002010
:100AD0000290FFE70298092805DCFFE7FFE702988C
:100AE00001300290F6E70020C4F20200202101222A
:100AF00000F0CAFD04B080BD80B582B08DF807005B
:100B00009DF807008DF8060000208DF80500694665
:100B10000A20086044F2AC00C2F200000DF10601A8
:100B20000DF10502012301F0ABFD9DF8050002B0B7
:100B300080BD000080B51020FFF7A2FE0020C4F2A7
:100B400002004021012200F09FFD0A2000F04CFE2F
:100B500080BD0000FFE7FEE781B041F20400CEF265
:100B6000000000680090009840F24C01C2F20001C1
:100B70000968884208D2FFE740F25001C2F2000142
:100B8000086801300860FFE7009840F24C01C2F2AB
:100B90000001086001B0704780B584B0039041F255
:100BA0000400CEF2000000680290029803990968E0
:100BB000401A00EE100AB8EE400A40F24000C2F2BD
:100BC000000090ED001AB8EE411A80EE010A8DED9A
:100BD000010A029803990860FFF7BEFF9DED010A24
:100BE00004B080BD81B000904EF6FC51CEF2000101
:100BF000086840F08070086041F20401CEF2000104
:100C00000020086041F20002CEF20002116841F0BB
:100C100001011160009944F24022C0F20F024A43E0
:100C200040F24001C2F200010A600A6844F6D35360
:100C3000C1F26203A2FB0332920940F24403C2F202
:100C400000031A6009684DF68362C4F21B32A1FBEF
:100C50000221890C40F24802C2F20002116040F207
:100C60005001C2F20001086001B0704770470000F7
:100C700080B5102000F010FB43F6FA20C2F200000D
:100C8000007848B9FFE7FFF7F7FE43F6FA21C2F212
:100C9000000101200870FFE780BD000072B6FFE789
:100CA000FEE700000000000080B58EB0ADF8360011
:100CB000BDF9360040F22C01C2F20001B1F900107A
:100CC000884201D1FFE700E1BDF8360040F22C0177
:100CD000C2F200010880FFE743F6DC20C2F2000008
:100CE000079008F0C5F80798BDF9361008F0ECF841
:100CF000079800210B910A91A02109918168089120
:100D0000006808B9FFE7E0E043F6DC21C2F2000129
:100D10008868C96888423FDCFFE7FFE7089843F628
:100D2000DC21C2F20001C968884234DCFFE743F6E7
:100D3000DC20C2F200004068089950F82100FFF75B
:100D40000AFC41EC100B099949F66000C0F600005E
:100D500000EBC10090ED001B9DED0A2B8DED042BE7
:100D600053EC112B51EC100BFFF714FB9DED040B12
:100D700041EC110B51EC110B53EC102BFFF763FA04
:100D800041EC100B8DED0A0B099801380990089879
:100D900001300890C2E781E0FFE7089843F6DC21C4
:100DA000C2F2000109690139884235DCFFE743F6E8
:100DB000DC20C2F200004068089950F82100FFF7DB
:100DC000CAFB41EC100B099949F66000C0F600001F
:100DD00000EBC10090ED001B9DED0A2B8DED022B69
:100DE00053EC112B51EC100BFFF7D4FA9DED020BD5
:100DF00041EC110B51EC110B53EC102BFFF723FAC4
:100E000041EC100B8DED0A0B099801380990FFE7B2
:100E1000089801300890C0E700200890FFE7089884
:100E200043F6DC21C2F20001C968884235DCFFE7E5
:100E300043F6DC20C2F200004068089950F8210017
:100E4000FFF789FB41EC100B099949F66000C0F6E9
:100E5000000000EBC10090ED001B9DED0A2B8DED15
:100E6000002B53EC112B51EC100BFFF793FA9DED77
:100E7000000B41EC110B51EC110B53EC102BFFF755
:100E8000E2F941EC100B8DED0A0B0998013809903D
:100E9000FFE7089801300890C1E7FFE7FFE79DED05
:100EA0000A0B51EC100B9FED0A0B53EC102BFFF7C4
:100EB00071FA41EC100B51EC100BFFF75DFB43F6A0
:100EC000F021C2F200010880FFE70EB080BD00BF34
:100ED000000000000000104080B584B043F6DC2024
:100EE000C2F2000043F65801C2F20001A12207F04D
:100EF000A9FF01200390FFE70398A1280CDCFFE77E
:100F000043F6DC20C2F20000002107F0DDFFFFE71E
:100F1000039801300390EFE74FF4FA6000F012F904
:100F200000200290FFE70298A02823DCFFE7029947
:100F3000019149F66000C0F6000000EBC10090EDA1
:100F4000000B51EC100B9FED0C0B53EC102BFFF72B
:100F500021FA0A46019942EC100B43F68830C2F29E
:100F6000000000EBC10080ED000BFFE702980130AC
:100F70000290D8E704B080BD000000000000F040FF
:100F800080B584B003900291019200930098B0F56F
:100F9000804F1DD1FFE70398019950F821000021EF
:100FA000CCF6F0710840029B1968D3F804E0D3F83E
:100FB00008C0DA6841EA0E1141EA0C219B69194325
:100FC00041EA024108430399019A41F8220006E0F0
:100FD0000399019A6FF0704041F82200FFE700206A
:100FE00004B080BD80B585B0049003910499039846
:100FF000026851F8220020F0010041F82200039815
:101000008068082803D1FFE74020029002E000201A
:101010000290FFE702980399D1F804E0D1F808C0E4
:10102000CB680A6940EA0E0040EA0C0018431043FE
:101030004A691043CA6910430A6A10434A6A104356
:101040008A6A1043CA6A1043096B084301900398E7
:1010500081690198084301900398C16B0198084386
:1010600001904FF67F30C0F208000090009840F4E5
:1010700080600090009840F4E0200090049803996C
:10108000096850F8210000998843019908430499A0
:10109000039A126841F82200002005B080BD0000CC
:1010A00080B583B00290019100920298009900EB04
:1010B0008100406800F04040019A1168D2F804E0D5
:1010C000D2F808C0D36841EA0E1141EA0C2141EA86
:1010D0000341D2F810C00023CFF6F07303EB0C539A
:1010E00019435369FE3341EA03619269114308438E
:1010F0000299009A01EB82014860002003B080BD94
:1011000082B00090009890F83500022807D0FFE7E1
:1011100000998020486501208DF807000EE00099B5
:10112000052081F8350000980168086820F001006A
:101130000860FFE700208DF80700FFE79DF8070033
:1011400002B0704780B584B0039000F0B5FA029009
:10115000039801900198013048B1FFE740F22E005A
:10116000C2F200000178019808440190FFE7FFE710
:1011700000F0A2FA0299401A0199884201D2FFE7D1
:10118000F6E704B080BD000080B58CB000200B9065
:101190000A9009900890079043F6F420C2F20000EC
:1011A000006808B1FFE76EE043F6F421C2F20001E7
:1011B00001200860FFE70020069043F63800C4F2E3
:1011C0000200016841F001010160006800F00100C7
:1011D00006900698FFE74FF4805005900790022094
:1011E00000900890002001900990032002900A903E
:1011F0000C2003900B9041F20040C4F2020007A9BA
:10120000049100F065F8DDF800C0019B029A039894
:1012100004994FF6807ECDF81CE0CDF820C00993EC
:101220000A920B9041F20000C4F2020000F050F864
:10123000DDF800C0019B029A039804994CF2337EBA
:10124000CDF81CE0CDF820C009930A920B9040F62F
:101250000040C4F2020000F03BF8DDF800C0019B42
:10126000029A03980499DDF814E0CDF81CE0CDF85B
:1012700020C009930A920B9041F60000C4F20200CC
:1012800000F026F8FFE70CB080BD000081B0ADF89B
:10129000020001B07047000080B582B0ADF80600D2
:1012A00043F61440C4F201000068BDF8061008427D
:1012B0000CD0FFE7BDF8060043F61441C4F201016B
:1012C0000860BDF80600FFF7E1FFFFE702B080BD50
:1012D0008EB00D900C9100200A90099008900B9010
:1012E000FFE70B980F2800F2CC81FFE70B99012054
:1012F00088400A900C9800680A990840099009985B
:101300000A99884240F0B881FFE70C98406800F0E5
:101310000300012807D0FFE70C98406800F00300A5
:1013200002282FD1FFE70D98806808900B984100A4
:10133000032000FA01F10898884308900C98C068CF
:101340000B99490000FA01F10898084308900898A1
:101350000D9988600D98406808900B99012000FA5B
:1013600001F10898884308900C984068C0F3001079
:101370000B9900FA01F108980843089008980D9914
:101380004860FFE70C98406800F00300032818D07D
:10139000FFE70D98C06808900B984100032000FA01
:1013A00001F10898884308900C9880680B994900CF
:1013B00000FA01F108980843089008980D99C86050
:1013C000FFE70C98406800F00300022826D1FFE7F1
:1013D0000D980B996FF0030202EA51010844006A6C
:1013E00008900B9800F0070081000F2000FA01F12F
:1013F0000898884308900C9800690B9901F0070140
:10140000890000FA01F108980843089008980D999E
:101410000B9B02EA530211440862FFE70D98006833
:1014200008900B984100032000FA01F108988843C6
:1014300008900C98406800F003000B99490000FAEE
:1014400001F108980843089008980D9908600C98D5
:1014500080798007002800F00E81FFE7FFE7002079
:10146000079043F64400C4F20200016841F4804151
:101470000160006800F4804007900798FFE70B9830
:1014800020F0030043F60801C4F20101405808901F
:101490000B9800F0030081000F2000FA01F108987A
:1014A000884308900D980021C4F20201884203D1BC
:1014B000FFE7002006905EE00D9840F20041C4F284
:1014C0000201884203D1FFE70120059050E00D980A
:1014D00040F60001C4F20201884203D1FFE7022076
:1014E000049042E00D9840F60041C4F202018842A7
:1014F00003D1FFE70320039034E00D9841F200018F
:10150000C4F20201884203D1FFE70420029026E0E2
:101510000D9841F20041C4F20201884203D1FFE775
:101520000520019018E00D9841F60001C4F2020177
:10153000884203D1FFE7062000900AE00D9941F6AA
:101540000042C4F202020820914208BF0720009026
:10155000FFE700980190FFE701980290FFE70298EB
:101560000390FFE703980490FFE704980590FFE7D6
:1015700005980690FFE70698C0B20B9901F00301A9
:10158000890000FA01F108980843089008980B991F
:1015900021F0030143F60802C4F20102885043F629
:1015A0000840C4F20100006808900999089888432F
:1015B00008900C988079C006002805D5FFE70999A6
:1015C000089808430890FFE7089843F60841C4F2DA
:1015D0000101086043F60C40C4F201000068089065
:1015E00009990898884308900C988079800600280B
:1015F00005D5FFE70999089808430890FFE7089880
:1016000043F60C41C4F20101086043F60440C4F201
:1016100001000068089009990898884308900C9880
:1016200080798007002805D5FFE7099908980843C5
:101630000890FFE7089843F60441C4F201010860EE
:1016400043F60040C4F20100006808900999089828
:10165000884308900C988079C00728B1FFE7099962
:10166000089808430890FFE7089843F60041C4F241
:1016700001010860FFE7FFE7FFE70B9801300B90DF
:101680002FE60EB07047000082B00190ADF8021056
:101690008DF801209DF8010028B1FFE7BDF8020098
:1016A0000199886105E0BDF8020000040199886194
:1016B000FFE702B07047000044F23820C2F2000099
:1016C0000068704740F22E00C2F20000027844F237
:1016D0003821C2F200010868104408607047000019
:1016E00080B543F60041C4F20201086840F400707E
:1016F0000860086840F480600860086840F4807002
:101700000860032000F094F80F2000F005F800F0C6
:101710003BF8002080BD000080B582B0009040F210
:101720000800C2F20000006840F22E01C2F200017F
:101730000A784FF47A71B1FBF2F1B0FBF1F001F0ED
:10174000B9F920B1FFE701208DF8070018E00098F3
:101750000F280DD8FFE700994FF0FF30002200F06E
:101760004DF8009840F23001C2F20001086003E039
:1017700001208DF8070003E000208DF80700FFE747
:101780009DF8070002B080BD82B0FFE70020019005
:1017900043F64400C4F20200016841F48041016054
:1017A000006800F4804001900198FFE7FFE7002007
:1017B000009043F64000C4F20200016841F08051FD
:1017C0000160006800F0805000900098FFE702B0D0
:1017D0007047000080B582B08DF807009DF90700C2
:1017E00002F0B2F802B080BD80B582B08DF807007B
:1017F0009DF9070002F0C4F802B080BD80B586B044
:101800008DF81700049103920020029002F0D0F8A6
:1018100002909DF91700019002980499039A01F033
:1018200017FC0146019802F0CBF806B080BD00001D
:1018300080B582B00190019802F0E4F802B080BD5A
:1018400080B584B002900191029820B9FFE7012091
:101850008DF80F0021E1019843F60041C4F2020126
:10186000096801F00701884212D9FFE7019943F6A0
:101870000040C4F202000170006800F00700019906
:10188000884204D0FFE701208DF80F0005E1FFE753
:1018900002980078800700282AD5FFE70298007890
:1018A0004007002809D5FFE743F60801C4F202010A
:1018B000086840F4E0500860FFE7029800780007ED
:1018C000002809D5FFE743F60801C4F202010868C1
:1018D00040F460400860FFE743F60801C4F20201EB
:1018E000086820F0F000029A926810430860FFE751
:1018F00002980078C00700286ED0FFE70298406881
:10190000012811D1FFE743F60000C4F2020000688D
:1019100000F400310020B0EB514F04D1FFE701206B
:101920008DF80F00B9E02CE002984068022805D03D
:10193000FFE702984068032811D1FFE743F6000053
:10194000C4F20200006800F000710020B0EB516F9B
:1019500004D1FFE701208DF80F009EE010E043F670
:101960000000C4F20200006800F002010020B0EBA9
:10197000510F04D1FFE701208DF80F008DE0FFE744
:10198000FFE743F60801C4F20201086820F00300F3
:10199000029A526810430860FFF78EFE0090FFE73E
:1019A00043F60800C4F20200006800F00C0002993F
:1019B0004968B0EB810F0ED0FFE7FFF77DFE00997D
:1019C000401A41F28931884204D3FFE703208DF8A1
:1019D0000F0062E0E4E7FFE7019843F60041C4F23C
:1019E0000201096801F00701884212D2FFE701995C
:1019F00043F60040C4F202000170006800F00700E6
:101A00000199884204D0FFE701208DF80F0044E0DF
:101A1000FFE702980078400700280CD5FFE743F65F
:101A20000801C4F20201086820F4E050029AD2686A
:101A300010430860FFE702980078000700280DD5E2
:101A4000FFE743F60801C4F20201086820F4604091
:101A5000029A126940EAC2000860FFE700F04CF801
:101A600043F60801C4F202010968C9B20A0949F63D
:101A70004601C0F60001895CC84040F20801C2F28C
:101A80000001086040F23000C2F200000068FFF779
:101A900043FE00208DF80F00FFE79DF80F0004B013
:101AA00080BD000040F20800C2F2000000687047EC
:101AB00080B5FFF7F7FF43F60801C4F20201096899
:101AC000C1F3822249F65601C0F60001895CC84084
:101AD00080BD000080B5FFF7E5FF43F60801C4F2C2
:101AE0000201096889B24A0B49F65601C0F60001A5
:101AF000895CC84080BD000080B586B0002005909C
:101B000004900390029043F60800C4F202000068BB
:101B100000F00C000146019140B1FFE70198042854
:101B20000AD0FFE7019808280CD04FE042F20040AD
:101B3000C0F2F40002904FE041F20020C0F27A00BF
:101B4000029049E043F60400C4F20200016801F08B
:101B50003F01059100684002002813D5FFE743F6D6
:101B60000400C4F202000068C0F3881041F20021B2
:101B7000C0F27A01A0FB0101059A0023FEF720FBC9
:101B8000049012E043F60400C4F202000068C0F3BF
:101B9000881042F20041C0F2F401A0FB0101059A55
:101BA0000023FEF70DFB0490FFE743F60400C4F2A8
:101BB0000200006800F44031022000EBD1300390B5
:101BC00004980399B0FBF1F0029005E042F2004066
:101BD000C0F2F4000290FFE7029806B080BD00005A
:101BE00080B586B00490049820B9FFE701208DF8F5
:101BF000170050E304980078C007002800F0A58083
:101C0000FFE743F60800C4F20200006800F00C0091
:101C1000042813D0FFE743F60800C4F2020000686E
:101C200000F00C0008281ED1FFE743F60400C4F2C0
:101C3000020000684002002815D5FFE743F60000C7
:101C4000C4F20200006800F400310020B0EB514FF4
:101C500008D0FFE70498406820B9FFE701208DF81D
:101C6000170018E370E0FFE704984068B0F5803F84
:101C700009D1FFE743F60001C4F20201086840F40D
:101C80008030086020E004984068B0F5A02F0DD1A6
:101C9000FFE743F60001C4F20201086840F4802027
:101CA0000860086840F4803008600CE043F60001EA
:101CB000C4F20201086820F480300860086820F44B
:101CC00080200860FFE7FFE7FFE704984068E8B17D
:101CD000FFE7FFF7F1FC0390FFE743F60000C4F2D3
:101CE0000200006800F400310020B0EB514F0CD12D
:101CF000FFE7FFF7E1FC0399401A652804D3FFE7EB
:101D000003208DF81700C6E2E7E71CE0FFF7D4FCDC
:101D10000390FFE743F60000C4F20200006800F4FD
:101D200000310020B0EB514F0CD0FFE7FFF7C4FCAF
:101D30000399401A652804D3FFE703208DF81700A4
:101D4000A9E2E7E7FFE7FFE7FFE7049800788007ED
:101D5000002840F19680FFE743F60800C4F2020035
:101D6000006810F00C0F13D0FFE743F60800C4F230
:101D70000200006800F00C0008282CD1FFE743F6B1
:101D80000400C4F2020000684002002823D4FFE7E8
:101D900043F60000C4F20200006800F002010020D7
:101DA000B0EB510F09D0FFE70498C068012804D0B8
:101DB000FFE701208DF817006DE243F60001C4F241
:101DC0000201086820F0F800049A126940EAC20093
:101DD0000860FFE754E00498C06870B3FFE7002193
:101DE000C4F2472101200860FFF766FC0390FFE77B
:101DF00043F60000C4F20200006800F00201002077
:101E0000B0EB510F0CD1FFE7FFF756FC0399401AD6
:101E1000032804D3FFE703208DF817003BE2E7E730
:101E200043F60001C4F20201086820F0F800049AA9
:101E3000126940EAC200086021E00021C4F2472193
:101E400000200860FFF738FC0390FFE743F600002E
:101E5000C4F20200006800F002010020B0EB510F54
:101E60000CD0FFE7FFF728FC0399401A032804D39E
:101E7000FFE703208DF817000DE2E7E7FFE7FFE734
:101E8000FFE704980078000700284BD5FFE7049887
:101E9000406918B3FFE740F68061C4F24721012092
:101EA0000860FFF709FC0390FFE743F67400C4F2F3
:101EB0000200006800F002010020B0EB510F0CD1CD
:101EC000FFE7FFF7F9FB0399401A032804D3FFE764
:101ED00003208DF81700DEE1E7E722E040F680619D
:101EE000C4F2472100200860FFF7E6FB0390FFE7FC
:101EF00043F67400C4F20200006800F00201002002
:101F0000B0EB510F0CD0FFE7FFF7D6FB0399401A57
:101F1000032804D3FFE703208DF81700BBE1E7E7B0
:101F2000FFE7FFE7049800784007002840F1CE80E3
:101F3000FFE700208DF8070043F64000C4F20200DE
:101F40000068C000002815D4FFE7FFE700200090DC
:101F500043F64000C4F20200016841F08051016084
:101F6000006800F0805000900098FFE701208DF895
:101F70000700FFE747F20000C4F200000068C00558
:101F8000002822D4FFE747F20001C4F200010868EC
:101F900040F480700860FFF78FFB0390FFE747F283
:101FA0000000C4F200000068C00500280CD4FFE760
:101FB000FFF782FB0399401A032804D3FFE70320AD
:101FC0008DF8170067E1EAE7FFE7FFE7049880680C
:101FD000012809D1FFE743F67001C4F20201086845
:101FE00040F0010008601FE00498806805280DD1CA
:101FF000FFE743F67001C4F20201086840F00400F4
:102000000860086840F0010008600CE043F67001C9
:10201000C4F20201086820F001000860086820F09E
:1020200004000860FFE7FFE7FFE704988068F8B165
:10203000FFE7FFF741FB0390FFE743F67000C4F2B0
:102040000200006800F002010020B0EB510F0ED139
:10205000FFE7FFF731FB0399401A41F289318842CB
:1020600004D3FFE703208DF8170014E1E5E71EE035
:10207000FFF722FB0390FFE743F67000C4F2020073
:10208000006800F002010020B0EB510F0ED0FFE716
:10209000FFF712FB0399401A41F28931884204D3B9
:1020A000FFE703208DF81700F5E0E5E7FFE79DF86F
:1020B0000700012809D1FFE743F64001C4F20201FD
:1020C000086820F080500860FFE7FFE70498806907
:1020D000002800F0DC80FFE743F60800C4F20200AD
:1020E000006800F00C00082800F08580FFE70498E5
:1020F000806902285CD1FFE76021C4F247210020FB
:102100000860FFF7D9FA0390FFE743F60000C4F236
:102110000200006800F000710020B0EB516F0CD09D
:10212000FFE7FFF7C9FA0399401A032804D3FFE732
:1021300003208DF81700AEE0E7E70499C869D1F8ED
:1021400020C04B6A8A6A40EA0C0040EA8310D2033E
:102150004FF6FF739A43A2F580321043C96A40EAF2
:10216000016043F60401C4F2020108606021C4F278
:10217000472101200860FFF79FFA0390FFE743F62D
:102180000000C4F20200006800F000710020B0EB13
:10219000516F0CD1FFE7FFF78FFA0399401A03281C
:1021A00004D3FFE703208DF8170074E0E7E721E090
:1021B0006021C4F2472100200860FFF77DFA0390F8
:1021C000FFE743F60000C4F20200006800F000716F
:1021D0000020B0EB516F0CD0FFE7FFF76DFA0399C9
:1021E000401A032804D3FFE703208DF8170052E0BC
:1021F000E7E7FFE74AE004988069012804D1FFE798
:1022000001208DF8170046E043F60400C4F20200F6
:102210000068029004988069012831D0FFE7029895
:1022200000F480000499C969884229D1FFE7029827
:1022300000F03F000499096A884221D1FFE7029823
:1022400047F6C07108400499496AB0EB811F17D165
:10225000FFE7029800F440300499896AC9034FF6F9
:10226000FF729143A1F58031884209D1FFE70298BE
:1022700000F070600499C96AB0EB016F04D0FFE709
:1022800001208DF8170006E0FFE7FFE7FFE70020D9
:102290008DF81700FFE79DF8170006B080BD00001D
:1022A00081B0009001B0704780B588B00790079862
:1022B00000684068069007980068806805909DF85F
:1022C000140000F040010020B0EB911F11D1FFE796
:1022D0000598C00768B1FFE79DF8180000F04001BD
:1022E0000020B0EB911F04D0FFE70798016C8847EE
:1022F000F0E09DF8140000F002010020B0EB510F57
:102300000BD0FFE79DF818100020B0EBD11F04D0D0
:10231000FFE70798416C8847DCE09DF8140000F067
:1023200020010020B0EB511F10D1FFE79DF81400F1
:1023300000F040010020B0EB911F07D1FFE79DF8AE
:102340001500C007002800F0C580FFE79DF81800C1
:1023500000F020010020B0EB511F00F0BB80FFE730
:102360009DF8140000F040010020B0EB911F28D030
:10237000FFE7079890F85100032813D0FFE707996B
:10238000486D40F004004865FFE70020049007987E
:102390000068C068049007980068806804900498FA
:1023A000FFE70DE0FFE70020039007980068C06892
:1023B000039007980068806803900398FFE789E01E
:1023C000FFE79DF8140000F020010020B0EB511F42
:1023D00015D0FFE70799486D40F001004865FFE719
:1023E00000200290079800688068029007980168B2
:1023F000086820F0400008600298FFE7FFE79DF8BA
:102400001500C00778B1FFE70799486D40F0080054
:102410004865FFE7002001900798006880680190F8
:102420000198FFE7FFE70798406D002851D0FFE7CC
:1024300007980168486820F0E0004860079901208B
:1024400081F85100069800F00200022805D0FFE74D
:102450009DF81800C007B8B3FFE7079801684868FF
:1024600020F0030048600798C06CA0B1FFE7079810
:10247000C16C43F2D100C0F6000008650798C06C3B
:10248000FEF73EFE30B1FFE70799486D40F040008F
:102490004865FFE7FFE70798806CA0B1FFE7079862
:1024A000816C43F2D100C0F6000008650798806C8B
:1024B000FEF726FE30B1FFE70799486D40F0400077
:1024C0004865FFE7FFE703E00798FFF7E9FEFFE74E
:1024D000FFE7FFE708B080BD80B584B002900298A6
:1024E00020B9FFE701208DF80F0071E00298406AE3
:1024F00060B9FFE702984068B0F5827F01D1FFE73D
:1025000003E002990020C861FFE705E0029900207E
:10251000086102994861FFE70299002088620298E9
:1025200090F8510040B9FFE70299002081F850006F
:10253000029800F051F8FFE70299022081F851005B
:1025400002980168086820F040000860029A019231
:1025500011685068D2F808C0D36800F482700CF497
:10256000044C604403F400631844136903F002034D
:102570001844536903F001031844936903F400738A
:102580001844D36903F038031844136A03F0800336
:102590001843926A02F4005210430860029A508B6A
:1025A00000F004001168526A02F010021044486002
:1025B00002980168C86920F40060C861029900208F
:1025C0004865029A012182F851108DF80F00FFE74B
:1025D0009DF80F0004B080BD80B58AB0099000203E
:1025E000089007900690059004900998006843F6BB
:1025F0000041C4F2000188423FD1FFE7FFE700201D
:10260000039043F64000C4F20200016841F4004127
:102610000160006800F4004003900398FFE7FFE7C3
:102620000020029043F63000C4F20200016841F03D
:1026300004010160006800F0040002900298FFE7C6
:102640004FF4E05004900220059000200090069086
:10265000032007900620089040F60000C4F2020014
:1026600004A9FEF735FE009A332001901146FFF7CA
:10267000C5F80198FFF7B8F8FFE70AB080BD000081
:1026800080B58CB0DDF838C00A9009910892ADF899
:102690001E3001200390FFF70FF804900A9890F87D
:1026A00051008DF817000A9840680690BDF81E008A
:1026B000ADF81C009DF81700012812D0FFE706981E
:1026C000B0F5827F09D1FFE70A98806828B9FFE753
:1026D0009DF81700042804D0FFE702208DF82F0092
:1026E0009BE1099838B1FFE7089820B1FFE7BDF8F2
:1026F0001E0020B9FFE701208DF82F008DE1FFE7D4
:102700000A9890F85000012804D1FFE702208DF8C4
:102710002F0082E10A99012081F85000FFE7FFE7CE
:102720000A9890F85100042805D0FFE70A9905207F
:1027300081F85100FFE70A990020486508990A9A34
:102740009163BDF81E100A9AD187BDF81E100A9A2F
:10275000918709990A9A1163BDF81E100A9AD186C9
:10276000BDF81E100A9A91860A9908640A9948646D
:102770000A980068006800F04000402807D0FFE792
:102780000A980168086840F040000860FFE70A986E
:10279000C068B0F5006F40F08180FFE70A9840689C
:1027A00028B1FFE7BDF81C0001280ED1FFE70A9809
:1027B0000168006B0088C8600A99086B02300863E2
:1027C0000A99C88E0138C886FFE7FFE70A98C18ECC
:1027D0000120019039B9FFE70A98C08F002818BF7F
:1027E00001200190FFE70198C007002855D0FFE7BE
:1027F0000A98006880688007002818D5FFE70A98C3
:10280000C08EA0B1FFE70398012810D1FFE70A9816
:102810000168006B0088C8600A99086B0230086381
:102820000A99C88E0138C88600200390FFE70A98ED
:1028300000688068C007A8B1FFE70A98C08F88B118
:10284000FFE70A980068C0680A99896B08800A99AE
:10285000886B023088630A99C88F0138C8870120C5
:102860000390FFE7FEF728FF0499401A0E9988426B
:1028700012D3FFE70E98013070B1FFE70A990120EB
:1028800081F85100FFE70A99002081F85000FFE726
:1028900003208DF82F00C0E098E782E00A98406896
:1028A00028B1FFE7BDF81C0001280ED1FFE70A9808
:1028B0000168006B007808730A99086B013008639F
:1028C0000A99C88E0138C886FFE7FFE70A98C18ECB
:1028D0000120009039B9FFE70A98C08F002818BF7F
:1028E00001200090FFE70098C007002858D0FFE7BC
:1028F0000A98006880688007002818D5FFE70A98C2
:10290000C08EA0B1FFE70398012810D1FFE70A9815
:102910000168006B007808730A99086B013008633E
:102920000A99C88E0138C88600200390FFE70A98EC
:1029300000688068C007A8B1FFE70A98C08F88B117
:10294000FFE70A980068C0680A99896B08700A99BD
:10295000886B013088630A99C88F0138C8870120C5
:102960000390FFE7FEF7A8FE0499401A0E998842EB
:1029700004D3FFE70E98013018B9FFE70E9870B93D
:10298000FFE70A99012081F85100FFE70A9900202A
:1029900081F85000FFE703208DF82F003DE095E718
:1029A000FFE70A980E99049A00F0A2FB68B1FFE7CE
:1029B0000A9920204865FFE70A99002081F8500015
:1029C000FFE701208DF82F0027E00A98806870B992
:1029D000FFE7FFE7002002900A980068C0680290B5
:1029E0000A980068806802900298FFE7FFE70A995A
:1029F000012081F85100FFE70A99002081F850007A
:102A0000FFE70A98406D20B1FFE701208DF82F0005
:102A100003E000208DF82F00FFE79DF82F000CB099
:102A200080BD000080B584B00290019100920298B0
:102A300020B9FFE701208DF80F002FE0029890F8F1
:102A4000490040B9FFE70299002081F84800029848
:102A500000F028F8FFE7029951F8080BFEF7C2FAD8
:102A6000029A019910689268FEF71AFB029B00997E
:102A700058689A681B6BFEF783FA029801688268AF
:102A800051F8220040F0010041F822000299012093
:102A900081F8490000208DF80F00FFE79DF80F0036
:102AA00004B080BD80B582B00190FEF76DFB02B02E
:102AB00080BD000080B582B00190019800F056FD05
:102AC00002B080BD80B582B00090009820B9FFE7C9
:102AD00001208DF8070040E00098806908B1FFE709
:102AE00000E0FFE7009890F8410040B9FFE7009947
:102AF000002081F84000009800F034F8FFE70099CA
:102B0000242081F8410000980168C86820F4005032
:102B1000C860009800F00AFE00980168086920F477
:102B20009040086100980168486920F02A004861D7
:102B300000980168C86840F40050C86000990020FF
:102B40004864009A202182F84110009A82F84210CD
:102B5000009948638DF80700FFE79DF8070002B071
:102B600080BD000080B588B00790002006900590D9
:102B70000490039002900798006841F20001C4F2AB
:102B80000101884234D1FFE7FFE70020019043F6BE
:102B90004400C4F20200016841F0100101600068C5
:102BA00000F0100001900198FFE7FFE7002000907F
:102BB00043F63000C4F20200016841F001010160F7
:102BC000006800F0010000900098FFE74FF4C0603B
:102BD000029002200390002004900320059007201B
:102BE00006900020C4F2020002A9FEF771FBFFE785
:102BF00008B080BD80B58AB008900791ADF81A2062
:102C0000059300200290089890F84100202840F099
:102C10008180FFE7079820B1FFE7BDF81A0020B9CF
:102C2000FFE701208DF8270078E00899002048642C
:102C30000899212081F84100FEF73EFD0290BDF881
:102C40001A0008998884BDF81A000899C884089861
:102C50008068B0F5805F09D1FFE70898006928B95E
:102C6000FFE7002004900798039004E00798049081
:102C700000200390FFE7FFE70898C08C78B3FFE7D8
:102C80000898029B05996A4611608021002200F095
:102C9000EBFD40B1FFE70899202081F841000320B7
:102CA0008DF827003AE0049858B9FFE703980088A8
:102CB0006FF35F2008990968486003980230039019
:102CC00008E0049800780899096848600498013081
:102CD0000490FFE70899C88C0138C884CCE70898AD
:102CE000029B05996A4611604021002200F0BCFD5C
:102CF00040B1FFE70899202081F8410003208DF8BA
:102D000027000BE00899202081F8410000208DF871
:102D1000270003E002208DF82700FFE79DF8270039
:102D20000AB080BDFFE7FEE780B581B0ADF80200D4
:102D3000BDF8021043F62030C2F200000180028884
:102D400044F2A011C2F200010B68D21A00EE102A60
:102D5000B8EEC01A40F20C02C2F2000292ED000A74
:102D600044F2A413C2F2000393ED002AB8EEC22A83
:102D700020EE020A30EE010ABDEEC00A43F624320C
:102D8000C2F2000282ED000AD2F800C043F6F82E2B
:102D9000C2F2000EAEF800C012681A600088086027
:102DA00001B080BD80B590B0002100910F910E91CF
:102DB0000D910C910B910A9109910891079106913F
:102DC000059104910391029144F20410C2F20000B3
:102DD00001904FF02042026040F20412CAF2000259
:102DE000426006228260C1600161102343618161FB
:102DF000C161016241624FF480528262C1624FF44C
:102E0000804202634163816341644FF00F0CCDF84F
:102E100024C0CDF828C0FF220B92CDF830C00D930E
:102E200011220E920F914FF0090ECDF808E0CDF867
:102E30000CC04FF0080CCDF810C005910693079216
:102E4000089109A902AAFFF7EDFD18B1FFE7FDF708
:102E500025FFFFE710B080BD80B592B00020119033
:102E600010900F900E900D90FFE700200C9043F60D
:102E70003000C4F20200016841F080010160006886
:102E800000F080000C900C98FFE7FFE700200B900B
:102E900043F63000C4F20200016841F00101016014
:102EA000006800F001000B900B98FFE7FFE700209F
:102EB0000A9043F63000C4F20200016841F00401B8
:102EC0000160006800F004000A900A98FFE7FFE73D
:102ED0000020099043F63000C4F20200016841F07E
:102EE00020010160006800F0200009900998FFE7C8
:102EF000FFE70020089043F63000C4F202000168AA
:102F000041F010010160006800F01000089008987E
:102F1000FFE7FFE70020079043F63000C4F202000D
:102F2000016841F008010160006800F008000790A6
:102F30000798FFE7FFE70020069043F63000C4F251
:102F40000200016841F040010160006800F04000AB
:102F500006900698FFE70020C4F202000190E021ED
:102F6000009100220492FEF78FFB009A01980499C9
:102F70000D92012202920E920F91022110910DA941
:102F80000391FEF7A5F90298039910220D924FF4D0
:102F900004120E920F9040F60000C4F20200FEF7F9
:102FA00097F9049A0A2005901146FEF727FC059828
:102FB000FEF71AFC12B080BD80B582B044F2AC00BE
:102FC000C2F20000019043F60041C4F2000101602A
:102FD0004FF48271416000218160C1600161012272
:102FE00042614FF4007282612022C261016241623B
:102FF00081620A21C162FFF76FFA18B1FFE7FDF79E
:103000004DFEFFE702B080BD80B582B044F254109F
:10301000C2F20000019041F20001C4F2010101601E
:103020004FF4E131416000218160C16001610C22F7
:1030300042618161C161FFF745FD18B1FFE7FDF70E
:103040002DFEFFE702B080BDFFE7FEE7FFE7FEE7EA
:1030500088B0079006910592079800F00700049049
:103060000498C0F10700052803D3FFE7042001906E
:1030700004E00498C0F107000190FFE70198039075
:1030800004980430062803D8FFE70020009003E0EE
:10309000049803380090FFE700980290069803997F
:1030A000012202FA01F101390840029B984005997A
:1030B0009A40013A1140084308B070477047000039
:1030C00080B544F2AC00C2F20000FFF7EDF880BD1D
:1030D00080B582B001900198806B0090009900202B
:1030E000C8870099C8860098FFF7DAF802B080BD5B
:1030F00080B586B00490039102920498039B0299D4
:103100006A4611600221012200F058F848B1FFE739
:103110000499486D40F02000486503208DF81700A1
:1031200048E040F20800C2F2000000684AF6AB2115
:10313000CAF6AA21A0FB011000094DF68361C4F272
:103140001B31A0FB0110800C4FF47A7148430190B1
:1031500004984068B0F5827F15D1FFE70498039B7F
:1031600002996A4611608021002200F027F848B1D8
:10317000FFE70499486D40F02000486503208DF872
:10318000170017E012E0FFE7019808B9FFE70CE02D
:10319000019801380190FFE7049800688068C1B287
:1031A0000020B0EBD11FEFD1FFE7FFE700208DF843
:1031B0001700FFE79DF8170006B080BD80B58AB004
:1031C000DDF830C0089007918DF81B200593059815
:1031D0000190FEF771FA024601980C99891A084489
:1031E0000390FEF769FA0290039840F20801C2F2D8
:1031F00000010968C1F3CB3148430490FFE7089808
:103200000068806807990840401AB0FA80F04009C9
:103210009DF81B1088425ED0FFE70598013000281A
:1032200058D0FFE7FEF748FA0299401A03998842FE
:1032300004D2FFE70398002842D1FFE7089801680D
:10324000486820F0E000486008984068B0F5827F48
:1032500013D1FFE708988068B0F5004F06D0FFE76C
:1032600008988068B0F5806F07D1FFE7089801687B
:10327000086820F040000860FFE70898806AB0F511
:10328000005F0FD1FFE7FFE708980168086820F4A6
:103290000050086008980168086840F40050086011
:1032A000FFE7FFE70899012081F85100FFE708993F
:1032B000002081F85000FFE703208DF827000EE082
:1032C000049818B9FFE700200390FFE7049801383D
:1032D0000490FFE793E700208DF82700FFE79DF8B3
:1032E00027000AB080BD0000704700000000000009
:1032F00080B5A2B021908DED1E0B21985030FDF7C6
:103300004BFC10EE100AFDF76FF941EC100B219801
:1033100080ED000B9DED1E0B219880ED080B219890
:103320000E9090ED020B8DED000B90ED040B8DEDEA
:10333000060B90ED060B90ED081B51EC110B53ECB6
:10334000102B0B930A92FDF797F89DED000B0246A8
:103350000E9803920A46039942EC111B8DED041B53
:1033600090ED0A1B51EC110B53EC102BFDF712F8EA
:103370000A9A0B9B41EC100B51EC100BFDF77CF8FB
:103380009DED041B41EC100B51EC110B53EC102B79
:10339000FCF7FAFF9DED060B02460E9809920A46CD
:1033A000099942EC111B8DED0C1B90ED0C1B51EC9F
:1033B000110B53EC102BFCF7EDFF0A9A0B9B41EC21
:1033C000100B51EC100BFDF757F89DED0C1B41EC69
:1033D000100B51EC110B53EC102BFCF7D5FF0246F0
:1033E0000E980F920A460F9942EC101B80ED0E0BBF
:1033F0002198149090ED000B8DED100B90ED0C0BBF
:103400008DED120B90ED0E0B90ED121B51EC110B8C
:1034100053EC102BFCF717FF9DED100B41EC110B3B
:1034200051EC110B53EC102BFCF7B4FF41EC100BDB
:1034300051EC100B9FED320B53EC102B199318929B
:10344000FDF71AF89DED120B41EC110B53EC112B0B
:1034500051EC100BFCF7F7FE0246149815920A4641
:10346000159942EC101B80ED0C0B21981C9090EDEF
:10347000000B8DED160B90ED0A0B8DED1A0B90EDF8
:103480000C0B90ED101B51EC110B53EC102BFCF7B7
:10349000DAFE9DED160B41EC110B51EC110B53ECC8
:1034A000102BFCF777FF189A199B41EC100B51EC8D
:1034B000100BFCF7E1FF9DED1A0B41EC110B53ECE7
:1034C000112B51EC100BFCF7BEFE02461C981D920E
:1034D0000A461D9942EC101B80ED0A0B219890EDD5
:1034E0000C0B80ED100B219890ED0E0B80ED120B64
:1034F000219890ED0A0B22B080BD00BF00BF00BF35
:10350000000000000000004080B582B001900091F2
:1035100000980068FDF768F841EC100B019880ED09
:10352000020B00984068FDF75FF841EC100B019822
:1035300080ED040B00988068FDF756F841EC100B05
:10354000019880ED060B01990020C86288620199FC
:10355000486308630199C8638863019948640864F3
:103560000199C864886402B080BD000080B582B053
:10357000009000980138B0F1807F03D3FFE701206D
:10358000019019E0009801384EF21401CEF20001CA
:1035900008604FF0FF300F2100F012FA4EF21801D0
:1035A000CEF20001002008604EF21002CEF20002BE
:1035B000072111600190FFE7019802B080BD000073
:1035C00080B5FEF77FF880BD80B594B008A83021A3
:1035D000FCF72EFE002007900690059004900390C3
:1035E000FFE70020029043F64000C4F202000168A9
:1035F00041F080510160006800F080500290029814
:10360000FFE7FFE70020019047F20000C4F200004E
:10361000016841F480410160006800F4804001903D
:103620000198FFE7012008904FF4803009900221B3
:103630000E914FF480000F9004201090A822119258
:103640001291139008A8FEF7CBFA18B1FFE7FDF727
:1036500025FBFFE70F200390022004900020059037
:103660004FF4A05006904FF48050079003A8052116
:10367000FEF7E6F818B1FFE7FDF710FBFFE714B01F
:1036800080BD00004EF68851CEF20001086840F47B
:10369000700008607047000084B00390FFE7FFE708
:1036A0000398006850E8030F20F490700290FFE741
:1036B00002990398026842E803100028F0D1FFE75E
:1036C000FFE7FFE7FFE70398006850E8050F20F0E9
:1036D00001000190FFE701990398026842E8051094
:1036E0000028F0D1FFE7FFE70398006B012814D111
:1036F000FFE7FFE7FFE70398006850E8030F20F0BB
:1037000010000090FFE700990398026842E8031058
:103710000028F0D1FFE7FFE7FFE70399202081F8B9
:10372000420003990020086304B0704780B586B05A
:10373000059005980068006920F44050059A1168CA
:10374000D26810430861059988680B694A69C9699C
:10375000184310430843049005980068C06849F274
:103760000C6188430499084305990968C860059865
:103770000068406920F44070059A1168926910430E
:1037800048610598006841F20001C4F201018842D5
:1037900009D0FFE70598006841F20041C4F2010139
:1037A000884204D1FFE7FEF795F9039003E0FEF7A6
:1037B0007FF90390FFE70598C069B0F5004F29D164
:1037C000FFE703981921A0FB0101059A13680293F2
:1037D00053685A00DB0FFCF7F3FC0299864648F267
:1037E0001F53C5F2EB13AEFB0320420910014FF04B
:1037F000640C02FB1CEC322202EBCC02A2FB033273
:10380000F82303EA521300EB4300C2F342121044C0
:10381000886026E003981921A0FB0101059A13682E
:10382000019353689A009B0FFCF7CAFC01998446E8
:1038300048F21F52C5F2EB12ACFB02304309642080
:1038400003FB10CC322000EB0C10A0FB0202F02096
:1038500000EA521000EB0310C2F3431210448860D8
:10386000FFE706B080BD000080B586B0DDF820C05F
:10387000049003918DF80B200193FFE704980068F2
:10388000006803990840401AB0FA80F040099DF89A
:103890000B1088424DD1FFE708980130002847D02F
:1038A000FFE7FDF709FF0199401A0899884203D8FC
:1038B000FFE7089820B9FFE703208DF817003CE0E8
:1038C00004980068C0684007002830D5FFE70398D7
:1038D00080282CD0FFE70398402828D0FFE70498E1
:1038E0000068006800F008010120B0EBD10F1DD185
:1038F000FFE7FFE700200090049800680068009050
:1039000004980068406800900098FFE70498FFF76B
:10391000C3FE049908204864FFE70499002081F859
:103920004000FFE701208DF8170006E0FFE7FFE702
:10393000A4E700208DF81700FFE79DF8170006B0F8
:1039400080BD0000FFE7FEE781B08DF803009DF920
:103950000300002812D4FFE79DF9031001F01F02B5
:10396000012090404A094EF28011CEF2000141F848
:103970002200BFF34F8FBFF36F8FFFE701B0704797
:1039800081B08DF803009DF9030000280ED4FFE7F5
:103990009DF9031001F01F02012090404A094EF2E8
:1039A0000011CEF2000141F82200FFE701B070479C
:1039B0004EF60C50CEF200000068C0F302207047B3
:1039C00082B08DF8070000919DF9070000280AD405
:1039D000FFE7009800019DF907104EF20042CEF279
:1039E000000288540BE0009800019DF8071001F0D8
:1039F0000F014EF61452CEF200028854FFE702B0D7
:103A00007047000083B00290029800F00700009019
:103A10004EF60C51CEF200010868019001984FF665
:103A2000FF02104001900198009A40EA0220002213
:103A3000C0F2FA52104301900198086003B0704739
:103A400086B00590ADF81210ADF810200393002059
:103A5000ADF80400BDF812104908ADF80A10BDF821
:103A60001220012101EB5201ADF80810ADF806005B
:103A7000FFE7BDF80600BDF80A100239884200F2DF
:103A8000C680FFE7BDF80600BDF80410884271DA71
:103A9000FFE70598BDF8061050F831000090059931
:103AA000BDF8040051F83000BDF8062041F832009E
:103AB00000980599BDF8042041F832000598BDF83A
:103AC000061000EBC100406800900599BDF80400A5
:103AD00001EBC0004068BDF8062001EBC201486060
:103AE00000980599BDF8042001EBC20148600598D3
:103AF000BDF80610BDF80820114450F831000090C0
:103B00000599BDF80400BDF80830184451F830009C
:103B1000BDF806201A4441F8320000980599BDF816
:103B20000420BDF808301A4441F832000598BDF869
:103B30000610BDF80820114400EBC1004068009059
:103B40000599BDF80400BDF80830184401EBC00029
:103B50004068BDF806201A4401EBC2014860009895
:103B60000599BDF80420BDF808301A4401EBC201E4
:103B70004860FFE70598BDF8061000EBC1008068BB
:103B800000900599BDF80400BDF80A20104451F8D2
:103B90003000BDF8062001EBC2018860009805994D
:103BA000BDF80420BDF80A301A4441F832000598E7
:103BB000BDF8061000EBC100C06800900599BDF883
:103BC0000400BDF80A20104401EBC0004068BDF8B5
:103BD000062001EBC201C86000980599BDF80420D9
:103BE000BDF80A301A4401EBC2014860039800880E
:103BF000ADF80400BDF81010039800EB41000390ED
:103C0000FFE7BDF806000230ADF8060031E706B068
:103C10007047000080B582B00190009101988078D3
:103C200001280ED1FFE70098DDF804C0BCF80010B1
:103C3000DCF80420BCF80C309CED040A00F0E2FA39
:103C400007E00098019B19885A689B8900F024F9C5
:103C5000FFE70198C078012808D1FFE70098019B91
:103C60001988DA899B68FFF7EBFEFFE702B080BD99
:103C700084B00390ADF80A108DF809208DF8083053
:103C8000FF208DF8070000208DF80700BDF80A001E
:103C90000399088003994DF21050C0F60000486067
:103CA0009DF80900039988709DF808000399C87071
:103CB0000398008801460091102856D0FFE700982D
:103CC000402841D0FFE70098B0F5807F2BD0FFE778
:103CD0000098B0F5806F15D0FFE70098B0F5805FD1
:103CE00056D1FFE70399012088810399C881039980
:103CF00049F66850C0F60000886003994FF066509E
:103D0000086149E00399042088810399C8810399D7
:103D100049F66850C0F600000630886003994FF0FD
:103D20006A50086138E00399102088810399C8819E
:103D3000039949F66850C0F600001E308860039968
:103D40004FF06E50086127E0039940208881039965
:103D5000C881039949F66850C0F600007E3088603B
:103D600003994FF07250086116E003994FF4807088
:103D700088810399C881039949F66850C0F600000C
:103D800000F5FF70886003994FF07650086103E0FA
:103D9000FF208DF80700FFE79DF9070004B070478A
:103DA00080B58AB006900591049204980390FFE7CD
:103DB0000398C0B3FFE70698011D069100680290C2
:103DC0000698011D0691006801909DED020A9DED87
:103DD000011A21EE011A20EE000A30EE010A0598C0
:103DE000011D05918DED080A07909DED080AB5EEBD
:103DF000400AF1EE10FA0BDBFFE79DED080A05F033
:103E000097F8079880ED000A00208DF8270006E05B
:103E1000079900200860FF208DF82700FFE703982E
:103E200001380390C4E70AB080BD000088B0079055
:103E3000069105920493002000900798011D0791B8
:103E400000680290069801380190FFE70198D0B110
:103E5000FFE70798011D0791006803909DED020A96
:103E60009DED031AB4EE410AF1EE10FA07DAFFE70E
:103E70000398029006980199401A0090FFE7019874
:103E800001380190E2E702980599086000980499CA
:103E9000086008B0704700009BB01A90ADF866103B
:103EA0001892ADF85E30BDF8660008900898099049
:103EB000BDF866000690FFE706980228C0F09F81D3
:103EC000FFE7089809900898800808900020109053
:103ED0000790FFE7109800440F900F98109908443E
:103EE0000E901898109950F8310016901898109963
:103EF00000EBC1004068139018980F9950F83100FA
:103F0000159018980F9900EBC1004068129018980E
:103F10000E9950F83100149018980E9900EBC100DA
:103F2000406811901098BDF85E10084410900798F2
:103F30000D90FFE70D98089908440C900C9808998B
:103F400008440B900B98089908440A901A980D9908
:103F500000EBC10191ED000A0B9900EBC10090ED5F
:103F6000001A30EE010A8DED030A1A980D9900EB44
:103F7000C10191ED000A0B9900EBC10090ED001A10
:103F800030EE410A8DED020A1A980D9900EBC1013D
:103F900091ED010A0B9900EBC10090ED011A30EE92
:103FA000010A8DED010A1A980D9900EBC10191EDFE
:103FB000010A0B9900EBC10090ED011A30EE410AA5
:103FC0008DED000A1A980C9900EBC10191ED000AE1
:103FD0000A9900EBC10090ED001A30EE010A8DED58
:103FE000050A9DED030A9DED051A30EE010A1A98A7
:103FF0000D9900EBC10080ED000A9DED030A9DEDD7
:10400000051A30EE410A8DED030A1A980C9900EB5F
:10401000C10191ED010A0A9900EBC10090ED011A6E
:1040200030EE010A8DED040A9DED010A9DED041AA2
:1040300030EE010A1A980D9900EBC10080ED010ADB
:104040009DED010A9DED041A30EE410A8DED010A45
:104050001A980C9900EBC10191ED010A0A9900EB45
:10406000C10090ED011A30EE410A8DED050A1A9853
:104070000C9900EBC10191ED000A0A9900EBC10017
:1040800090ED001A30EE410A8DED040A9DED030A11
:104090009DED152A9DED011A9DED123A21EE031AB0
:1040A00020EE020A30EE010A1A980C9900EBC100CA
:1040B00080ED000A9DED010A9DED152A9DED031A84
:1040C0009DED123A21EE031A20EE020A30EE410A6B
:1040D0001A980C9900EBC10080ED010A9DED020ACF
:1040E0009DED051A30EE010A8DED030A9DED020AE1
:1040F0009DED051A30EE410A8DED020A9DED000A94
:104100009DED041A30EE410A8DED010A9DED000A85
:104110009DED041A30EE010A8DED000A9DED030AB3
:104120009DED162A9DED011A9DED133A21EE031A1D
:1041300020EE020A30EE010A1A980B9900EBC1003A
:1041400080ED000A9DED010A9DED162A9DED031AF2
:104150009DED133A21EE031A20EE020A30EE410AD9
:104160001A980B9900EBC10080ED010A9DED020A3F
:104170009DED142A9DED001A9DED113A21EE031AD2
:1041800020EE020A30EE010A1A980A9900EBC100EB
:1041900080ED000A9DED000A9DED142A9DED021AA6
:1041A0009DED113A21EE031A20EE020A30EE410A8B
:1041B0001A980A9900EBC10080ED010A09990D983F
:1041C00008440D90FFE70D98BDF866108842FFF493
:1041D000B1AEFFE7079801300790FFE7079808990D
:1041E000013988427FF676AEFFE7BDF85E008000B9
:1041F000ADF85E00FFE70698800806905CE61BB00D
:10420000704700009CB01B90ADF86A101992ADF891
:1042100062308DED170ABDF86A0008900898099081
:10422000BDF86A000690FFE706980528C0F09F8158
:10423000FFE70898099008988008089000201090DF
:104240000790FFE7109800440F900F9810990844CA
:104250000E901998109950F83100169019981099ED
:1042600000EBC1004068139019980F9950F8310085
:10427000159019980F9900EBC10040681290199899
:104280000E9950F83100149019980E9900EBC10066
:10429000406811901098BDF862100844109007987B
:1042A0000D90FFE70D98089908440C900C98089918
:1042B00008440B900B98089908440A901B980D9994
:1042C00000EBC10191ED000A0B9900EBC10090EDEC
:1042D000001A30EE010A8DED030A1B980D9900EBD0
:1042E000C10191ED000A0B9900EBC10090ED001A9D
:1042F00030EE410A8DED020A1B980D9900EBC101C9
:1043000091ED010A0B9900EBC10090ED011A30EE1E
:10431000010A8DED010A1B980D9900EBC10191ED89
:10432000010A0B9900EBC10090ED011A30EE410A31
:104330008DED000A1B980C9900EBC10191ED000A6C
:104340000A9900EBC10090ED001A30EE010A8DEDE4
:10435000050A9DED030A9DED051A30EE010A1B9832
:104360000D9900EBC10080ED000A9DED030A9DED63
:10437000051A30EE410A8DED030A1B980C9900EBEB
:10438000C10191ED010A0A9900EBC10090ED011AFB
:1043900030EE010A8DED040A9DED010A9DED041A2F
:1043A00030EE010A1B980D9900EBC10080ED010A67
:1043B0009DED010A9DED041A30EE410A8DED010AD2
:1043C0001B980C9900EBC10191ED010A0A9900EBD1
:1043D000C10090ED011A30EE410A8DED050A1B98DF
:1043E0000C9900EBC10191ED000A0A9900EBC100A4
:1043F00090ED001A30EE410A8DED040A9DED030A9E
:104400009DED152A9DED011A9DED123A21EE031A3C
:1044100020EE020A30EE410A1B980C9900EBC10015
:1044200080ED000A9DED010A9DED152A9DED031A10
:104430009DED123A21EE031A20EE020A30EE010A37
:104440001B980C9900EBC10080ED010A9DED020A5A
:104450009DED051A30EE410A8DED030A9DED020A2D
:104460009DED051A30EE010A8DED020A9DED000A60
:104470009DED041A30EE010A8DED010A9DED000A52
:104480009DED041A30EE410A8DED000A9DED030A00
:104490009DED162A9DED011A9DED133A21EE031AAA
:1044A00020EE020A30EE410A1B980B9900EBC10086
:1044B00080ED000A9DED010A9DED162A9DED031A7F
:1044C0009DED133A21EE031A20EE020A30EE010AA6
:1044D0001B980B9900EBC10080ED010A9DED020ACB
:1044E0009DED142A9DED001A9DED113A21EE031A5F
:1044F00020EE020A30EE410A1B980A9900EBC10037
:1045000080ED000A9DED000A9DED142A9DED021A32
:104510009DED113A21EE031A20EE020A30EE010A57
:104520001B980A9900EBC10080ED010A09990D98CA
:1045300008440D90FFE70D98BDF86A108842FFF41B
:10454000B1AEFFE7079801300790FFE70798089999
:10455000013988427FF676AEFFE7BDF86200800041
:10456000ADF86200FFE70698800806905CE60898C0
:10457000099008988008089000200D90FFE70D989A
:10458000BDF86A10099A891A884200F22381FFE770
:104590000D98089908440C900C98089908440B90C1
:1045A0000B98089908440A901B980D9900EBC101DB
:1045B00091ED000A0B9900EBC10090ED001A30EE6E
:1045C000010A8DED030A1B980D9900EBC10191EDD5
:1045D000000A0B9900EBC10090ED001A30EE410A81
:1045E0008DED020A1B980D9900EBC10191ED010AB6
:1045F0000B9900EBC10090ED011A30EE010A8DED30
:10460000010A1B980D9900EBC10191ED010A0B996C
:1046100000EBC10090ED011A30EE410A8DED000A69
:104620001B980C9900EBC10191ED000A0A9900EB6F
:10463000C10090ED001A30EE010A8DED050A9DEDE6
:10464000030A9DED051A30EE010A9DED171A20EEC2
:10465000010A1B980D9900EBC10080ED000A9DED49
:10466000030A9DED051A30EE410A8DED030A1B98F1
:104670000C9900EBC10191ED010A0A9900EBC10010
:1046800090ED011A30EE010A8DED040A9DED010A4C
:104690009DED041A30EE010A9DED171A20EE010A75
:1046A0001B980D9900EBC10080ED010A9DED010AF8
:1046B0009DED041A30EE410A8DED010A1B980C990C
:1046C00000EBC10191ED010A0A9900EBC10090EDE8
:1046D000011A30EE410A8DED050A1B980C9900EB8A
:1046E000C10191ED000A0A9900EBC10090ED001A9A
:1046F00030EE410A8DED040A9DED030A9DED171A77
:1047000020EE010A1B980C9900EBC10080ED000A15
:104710009DED010A9DED171A20EE010A1B980C99D8
:1047200000EBC10080ED010A9DED020A9DED051A26
:1047300030EE410A8DED030A9DED020A9DED051A4A
:1047400030EE010A8DED020A9DED000A9DED041A7E
:1047500030EE010A8DED010A9DED000A9DED041A6F
:1047600030EE410A8DED000A9DED030A9DED171A0A
:1047700020EE010A1B980B9900EBC10080ED000AA6
:104780009DED010A9DED171A20EE010A1B980B9969
:1047900000EBC10080ED010A9DED020A9DED171AA4
:1047A00020EE010A1B980A9900EBC10080ED000A77
:1047B0009DED000A9DED171A20EE010A1B980A993B
:1047C00000EBC10080ED010AFFE709990D9808444C
:1047D0000D90D4E61CB0704780B586B00390039866
:1047E00008BBFFE743F61830C2F20000019090EDDD
:1047F000000B9FED2B1B53EC112B51EC100BFBF717
:1048000022FD0246019802920A46029942EC101BD0
:1048100080ED000B43F61030C2F2000090ED000B6B
:104820008DED040B37E043F61830C2F20000009023
:1048300090ED000B9FED1A1B51EC110B53EC102B5C
:10484000FBF71AFE41EC110B40F21000C2F200001F
:1048500090ED000B51EC110B53EC102BFBF79AFD74
:1048600041EC100B51EC100B9FED0F0B53EC102B88
:10487000FBF790FD009A41EC100B43F61030C2F2AA
:10488000000080ED000B00215160116090ED000BE5
:104890008DED040BFFE79DED040B06B080BD00BF5E
:1048A000000000000000F03F0000000000004E404B
:1048B00082B000208DF80700FFE79DF8070001286F
:1048C0003EDCFFE79DF8072002EB420043F6FB23A6
:1048D000C2F200031844C07840F23801C2F200016D
:1048E000009141F822009DF8072051F822000002B3
:1048F00041F822009DF8072002EB4200184490F88E
:1049000004C051F8220040EA0C0041F822009DF852
:10491000072051F82200000241F822009DF80720EC
:1049200002EB42001844437951F82200184341F841
:104930002200FFE79DF8070001308DF80700BCE773
:1049400040F23801C2F200010868001208604868AD
:104950000012486008880860888848600A6840F249
:104960005400C2F20000028049684180B0F90000A2
:1049700000EE100AB8EEC00A9FED071A20EE010AF9
:104980009FED061A80EE010A43F62C30C2F20000B9
:1049900080ED000A02B0704748E11A4000FEFF4671
:1049A00080B582B0ADF80600BDF80600FCF7CAFB82
:1049B00002B080BD82B0019000200090FFE7009817
:1049C0000199884206D2FFE700BFFFE70098013057
:1049D0000090F4E702B0704710B594B01390ADF8B2
:1049E0004A10BDF84A0000EE100AB8EEC00A9FED6A
:1049F000A81A80EE010A44F2C410C2F2000080ED51
:104A0000000A44F2B611C2F200014FF66A70088043
:104A100044F2C011C2F200019620088000200F90DD
:104A200000F056FA0F98ADF84200FFE7BDF84200DB
:104A3000BDF84A100139884280F2AB80FFE7BDF82B
:104A4000420000EE100AB8EEC00A44F2C410C2F2EE
:104A5000000090ED001A80EE010ABDEEC00A10EED3
:104A6000100AADF84400BDF844000A30ADF8480023
:104A70001398BDF8421030F911004FF49671484375
:104A800048F2B511C1F64E3150FB01F1480900EB77
:104A9000D170C0F1A000ADF8460040F22400C2F28F
:104AA00000000078E0B1FFE7BDF846100A200E9044
:104AB0004FF6FF7200F0DAFB0E9844F29C11C2F23E
:104AC00000010880BDF8460044F29E11C2F20001C8
:104AD000088040F22401C2F20001002008701FE0AB
:104AE00044F29C10C2F200000C90008844F29E1127
:104AF000C2F200010D910988BDF84820BDF846308A
:104B0000EE464FF6FF7CCEF800C000F017FB0C9A83
:104B10000D99BDF848001080BDF846000880FFE7F9
:104B20001398BDF8421030F9110044F2B611C2F2E8
:104B30000001B1F9001088420BDDFFE71398BDF8C2
:104B4000421030F8110044F2B611C2F200010880A0
:104B5000FFE71398BDF8421030F9110044F2C0117C
:104B6000C2F20001B1F9001088420BDAFFE7139896
:104B7000BDF8421030F8110044F2C011C2F2000139
:104B80000880FFE7FFE7BDF842000130ADF84200C2
:104B90004CE744F2B610C2F20000B0F9000044F253
:104BA000C011C2F20001B1F90010401A00EE100A63
:104BB000B8EEC00A9FED371A80EE010A9FED361A53
:104BC00020EE010A44F23C20C2F20000039080ED86
:104BD000000A90ED000AB0EE001A80EE010A43F6DA
:104BE0000830C2F20000079080ED000A68464FF6D8
:104BF000FF7484604DF20951C0F60001416010233A
:104C0000089303600A2005901E210491F022069269
:104C100003F026FF039A0499089892ED000ABCEE6F
:104C2000C00A10EE102A6B465C60186030200990B4
:104C300003230B9303F088FE0598069A089B6946A8
:104C40008C604DF2035CC0F6000CC1F804C00B6030
:104C500032210A9103F004FF079ADDF820C0099879
:104C60000A990B9B92ED000ABCEEC00A10EE102AC6
:104C7000EE46CEF80440CEF800C003F065FE40F2E8
:104C80002401C2F200010120087014B010BD00BF61
:104C90000000E64300000047000016450000000049
:104CA00080B586B000200590FFE70598B0F5806FCD
:104CB0001DDAFFE7059940F25800C2F2000030F813
:104CC000110000EE100AB8EE400A40F65800C2F299
:104CD000000000EBC10181ED000A059900EBC10164
:104CE00000204860FFE7059801300590DDE744F2B9
:104CF000C810C2F2000040F65801C2F20001039150
:104D0000FEF788FF039842F65801C2F200014FF403
:104D10008062FFF745F800200490FFE70498B0F5A3
:104D2000806F57DAFFE70499019142F65800C2F20A
:104D30000000029050F82100FBF756FC41EC100BEC
:104D400051EC100B9FED240B53EC102BFBF722FBC7
:104D500041EC100B51EC100BFBF759FC019A01468A
:104D6000029840F82210049900EB810090ED000AAF
:104D7000B7EE001AB4EE410AF1EE10FA09DAFFE7D5
:104D8000049A42F65801C2F20001002041F82200C4
:104D9000FFE7049942F65800C2F2000000EB8100E0
:104DA00090ED000A9FED0E1AB4EE410AF1EE10FAF2
:104DB0000BDDFFE7049A42F65801C2F20001002021
:104DC000C4F2FA3041F82200FFE7FFE7049801300F
:104DD0000490A3E706B080BD0AD7A3703D0AD73F71
:104DE0000000FA4380B582B00190009144F2541063
:104DF000C2F2000001A901224FF0FF33FDF7FAFED5
:104E0000019802B080BD000082B0009044F2A4007E
:104E1000C2F200000068A8B9FFE744F2A401C2F2A0
:104E2000000101200860009844F2A801C2F20001CC
:104E30000860009844F2A001C2F20001086000205E
:104E4000019042E0009844F2A001C2F2000109681A
:104E5000884207DCFFE7009844F2A001C2F200019B
:104E600008602FE044F2A800C2F20000006844F29B
:104E7000A001C2F200010968401A40F22801C2F202
:104E80000001096888420FDBFFE7009844F2A8019F
:104E9000C2F200010860009844F2A001C2F20001D1
:104EA00008600120019010E0009844F2A801C2F2CD
:104EB00000010860009844F2A001C2F200010860FD
:104EC000FFE7FFE700200190FFE7019802B070477D
:104ED00080B584B0ADF80E0000210091029144F23B
:104EE000A810C2F200000288019242880198504343
:104EF0000190084603F076FB03F07EFE00980290D6
:104F0000FFE70298019988420BD2FFE7BDF80E0037
:104F10008021C6F600410880FFE702980130029028
:104F2000EFE704B080BD000080B582B08DF80700C7
:104F30009DF8070044F2A811C2F2000188719DF8A3
:104F40000700002840F08080FFE744F2A810C2F27A
:104F50000000F02101804FF4A0714180808845F26B
:104F60001051884214D1FFE744F2A811C2F20001A7
:104F70004FF4305008814FF4285048814FF42C50A2
:104F800088814FF4F07008804FF44870488026E024
:104F900044F2A810C2F20000808841F663118842F2
:104FA00011D1FFE744F2A811C2F200012C200881C0
:104FB0002B2048812A2088814FF4F07008804FF41C
:104FC000487048800AE044F2A811C2F200012C2087
:104FD00008812A2048812B208881FFE7FFE744F2DF
:104FE000A810C2F20000808845F2103188420AD031
:104FF000FFE744F2A810C2F20000808847F29671E1
:1050000088420BD1FFE744F2A811C2F200014FF42D
:10501000A07008804FF4F0704880FFE744F2A810B9
:10502000C2F20000808849F6060188420BD1FFE7F2
:1050300044F2A811C2F200014FF4F07008804FF45E
:1050400048704880FFE773E044F2A810C2F2000005
:105050004FF4A0710180F0214180808845F2105109
:10506000884214D1FFE744F2A811C2F200014FF4C4
:10507000305008814FF4285048814FF42C508881DB
:105080004FF4487008804FF4F070488030E044F2EC
:10509000A810C2F20000808841F6631188420AD04D
:1050A000FFE744F2A810C2F20000808849F606012A
:1050B000884211D1FFE744F2A811C2F200012C206E
:1050C00008812A2048812B2088814FF4487008806D
:1050D0004FF4F07048800AE044F2A811C2F20001D7
:1050E0002C2008812A2048812B208881FFE7FFE7B8
:1050F00044F2A810C2F20000808845F210318842C4
:105100000AD0FFE744F2A810C2F20000808847F2FC
:10511000967188420BD1FFE744F2A811C2F2000158
:105120004FF4F07008804FF4A0704880FFE7FFE76D
:10513000002003F0A9F802B080BD000080B58CB05B
:1051400084460E98ADF82EC0ADF82C10ADF82A208C
:10515000ADF82830ADF82600002008900790BDF883
:105160002A00BDF82E10401A0690BDF82800BDF8A0
:105170002C10401A0590BDF82E000190BDF82C00AF
:1051800000900698012803DBFFE7012003900DE063
:10519000069818B9FFE70020039006E04FF0FF30B3
:1051A0000390069840420690FFE7FFE70598012824
:1051B00003DBFFE7012002900DE0059818B9FFE737
:1051C0000020029006E04FF0FF3002900598404228
:1051D0000590FFE7FFE706980599884203DDFFE7A2
:1051E0000698049002E005980490FFE70020ADF8CF
:1051F0002400FFE7BDF8240004990131884233DC24
:10520000FFE7BDF80400BDF80010BDF8262000F04F
:105210002DF80699089808440890059907980844BD
:10522000079008980499884209DDFFE704990898D7
:10523000401A08900399019808440190FFE70798E5
:105240000499884209DDFFE704990798401A0790FE
:105250000299009808440090FFE7FFE7BDF824009A
:105260000130ADF82400C5E70CB080BD80B582B038
:10527000ADF80600ADF804100092BDF80600BDF8C8
:10528000041003F0AFF903F0B7FC00988021C6F6D4
:105290000041088002B080BD80B58CB0CF2003F003
:1052A0009BFC00200A9003F087FCC120009003F0D3
:1052B00083FC3020019003F07FFCED2003F08CFC98
:1052C000642003F079FC032003F076FC122003F045
:1052D00073FC812003F070FCE82003F07DFC852046
:1052E00003F06AFC1020049003F066FC7A2003F0BF
:1052F00063FCCB2003F070FC392003F05DFC2C2014
:1053000003F05AFC0A9803F057FC342003F054FCD5
:10531000022003F051FCF72003F05EFC202003F094
:105320004BFCEA2003F058FC0A9803F045FC0A986D
:1053300003F042FCC02003F04FFC1B2003F03CFCB8
:10534000009803F049FC0120079003F035FCC520CC
:1053500003F042FC019803F02FFC019803F02CFCB1
:10536000C72003F039FCB72003F026FC362003F0F9
:1053700033FC482003F020FC3A2003F02DFC55209C
:1053800003F01AFCB12003F027FC0A9803F014FC88
:105390001A2003F011FCB62003F01EFC0A20039033
:1053A00003F00AFCA22003F007FCF22003F014FC37
:1053B0000A9803F001FC262003F00EFC079803F086
:1053C000FBFBE02003F008FC0F20059003F0F4FB4A
:1053D0002A20099003F0F0FB282003F0EDFB0820C1
:1053E000029003F0E9FB0E2003F0E6FB029803F0C5
:1053F000E3FB542003F0E0FBA92003F0DDFB432096
:1054000003F0DAFB039803F0D7FB059803F0D4FB15
:105410000A9803F0D1FB0A9803F0CEFB0A9803F038
:10542000CBFB0A9803F0C8FBE12003F0D5FB0A98F8
:1054300003F0C2FB152003F0BFFB172003F0BCFBF9
:10544000072003F0B9FB11200B9003F0B5FB0620F9
:1054500003F0B2FB2B20069003F0AEFB562003F0C6
:10546000ABFB3C2003F0A8FB052003F0A5FB049850
:1054700003F0A2FB059803F09FFB3F20089003F088
:105480009BFB089803F098FB059803F095FB0698A2
:1054900003F0A2FB0A9803F08FFB0A9803F08CFB41
:1054A000079803F089FB089803F086FB099803F03E
:1054B00093FB0A9803F080FB0A9803F07DFB0A989F
:1054C00003F07AFBEF2003F077FB0B9803F084FBEB
:1054D0007820FFF765FA292003F07EFB0CB080BD31
:1054E00080B596B0FF20019003F076FB019803F0A1
:1054F00063FB982003F060FB06200D9003F05CFB3B
:10550000BC2003F069FB0120129003F055FB0F2033
:10551000109003F051FB612003F04EFB019803F063
:105520004BFB129803F048FB129803F045FB0B204D
:105530000A9003F041FB1020099003F03DFB372057
:1055400003F03AFB632003F037FB019803F034FBD0
:10555000019803F031FB129803F02EFB129803F030
:105560002BFB0020159003F027FB159803F024FB7C
:10557000019803F021FB522003F01EFB129803F068
:105580001BFB159803F018FB4020069003F014FB5A
:10559000BD2003F021FB129803F00EFB23200290A4
:1055A00003F00AFB4520039003F006FB67200490FC
:1055B00003F002FB129803F0FFFA029803F0FCFAE2
:1055C000039803F0F9FA049803F0F6FABE2003F00A
:1055D00003FB159803F0F0FA129803F0EDFAAB20F4
:1055E00003F0EAFA602003F0E7FA2220059003F0C6
:1055F000E3FA059803F0E0FA059803F0DDFA059860
:1056000003F0DAFA059803F0D7FAC72003F0E4FABA
:105610003620149003F0D0FAED2003F0DDFA7F205D
:1056200003F0CAFA109803F0C7FAC02003F0D4FAC6
:10563000109803F0C1FA0A9803F0BEFA0A200E90FF
:1056400003F0BAFAFC2003F0C7FA082003F0B4FA1A
:10565000DF20139003F0C0FA159803F0ADFA159807
:1056600003F0AAFA159803F0A7FA159803F0A4FA24
:10567000159803F0A1FA2020089003F09DFAF3207A
:1056800003F0AAFA742003F097FAB42003F0A4FA06
:10569000159803F091FA159803F08EFA159803F017
:1056A0008BFAF72003F098FA822003F085FAB120F4
:1056B00003F092FA159803F07FFA13200B9003F091
:1056C0007BFA0B9803F078FAF22003F085FA802039
:1056D00003F072FA042003F06FFA069803F06CFAF4
:1056E000282003F069FAC12003F076FA172003F0AE
:1056F00063FA8820079003F05FFA079803F05CFADA
:10570000089803F059FAE02003F066FA159803F0C0
:1057100053FA0E9803F050FA122003F04DFA09984C
:1057200003F04AFA0E200F9003F046FA089803F0AF
:1057300043FACC2003F040FA072003F03DFA0D981D
:1057400003F03AFA0A9803F037FA0F9803F034FAA4
:10575000109803F031FA0D200C9003F02DFA15206B
:10576000119003F029FA099803F026FA159803F02E
:1057700023FAE12003F030FA159803F01DFA0A9895
:1057800003F01AFA0B9803F017FA0C9803F014FAC6
:105790000F9803F011FA1B2003F00EFA712003F0AA
:1057A0000BFA0D9803F008FA0D9803F005FA0E981D
:1057B00003F002FA109803F0FFF90F9803F0FCF9D8
:1057C000109803F0F9F9119803F0F6F90C2003F0A2
:1057D000F3F9159803F0F0F92A2003F0FDF9159874
:1057E00003F0EAF9159803F0E7F9129803F0E4F9E9
:1057F000139803F0E1F92B2003F0EEF9159803F06C
:10580000DBF9159803F0D8F9032003F0D5F91F2030
:1058100003F0D2F93A2003F0DFF9552003F0CCF978
:10582000149803F0D9F9159803F0C6F9112003F084
:10583000D3F97820FFF7B4F8292003F0CDF914202C
:10584000FFF7AEF82C2003F0C7F916B080BD0000BA
:1058500080B5CEB0ED2003F0BFF90120219003F018
:10586000ABF9FE2003F0A8F9EE2003F0B5F9DE2035
:1058700003F0A2F921200B9003F09EF9F12003F030
:10588000ABF9219803F098F9DF2003F0A5F9102077
:10589000459003F091F9C4202D9003F09DF98F20DD
:1058A00003F08AF9C620089003F096F900204A9088
:1058B00003F082F9E220169003F07EF9169803F0C7
:1058C0007BF9169803F078F9BF2003F085F9AA2038
:1058D000419003F071F9B02003F07EF90D200090A3
:1058E00003F06AF94A9803F067F9009803F064F945
:1058F0004A9803F061F91120479003F05DF94A9846
:1059000003F05AF9192003F057F94A9803F054F9B3
:105910000B9803F051F94A9803F04EF92D2003F04B
:105920004BF94A9803F048F93D2003F045F94A98AD
:1059300003F042F95D20269003F03EF94A9803F007
:105940003BF9269803F038F94A9803F035F9B1206D
:1059500003F042F9802003F02FF94A9803F02CF964
:105960008B20109003F028F94A9803F025F996202F
:10597000019003F021F94A9803F01EF9B22003F0D8
:105980002BF94A9803F018F94A9803F015F9022008
:10599000239003F011F94A9803F00EF903200290C6
:1059A00003F00AF94A9803F007F9B3202B9003F0AB
:1059B00013F94A9803F000F94A9803F0FDF84A9861
:1059C00003F0FAF84A9803F0F7F84A9803F0F4F86D
:1059D0004A9803F0F1F84A9803F0EEF84A9803F079
:1059E000EBF84A9803F0E8F84A9803F0E5F84A988B
:1059F00003F0E2F84A9803F0DFF84A9803F0DCF885
:105A00004A9803F0D9F84A9803F0D6F84A9803F078
:105A1000D3F84A9803F0D0F84A9803F0CDF84A98A2
:105A200003F0CAF84A9803F0C7F84A9803F0C4F89C
:105A30004A9803F0C1F84A9803F0BEF84A9803F078
:105A4000BBF8B42003F0C8F8109803F0B5F84A98F2
:105A500003F0B2F8019803F0AFF84A9803F0ACF8FD
:105A6000A12003F0A9F84A9803F0A6F8B52003F0A6
:105A7000B3F8239803F0A0F84A9803F09DF8029831
:105A800003F09AF84A9803F097F80420039003F083
:105A900093F84A9803F090F8B62003F09DF84A98DE
:105AA00003F08AF84A9803F087F8B7201D9003F0B6
:105AB00093F84A9803F080F84A9803F07DF83F2065
:105AC00003F07AF84A9803F077F85E2003F074F850
:105AD0004A9803F071F86420489003F06DF84A98F2
