:020000040800F2
:10000000E81500209D010008A52F00087D2C0008A0
:10001000A12F0008B10A00083938000800000000CC
:100020000000000000000000000000004132000855
:10003000C90B00080000000015300008B5340008A6
:10004000B7010008B7010008B7010008B7010008B0
:10005000B7010008B7010008B7010008B7010008A0
:10006000B7010008B7010008CD0B0008B701000870
:10007000B7010008B7010008B7010008B701000880
:10008000B7010008B7010008B7010008B701000870
:10009000B7010008B7010008B7010008B701000860
:1000A000B7010008B7010008B7010008B701000850
:1000B000B7010008B7010008B7010008B701000840
:1000C000B7010008B7010008B7010008B701000830
:1000D000B7010008B7010008B7010008B701000820
:1000E000B7010008B7010008B7010008B701000810
:1000F000B7010008B7010008B7010008B701000800
:10010000B7010008B7010008B7010008193000085E
:10011000B7010008B7010008B7010008B7010008DF
:10012000B7010008B7010008B7010008B7010008CF
:10013000B7010008B7010008B7010008B7010008BF
:10014000B7010008B7010008B7010008B7010008AF
:10015000B7010008B7010008B7010008B70100089F
:10016000B7010008B7010008B7010008B70100088F
:10017000B7010008B7010008B7010008000000003F
:10018000B7010008B7010008DFF80CD000F014FB3D
:1001900000480047B5790008E81500200648804768
:1001A00006480047FEE7FEE7FEE7FEE7FEE7FEE75C
:1001B000FEE7FEE7FEE7FEE7793500088901000863
:1001C0002DE9F05F0546002092469B46884606468C
:1001D000814640241BE0284641464746224600F01F
:1001E0003BFA53465A46C01A914110D3114618465D
:1001F000224600F022FA2D1A67EB01084F462246EC
:100200000120002100F019FA17EB00094E41201ED1
:10021000A4F10104DFDC484631462A464346BDE8E6
:10022000F09FD2B201E000F8012B491EFBD27047CB
:100230000022F6E710B513460A4604461946FFF7B2
:10024000F0FF204610BD2DE9FE4F804681EA0300F5
:10025000C00F0C46009021F0004123F00045B8EBA0
:100260000200A94105D24046214690461C460B4655
:10027000024623F00040104347D0270DC7F30A0081
:10028000C3F30A510290401A019040286BDAC3F37D
:10029000130040F4801B0098924620B10023D2EB5B
:1002A000030A63EB0B0B01985946C0F1400250461C
:1002B00000F0C3F906460D4650465946019A00F033
:1002C000DBF910EB08006141002487EA115284EA4F
:1002D000E7731A4340D0009A62B3019A012A4FEAA9
:1002E000075215DC001B61EB02014FF0004202EAED
:1002F0000752CDE90042001C41F5801132462B46E1
:1003000000F0DBF903B0BDE8F08F40462146F9E785
:10031000001B61EB0201001C41F5801300185B41DA
:100320002018A2F5001747EB030140EAD570B61973
:100330006D4111E06D084FEA360645EAC0754FEA97
:100340000752001B61EB0201001C41F580114908B6
:100350004FEA30000019514132462B4603B0BDE848
:10036000F04F00F09BB90098012240000023D0EB31
:10037000020263EBE073009821464FEAE074B8EBA9
:10038000000061EB0401E9E783F000435BE781F0E3
:10039000004158E72DE9FE4F81EA030404F00044D0
:1003A00021F0004100944FF0000B23F0004350EA8D
:1003B00001045ED052EA03045BD0C3F30A54C1F3D4
:1003C0000A552C44A4F2F3340194A0FB0254C1F367
:1003D000130141F48011C3F3130343F4801301FBB1
:1003E000024400FB034E840A970A44EA815447EA18
:1003F0008357A4FB076802958D0A05FB07854FEA22
:10040000932C04FB0C542705029D4FEA065847EA3B
:100410001637B5EB08056EEB070C870E920E47EA10
:10042000811742EA8312A7FB0201B6EB0B0164EBD2
:1004300000042B0D43EA0C335E1844EB1C50DA46E3
:100440005146E7FB0201C5F313044FEA0B3343EABD
:1004500014534FEA0432019C43EA0603A4F10C044E
:100460000294009CCDE900B400F027F903B0BDE888
:10047000F08F00200146F9E72DE9F04D81EA0304F1
:1004800004F0004B21F0004514464FF0000A23F021
:10049000004150EA050220D054EA01021DD0C5F304
:1004A0000A570246C5F31303C1F31300C1F30A56FA
:1004B00040F4801543F48013A7EB0608101BD646C2
:1004C00008F2FD3873EB050002D308F1010801E0E2
:1004D00092185B41B8F1000F03DA00200146BDE835
:1004E000F08D00204FF48011064684460EE0171B65
:1004F00073EB050705D3121B63EB050306434CEAB8
:10050000010C49084FEA300092185B4150EA01079C
:10051000EDD152EA030012D082EA040083EA050119
:10052000084305D0101BAB4106D20122002306E090
:1005300000224FF0004302E06FF0010253101AEB6B
:1005400006004CEB085110EB0A0041EB0B01BDE833
:10055000F04D00F0A3B80EB5C10F80EAE07008447A
:10056000CA07002140F233438DE80E000A460B46CD
:1005700000F0A3F803B000BD70B5C1F30A5201F05A
:1005800000450024C1F3130140F2FF3341F4801110
:100590009A4201DA002070BD40F233439A42A2F23F
:1005A000334203DC524200F057F800E090402C4305
:1005B000F1D0404270BDC1F30A5210B5C1F313012E
:1005C00040F2FF3341F480119A4201DA002010BD5D
:1005D00040F233439A42A2F2334203DC524200F02B
:1005E0003BF810BD904010BD00F0004230F00040DC
:1005F0000AD0C10D01F56071C0F3160042EA015145
:10060000C20840071143704700200146704730B5CB
:100610000B46014600202022012409E021FA02F5C0
:100620009D4205D303FA02F5491B04FA02F528445A
:10063000151EA2F10102F1DC30BD202A04DB203AB4
:1006400000FA02F1002070479140C2F1200320FA25
:1006500003F3194390407047202A04DB203A21FA23
:1006600002F00021704721FA02F3D040C2F12002CB
:100670009140084319467047202A06DBCB17203AE1
:1006800041FA02F043EAE07306E041FA02F3D04097
:10069000C2F12002914008431946704710B5141E5C
:1006A00073F1000408DA401C41F1000192185B412B
:1006B0001A4301D120F0010010BD2DE9F04D924602
:1006C0009B4611B1B1FA81F202E0B0FA80F2203219
:1006D0009046FFF7B2FF04460F4640EA0A0041EA9F
:1006E0000B0153465A46084313D0114653EA010002
:1006F00019D0C8F140025046FFF7AEFF05460E463E
:10070000504659464246FFF798FF084305D001205E
:1007100004E020463946BDE8F08D0020054346EA56
:10072000E0762C4337430A986305E40AA0EB0800FF
:100730000022FD0A44EA47540A3002D5002001464F
:10074000E9E7010510196941DDE90845001969412A
:10075000BDE8F04DA2E7C1F30A52C1F3130140F224
:10076000FF3341F480119A4202DA002001467047BB
:1007700040F233439A42A2F2334202DC5242FFF784
:100780006BBFFFF75ABF000030B5041E71F10004C3
:1007900004DB4FF00044404264EB0101141E73F18E
:1007A000000405DB1C464FF00043524263EB040398
:1007B000994208BF904230BD064C074D06E0E06804
:1007C00040F0010394E8070098471034AC42F6D398
:1007D000FFF7DEFC1CBA00083CBA000880B584B004
:1007E0008DF80F000020C4F2020001902021029138
:1007F000002200F0F5FE6420009003F01DF99DF842
:100800000F0000F027F9009803F016F901980299FB
:10081000012200F0E5FE04B080BD000080B582B08A
:100820000A2000F083FF0020C4F202000190202182
:100830000122009200F0D4FE009A0198402100F0BD
:10084000CFFE01988021002200F0CAFE00F002F8DD
:1008500002B080BD80B588B00020C4F202000390D1
:1008600040210022029200F0BBFE039820210122C9
:10087000059200F0B5FE029A03988021049100F0E1
:10088000AFFE03980499059A00F0AAFE4FF47A701F
:10089000079000F003FC11200690FFF79FFF0798D8
:1008A00000F0FCFB0620FFF799FF079800F0F6FB2D
:1008B0000698FFF793FF079800F0F0FBFFE740F67C
:1008C000F820C2F2000001780020732901900AD0BC
:1008D000FFE740F6F820C2F200000078533818BF56
:1008E00001200190FFE70198C00770B1FFE72020C9
:1008F000002100F033F840F6F821C2F20001087040
:100900004FF47A7000F0CAFBD9E740F6F021C2F24A
:100910000001012008704220A32100F01FF80A20E6
:1009200000F0BCFB41200221009100F017F84420A8
:10093000002100F013F84520052100F00FF84620B3
:100940002C2100F00BF80099492000F007F84A200C
:10095000032100F003F808B080BD000080B582B02C
:100960008DF806008DF805100020C4F20200202149
:100970000022009200F034FE642003F05DF89DF840
:10098000060000F067F8009800F064F89DF8060093
:100990008006002806D5FFE7002000F05BF88DF800
:1009A000070012E09DF8050000F054F8FFE764200E
:1009B00003F042F80020C4F202002021012200F0DE
:1009C0000FFE00208DF80700FFE79DF8070002B03A
:1009D00080BD000080B584B00020C4F20200202158
:1009E0000022019200F0FCFD01980290FFE70298BE
:1009F000092805DCFFE7FFE7029801300290F6E7DF
:100A000000200390FFE7039808280EDCFFE7FF2093
:100A100000F020F8039A40F6E721C2F20001885462
:100A2000FFE7039801300390EDE700200290FFE715
:100A30000298092805DCFFE7FFE7029801300290E1
:100A4000F6E70020C4F202002021012200F0C8FDD8
:100A500004B080BD80B582B08DF807009DF8070016
:100A60008DF8060000208DF8050069460A20086010
:100A700041F27C00C2F200000DF106010DF1050209
:100A8000012301F0A9FD9DF8050002B080BD000022
:100A900080B51020FFF7A2FE0020C4F20200402122
:100AA000012200F09DFD0A2000F04AFE80BD0000FA
:100AB000FFE7FEE781B041F20400CEF200000068DB
:100AC0000090009840F23401C2F2000109688842A7
:100AD00008D2FFE740F23801C2F200010868013095
:100AE0000860FFE7009840F23401C2F2000108609C
:100AF00001B0704780B584B0039041F20400CEF29B
:100B0000000000680290029803990968401A00EEFC
:100B1000100AB8EE400A40F22800C2F2000090ED40
:100B2000001AB8EE411A80EE010A8DED010A029812
:100B300003990860FFF7BEFF9DED010A04B080BD78
:100B400081B000904EF6FC51CEF20001086840F0F2
:100B50008070086041F20401CEF2000100200860BC
:100B600041F20002CEF20002116841F00101116071
:100B7000009944F24022C0F20F024A4340F2280199
:100B8000C2F200010A600A6844F6D353C1F262035C
:100B9000A2FB0332920940F22C03C2F200031A6056
:100BA00009684DF68362C4F21B32A1FB0221890C55
:100BB00040F23002C2F20002116040F23801C2F28B
:100BC0000001086001B070477047000080B5102038
:100BD00000F00EFB40F6E620C2F20000007848B9B3
:100BE000FFE7FFF7F7FE40F6E621C2F20001012021
:100BF0000870FFE780BD000072B6FFE7FEE7000067
:100C000080B58EB0ADF83600BDF9360040F2140163
:100C1000C2F20001B1F90010884201D1FFE700E102
:100C2000BDF8360040F21401C2F200010880FFE76F
:100C300040F6C820C2F20000079006F0C5FF0798F2
:100C4000BDF9361006F0ECFF079800210B910A91D0
:100C5000A021099181680891006808B9FFE7E0E0E8
:100C600040F6C821C2F200018868C96888423FDCAA
:100C7000FFE7FFE7089840F6C821C2F20001C96803
:100C8000884234DCFFE740F6C820C2F2000040682A
:100C9000089950F82100FFF75EFC41EC100B099910
:100CA00048F27850C0F6000000EBC10090ED001B48
:100CB0009DED0A2B8DED042B53EC112B51EC100BF9
:100CC000FFF768FB9DED040B41EC110B51EC110B90
:100CD00053EC102BFFF7B7FA41EC100B8DED0A0B1C
:100CE000099801380990089801300890C2E781E01E
:100CF000FFE7089840F6C821C2F2000109690139EE
:100D0000884235DCFFE740F6C820C2F200004068A8
:100D1000089950F82100FFF71EFC41EC100B0999CF
:100D200048F27850C0F6000000EBC10090ED001BC7
:100D30009DED0A2B8DED022B53EC112B51EC100B7A
:100D4000FFF728FB9DED020B41EC110B51EC110B51
:100D500053EC102BFFF777FA41EC100B8DED0A0BDB
:100D6000099801380990FFE7089801300890C0E71A
:100D700000200890FFE7089840F6C821C2F2000161
:100D8000C968884235DCFFE740F6C820C2F200009F
:100D90004068089950F82100FFF7DDFB41EC100B8B
:100DA000099948F27850C0F6000000EBC10090EDC0
:100DB000001B9DED0A2B8DED002B53EC112B51ECFC
:100DC000100BFFF7E7FA9DED000B41EC110B51EC16
:100DD000110B53EC102BFFF736FA41EC100B8DED95
:100DE0000A0B099801380990FFE70898013008902C
:100DF000C1E7FFE7FFE79DED0A0B51EC100B9FEDFC
:100E00000A0B53EC102BFFF7C5FA41EC100B51EC19
:100E1000100BFFF7B1FB40F6DC21C2F200010880A5
:100E2000FFE70EB080BD00BF0000000000001040D2
:100E300080B584B040F6C820C2F2000040F64401FC
:100E4000C2F20001A12206F0A9FE01200390FFE7F3
:100E50000398A1280CDCFFE740F6C820C2F200008E
:100E6000002106F0DDFEFFE7039801300390EFE775
:100E70004FF4FA6000F012F900200290FFE70298A8
:100E8000A02823DCFFE70299019148F27850C0F6D0
:100E9000000000EBC10090ED000B51EC100B9FED3A
:100EA0000C0B53EC102BFFF775FA0A46019942EC34
:100EB000100B40F65830C2F2000000EBC10080ED8C
:100EC000000BFFE7029801300290D8E704B080BD24
:100ED000000000000000F04080B584B00390029153
:100EE000019200930098B0F5804F1DD1FFE7039861
:100EF000019950F821000021CCF6F0710840029BC6
:100F00001968D3F804E0D3F808C0DA6841EA0E1192
:100F100041EA0C219B69194341EA024108430399C4
:100F2000019A41F8220006E00399019A6FF070409F
:100F300041F82200FFE7002004B080BD80B585B0F5
:100F40000490039104990398026851F8220020F05C
:100F5000010041F8220003988068082803D1FFE7C8
:100F60004020029002E000200290FFE702980399DF
:100F7000D1F804E0D1F808C0CB680A6940EA0E0055
:100F800040EA0C00184310434A691043CA691043F1
:100F90000A6A10434A6A10438A6A1043CA6A1043B5
:100FA000096B0843019003988169019808430190F7
:100FB0000398C16B0198084301904FF67F30C0F24F
:100FC00008000090009840F480600090009840F481
:100FD000E020009004980399096850F821000099D6
:100FE0008843019908430499039A126841F8220042
:100FF000002005B080BD000080B583B00290019153
:1010000000920298009900EB8100406800F0404097
:10101000019A1168D2F804E0D2F808C0D36841EA16
:101020000E1141EA0C2141EA0341D2F810C000231D
:10103000CFF6F07303EB0C5319435369FE3341EAC7
:1010400003619269114308430299009A01EB8201FE
:101050004860002003B080BD82B00090009890F8F6
:101060003500022807D0FFE700998020486501205D
:101070008DF807000EE00099052081F835000098F2
:101080000168086820F001000860FFE700208DF883
:101090000700FFE79DF8070002B0704780B584B0F5
:1010A000039000F0B5FA0290039801900198013086
:1010B00048B1FFE740F21600C2F200000178019843
:1010C00008440190FFE7FFE700F0A2FA0299401AF6
:1010D0000199884201D2FFE7F6E704B080BD000025
:1010E00080B58CB000200B900A9009900890079072
:1010F00040F6E020C2F20000006808B1FFE76EE0B1
:1011000040F6E021C2F2000101200860FFE7002064
:10111000069043F63800C4F20200016841F0010174
:101120000160006800F0010006900698FFE74FF4A8
:1011300080500590079002200090089000200190B8
:101140000990032002900A900C2003900B9041F22A
:101150000040C4F2020007A9049100F065F8DDF830
:1011600000C0019B029A039804994FF6807ECDF847
:101170001CE0CDF820C009930A920B9041F20000C8
:10118000C4F2020000F050F8DDF800C0019B029AA2
:10119000039804994CF2337ECDF81CE0CDF820C0C2
:1011A00009930A920B9040F60040C4F2020000F04E
:1011B0003BF8DDF800C0019B029A03980499DDF822
:1011C00014E0CDF81CE0CDF820C009930A920B90F2
:1011D00041F60000C4F2020000F026F8FFE70CB070
:1011E00080BD000081B0ADF8020001B07047000082
:1011F00080B582B0ADF8060043F61440C4F2010099
:101200000068BDF8061008420CD0FFE7BDF80600E4
:1012100043F61441C4F201010860BDF80600FFF76F
:10122000E1FFFFE702B080BD8EB00D900C91002071
:101230000A90099008900B90FFE70B980F2800F296
:10124000CC81FFE70B99012088400A900C98006838
:101250000A990840099009980A99884240F0B88193
:10126000FFE70C98406800F00300012807D0FFE773
:101270000C98406800F0030002282FD1FFE70D987A
:10128000806808900B984100032000FA01F108984B
:10129000884308900C98C0680B99490000FA01F146
:1012A00008980843089008980D9988600D98406840
:1012B00008900B99012000FA01F1089888430890E2
:1012C0000C984068C0F300100B9900FA01F10898DF
:1012D0000843089008980D994860FFE70C9840680B
:1012E00000F00300032818D0FFE70D98C0680890AD
:1012F0000B984100032000FA01F1089888430890F8
:101300000C9880680B99490000FA01F1089808438D
:10131000089008980D99C860FFE70C98406800F0A5
:101320000300022826D1FFE70D980B996FF0030206
:1013300002EA51010844006A08900B9800F0070087
:1013400081000F2000FA01F10898884308900C985A
:1013500000690B9901F00701890000FA01F1089872
:101360000843089008980D990B9B02EA5302114418
:101370000862FFE70D98006808900B984100032071
:1013800000FA01F10898884308900C98406800F032
:1013900003000B99490000FA01F1089808430890EE
:1013A00008980D9908600C9880798007002800F053
:1013B0000E81FFE7FFE70020079043F64400C4F2E8
:1013C0000200016841F480410160006800F480403F
:1013D00007900798FFE70B9820F0030043F60801F9
:1013E000C4F20101405808900B9800F003008100FE
:1013F0000F2000FA01F10898884308900D98002109
:10140000C4F20201884203D1FFE7002006905EE0AB
:101410000D9840F20041C4F20201884203D1FFE777
:101420000120059050E00D9840F60001C4F2020141
:10143000884203D1FFE70220049042E00D9840F675
:101440000041C4F20201884203D1FFE70320039068
:1014500034E00D9841F20001C4F20201884203D148
:10146000FFE70420029026E00D9841F20041C4F20B
:101470000201884203D1FFE70520019018E00D9892
:1014800041F60001C4F20201884203D1FFE70620C1
:1014900000900AE00D9941F60042C4F202020820D1
:1014A000914208BF07200090FFE700980190FFE7F6
:1014B00001980290FFE702980390FFE703980490D9
:1014C000FFE704980590FFE705980690FFE7069868
:1014D000C0B20B9901F00301890000FA01F10898EC
:1014E0000843089008980B9921F0030143F608027D
:1014F000C4F20102885043F60840C4F201000068BB
:10150000089009990898884308900C988079C0063B
:10151000002805D5FFE70999089808430890FFE7D8
:10152000089843F60841C4F20101086043F60C40F4
:10153000C4F201000068089009990898884308904F
:101540000C9880798006002805D5FFE7099908984E
:1015500008430890FFE7089843F60C41C4F20101E4
:10156000086043F60440C4F201000068089009993D
:101570000898884308900C9880798007002805D542
:10158000FFE70999089808430890FFE7089843F691
:101590000441C4F20101086043F60040C4F20100B6
:1015A0000068089009990898884308900C988079F9
:1015B000C00728B1FFE70999089808430890FFE79A
:1015C000089843F60041C4F201010860FFE7FFE715
:1015D000FFE70B9801300B902FE60EB0704700002C
:1015E00082B00190ADF802108DF801209DF8010045
:1015F00028B1FFE7BDF802000199886105E0BDF858
:101600000200000401998861FFE702B07047000002
:1016100041F2E010C2F200000068704740F216008C
:10162000C2F20000027841F2E011C2F20001086843
:10163000104408607047000080B543F60041C4F2D2
:101640000201086840F400700860086840F4806097
:101650000860086840F480700860032000F094F887
:101660000F2000F005F800F03BF8002080BD0000DE
:1016700080B582B0009040F20400C2F20000006821
:1016800040F21601C2F200010A784FF47A71B1FB00
:10169000F2F1B0FBF1F001F0B9F920B1FFE7012060
:1016A0008DF8070018E000980F280DD8FFE7009983
:1016B0004FF0FF30002200F04DF8009840F2180182
:1016C000C2F20001086003E001208DF8070003E08A
:1016D00000208DF80700FFE79DF8070002B080BDED
:1016E00082B0FFE70020019043F64400C4F20200FC
:1016F000016841F480410160006800F4804001907D
:101700000198FFE7FFE70020009043F64000C4F295
:101710000200016841F080510160006800F08050D3
:1017200000900098FFE702B07047000080B582B0DB
:101730008DF807009DF9070002F080F802B080BD27
:1017400080B582B08DF807009DF9070002F092F88D
:1017500002B080BD80B586B08DF817000491039269
:101760000020029002F09EF802909DF9170001906F
:1017700002980499039A01F017FC0146019802F0BF
:1017800099F806B080BD000080B582B00190019844
:1017900002F0B2F802B080BD80B584B00290019131
:1017A000029820B9FFE701208DF80F0021E1019890
:1017B00043F60041C4F20201096801F007018842C2
:1017C00012D9FFE7019943F60040C4F2020001700C
:1017D000006800F007000199884204D0FFE701206B
:1017E0008DF80F0005E1FFE70298007880070028D8
:1017F0002AD5FFE7029800784007002809D5FFE7BF
:1018000043F60801C4F20201086840F4E0500860A1
:10181000FFE7029800780007002809D5FFE743F6A4
:101820000801C4F20201086840F460400860FFE764
:1018300043F60801C4F20201086820F0F000029AA1
:10184000926810430860FFE702980078C0070028FC
:101850006ED0FFE702984068012811D1FFE743F6F8
:101860000000C4F20200006800F400310020B0EB78
:10187000514F04D1FFE701208DF80F00B9E02CE0B3
:1018800002984068022805D0FFE7029840680328C4
:1018900011D1FFE743F60000C4F20200006800F037
:1018A00000710020B0EB516F04D1FFE701208DF8EB
:1018B0000F009EE010E043F60000C4F20200006852
:1018C00000F002010020B0EB510F04D1FFE701202E
:1018D0008DF80F008DE0FFE7FFE743F60801C4F243
:1018E0000201086820F00300029A52681043086061
:1018F000FFF78EFE0090FFE743F60800C4F20200F7
:10190000006800F00C0002994968B0EB810F0ED01E
:10191000FFE7FFF77DFE0099401A41F289318842C6
:1019200004D3FFE703208DF80F0062E0E4E7FFE750
:10193000019843F60041C4F20201096801F0070171
:10194000884212D2FFE7019943F60040C4F2020038
:101950000170006800F007000199884204D0FFE799
:1019600001208DF80F0044E0FFE70298007840075F
:1019700000280CD5FFE743F60801C4F2020108680D
:1019800020F4E050029AD26810430860FFE7029802
:101990000078000700280DD5FFE743F60801C4F2E0
:1019A0000201086820F46040029A126940EAC2000D
:1019B0000860FFE700F04CF843F60801C4F20201AA
:1019C0000968C9B20A0948F25A51C0F60001895C97
:1019D000C84040F20401C2F20001086040F2180061
:1019E000C2F200000068FFF743FE00208DF80F00F0
:1019F000FFE79DF80F0004B080BD000040F2040036
:101A0000C2F200000068704780B5FFF7F7FF43F6A9
:101A10000801C4F202010968C1F3822248F26A5146
:101A2000C0F60001895CC84080BD000080B5FFF7AA
:101A3000E5FF43F60801C4F20201096889B24A0BC6
:101A400048F26A51C0F60001895CC84080BD0000C0
:101A500080B586B00020059004900390029043F674
:101A60000800C4F20200006800F00C000146019179
:101A700040B1FFE7019804280AD0FFE70198082841
:101A80000CD04FE042F20040C0F2F40002904FE070
:101A900041F20020C0F27A00029049E043F60400CF
:101AA000C4F20200016801F03F01059100684002A4
:101AB000002813D5FFE743F60400C4F202000068D3
:101AC000C0F3881041F20021C0F27A01A0FB0101AD
:101AD000059A0023FEF774FB049012E043F604001D
:101AE000C4F202000068C0F3881042F20041C0F264
:101AF000F401A0FB0101059A0023FEF761FB0490AD
:101B0000FFE743F60400C4F20200006800F440312D
:101B1000022000EBD130039004980399B0FBF1F060
:101B2000029005E042F20040C0F2F4000290FFE7AC
:101B3000029806B080BD000080B586B0049004987D
:101B400020B9FFE701208DF8170050E304980078D2
:101B5000C007002800F0A580FFE743F60800C4F2A4
:101B60000200006800F00C00042813D0FFE743F6E1
:101B70000800C4F20200006800F00C0008281ED122
:101B8000FFE743F60400C4F20200006840020028A8
:101B900015D5FFE743F60000C4F20200006800F428
:101BA00000310020B0EB514F08D0FFE704984068A7
:101BB00020B9FFE701208DF8170018E370E0FFE778
:101BC00004984068B0F5803F09D1FFE743F6000173
:101BD000C4F20201086840F48030086020E00498F4
:101BE0004068B0F5A02F0DD1FFE743F60001C4F225
:101BF0000201086840F480200860086840F48030E2
:101C000008600CE043F60001C4F20201086820F409
:101C100080300860086820F480200860FFE7FFE754
:101C2000FFE704984068E8B1FFE7FFF7F1FC039095
:101C3000FFE743F60000C4F20200006800F4003140
:101C40000020B0EB514F0CD1FFE7FFF7E1FC039907
:101C5000401A652804D3FFE703208DF81700C6E279
:101C6000E7E71CE0FFF7D4FC0390FFE743F6000032
:101C7000C4F20200006800F400310020B0EB514FC4
:101C80000CD0FFE7FFF7C4FC0399401A652804D382
:101C9000FFE703208DF81700A9E2E7E7FFE7FFE77A
:101CA000FFE7049800788007002840F19680FFE75E
:101CB00043F60800C4F20200006810F00C0F13D0C5
:101CC000FFE743F60800C4F20200006800F00C00D1
:101CD00008282CD1FFE743F60400C4F20200006894
:101CE0004002002823D4FFE743F60000C4F20200BC
:101CF000006800F002010020B0EB510F09D0FFE7AF
:101D00000498C068012804D0FFE701208DF817006F
:101D10006DE243F60001C4F20201086820F0F80009
:101D2000049A126940EAC2000860FFE754E0049890
:101D3000C06870B3FFE70021C4F2472101200860AA
:101D4000FFF766FC0390FFE743F60000C4F20200D1
:101D5000006800F002010020B0EB510F0CD1FFE74A
:101D6000FFF756FC0399401A032804D3FFE703202A
:101D70008DF817003BE2E7E743F60001C4F20201E9
:101D8000086820F0F800049A126940EAC20008606E
:101D900021E00021C4F2472100200860FFF738FC51
:101DA0000390FFE743F60000C4F20200006800F071
:101DB00002010020B0EB510F0CD0FFE7FFF728FC29
:101DC0000399401A032804D3FFE703208DF8170076
:101DD0000DE2E7E7FFE7FFE7FFE704980078000779
:101DE00000284BD5FFE70498406918B3FFE740F699
:101DF0008061C4F2472101200860FFF709FC0390CD
:101E0000FFE743F67400C4F20200006800F002012C
:101E10000020B0EB510F0CD1FFE7FFF7F9FB03995E
:101E2000401A032804D3FFE703208DF81700DEE1F2
:101E3000E7E722E040F68061C4F247210020086015
:101E4000FFF7E6FB0390FFE743F67400C4F20200DD
:101E5000006800F002010020B0EB510F0CD0FFE74A
:101E6000FFF7D6FB0399401A032804D3FFE70320AA
:101E70008DF81700BBE1E7E7FFE7FFE7049800787C
:101E80004007002840F1CE80FFE700208DF80700D2
:101E900043F64000C4F202000068C000002815D4D8
:101EA000FFE7FFE70020009043F64000C4F2020085
:101EB000016841F080510160006800F0805000909E
:101EC0000098FFE701208DF80700FFE747F20000C8
:101ED000C4F200000068C005002822D4FFE747F2E2
:101EE0000001C4F20001086840F480700860FFF748
:101EF0008FFB0390FFE747F20000C4F20000006888
:101F0000C00500280CD4FFE7FFF782FB0399401AB5
:101F1000032804D3FFE703208DF8170067E1EAE701
:101F2000FFE7FFE704988068012809D1FFE743F63F
:101F30007001C4F20201086840F0010008601FE06F
:101F40000498806805280DD1FFE743F67001C4F2BC
:101F50000201086840F004000860086840F00100D1
:101F600008600CE043F67001C4F20201086820F03A
:101F700001000860086820F004000860FFE7FFE740
:101F8000FFE704988068F8B1FFE7FFF741FB039093
:101F9000FFE743F67000C4F20200006800F002019F
:101FA0000020B0EB510F0ED1FFE7FFF731FB039993
:101FB000401A41F28931884204D3FFE703208DF8AB
:101FC000170014E1E5E71EE0FFF722FB0390FFE7AF
:101FD00043F67000C4F20200006800F00201002025
:101FE000B0EB510F0ED0FFE7FFF712FB0399401A39
:101FF00041F28931884204D3FFE703208DF81700AE
:10200000F5E0E5E7FFE79DF80700012809D1FFE7C4
:1020100043F64001C4F20201086820F080500860D5
:10202000FFE7FFE704988069002800F0DC80FFE705
:1020300043F60800C4F20200006800F00C00082813
:1020400000F08580FFE70498806902285CD1FFE7F3
:102050006021C4F2472100200860FFF7D9FA0390FD
:10206000FFE743F60000C4F20200006800F00071D0
:102070000020B0EB516F0CD0FFE7FFF7C9FA0399CE
:10208000401A032804D3FFE703208DF81700AEE0C1
:10209000E7E70499C869D1F820C04B6A8A6A40EA28
:1020A0000C0040EA8310D2034FF6FF739A43A2F567
:1020B00080321043C96A40EA016043F60401C4F269
:1020C000020108606021C4F2472101200860FFF787
:1020D0009FFA0390FFE743F60000C4F20200006895
:1020E00000F000710020B0EB516F0CD1FFE7FFF75B
:1020F0008FFA0399401A032804D3FFE703208DF8D1
:10210000170074E0E7E721E06021C4F247210020D6
:102110000860FFF77DFA0390FFE743F60000C4F282
:102120000200006800F000710020B0EB516F0CD08D
:10213000FFE7FFF76DFA0399401A032804D3FFE77E
:1021400003208DF8170052E0E7E7FFE74AE0049824
:102150008069012804D1FFE701208DF8170046E0CF
:1021600043F60400C4F202000068029004988069FB
:10217000012831D0FFE7029800F480000499C96972
:10218000884229D1FFE7029800F03F000499096ACC
:10219000884221D1FFE7029847F6C07108400499B0
:1021A000496AB0EB811F17D1FFE7029800F4403075
:1021B0000499896AC9034FF6FF729143A1F58031F2
:1021C000884209D1FFE7029800F070600499C96A5B
:1021D000B0EB016F04D0FFE701208DF8170006E097
:1021E000FFE7FFE7FFE700208DF81700FFE79DF806
:1021F000170006B080BD000081B0009001B07047AC
:1022000080B588B0079007980068406806900798E6
:102210000068806805909DF8140000F040010020DF
:10222000B0EB911F11D1FFE70598C00768B1FFE738
:102230009DF8180000F040010020B0EB911F04D081
:10224000FFE70798016C8847F0E09DF8140000F064
:1022500002010020B0EB510F0BD0FFE79DF81810E2
:102260000020B0EBD11F04D0FFE70798416C8847EE
:10227000DCE09DF8140000F020010020B0EB511FBD
:1022800010D1FFE79DF8140000F040010020B0EBF2
:10229000911F07D1FFE79DF81500C007002800F047
:1022A000C580FFE79DF8180000F020010020B0EB8A
:1022B000511F00F0BB80FFE79DF8140000F04001C3
:1022C0000020B0EB911F28D0FFE7079890F851004D
:1022D000032813D0FFE70799486D40F004004865D4
:1022E000FFE70020049007980068C06804900798F2
:1022F0000068806804900498FFE70DE0FFE7002085
:10230000039007980068C068039007980068806889
:1023100003900398FFE789E0FFE79DF8140000F0C1
:1023200020010020B0EB511F15D0FFE70799486D41
:1023300040F001004865FFE7002002900798006820
:102340008068029007980168086820F040000860E3
:102350000298FFE7FFE79DF81500C00778B1FFE797
:102360000799486D40F008004865FFE7002001909C
:1023700007980068806801900198FFE7FFE70798D9
:10238000406D002851D0FFE707980168486820F0A9
:10239000E00048600799012081F85100069800F09C
:1023A0000200022805D0FFE79DF81800C007B8B367
:1023B000FFE707980168486820F003004860079825
:1023C000C06CA0B1FFE70798C16C43F22900C0F6CA
:1023D000000008650798C06CFEF73EFE30B1FFE7CD
:1023E0000799486D40F040004865FFE7FFE7079810
:1023F000806CA0B1FFE70798816C43F22900C0F61A
:10240000000008650798806CFEF726FE30B1FFE7F4
:102410000799486D40F040004865FFE7FFE703E09B
:102420000798FFF7E9FEFFE7FFE7FFE708B080BD89
:1024300080B584B00290029820B9FFE701208DF8A2
:102440000F0071E00298406A60B9FFE702984068A7
:10245000B0F5827F01D1FFE703E002990020C86157
:10246000FFE705E002990020086102994861FFE753
:10247000029900208862029890F8510040B9FFE765
:102480000299002081F85000029800F051F8FFE70F
:102490000299022081F8510002980168086820F032
:1024A00040000860029A019211685068D2F808C092
:1024B000D36800F482700CF4044C604403F40063AD
:1024C0001844136903F002031844536903F001032D
:1024D0001844936903F400731844D36903F0380374
:1024E0001844136A03F080031843926A02F40052FE
:1024F00010430860029A508B00F004001168526A81
:1025000002F010021044486002980168C86920F483
:102510000060C861029900204865029A012182F892
:1025200051108DF80F00FFE79DF80F0004B080BD3B
:1025300080B58AB009900020089007900690059019
:1025400004900998006843F60041C4F200018842F3
:102550003FD1FFE7FFE70020039043F64000C4F2BD
:102560000200016841F400410160006800F400408D
:1025700003900398FFE7FFE70020029043F6300046
:10258000C4F20200016841F004010160006800F03B
:10259000040002900298FFE74FF4E05004900220FC
:1025A00005900020009006900320079006200890D8
:1025B00040F60000C4F2020004A9FEF735FE009ABE
:1025C000332001901146FFF7C5F80198FFF7B8F8DE
:1025D000FFE70AB080BD000080B58CB0DDF838C0E0
:1025E0000A9009910892ADF81E3001200390FFF780
:1025F0000FF804900A9890F851008DF817000A9887
:1026000040680690BDF81E00ADF81C009DF817004C
:10261000012812D0FFE70698B0F5827F09D1FFE7C5
:102620000A98806828B9FFE79DF81700042804D0AD
:10263000FFE702208DF82F009BE1099838B1FFE7F2
:10264000089820B1FFE7BDF81E0020B9FFE7012080
:102650008DF82F008DE1FFE70A9890F850000128CF
:1026600004D1FFE702208DF82F0082E10A990120B2
:1026700081F85000FFE7FFE70A9890F8510004281E
:1026800005D0FFE70A99052081F85100FFE70A9974
:102690000020486508990A9A9163BDF81E100A9AAD
:1026A000D187BDF81E100A9A918709990A9A116379
:1026B000BDF81E100A9AD186BDF81E100A9A91869E
:1026C0000A9908640A9948640A980068006800F04A
:1026D0004000402807D0FFE70A980168086840F0EA
:1026E00040000860FFE70A98C068B0F5006F40F04E
:1026F0008180FFE70A98406828B1FFE7BDF81C0019
:1027000001280ED1FFE70A980168006B0088C860B5
:102710000A99086B023008630A99C88E0138C88686
:10272000FFE7FFE70A98C18E0120019039B9FFE762
:102730000A98C08F002818BF01200190FFE7019878
:10274000C007002855D0FFE70A9800688068800716
:10275000002818D5FFE70A98C08EA0B1FFE70398BC
:10276000012810D1FFE70A980168006B0088C86053
:102770000A99086B023008630A99C88E0138C88626
:1027800000200390FFE70A9800688068C007A8B19E
:10279000FFE70A98C08F88B1FFE70A980068C06811
:1027A0000A99896B08800A99886B023088630A99B4
:1027B000C88F0138C88701200390FFE7FEF728FF84
:1027C0000499401A0E99884212D3FFE70E980130FF
:1027D00070B1FFE70A99012081F85100FFE70A99DB
:1027E000002081F85000FFE703208DF82F00C0E0A3
:1027F00098E782E00A98406828B1FFE7BDF81C001E
:1028000001280ED1FFE70A980168006B0078087371
:102810000A99086B013008630A99C88E0138C88686
:10282000FFE7FFE70A98C18E0120009039B9FFE762
:102830000A98C08F002818BF01200090FFE7009879
:10284000C007002858D0FFE70A9800688068800712
:10285000002818D5FFE70A98C08EA0B1FFE70398BB
:10286000012810D1FFE70A980168006B007808730F
:102870000A99086B013008630A99C88E0138C88626
:1028800000200390FFE70A9800688068C007A8B19D
:10289000FFE70A98C08F88B1FFE70A980068C06810
:1028A0000A99896B08700A99886B013088630A99C4
:1028B000C88F0138C88701200390FFE7FEF7A8FE04
:1028C0000499401A0E99884204D3FFE70E9801300C
:1028D00018B9FFE70E9870B9FFE70A99012081F84F
:1028E0005100FFE70A99002081F85000FFE703201C
:1028F0008DF82F003DE095E7FFE70A980E99049ABE
:1029000000F0A2FB68B1FFE70A9920204865FFE7C5
:102910000A99002081F85000FFE701208DF82F0070
:1029200027E00A98806870B9FFE7FFE7002002906F
:102930000A980068C06802900A980068806802904F
:102940000298FFE7FFE70A99012081F85100FFE7AD
:102950000A99002081F85000FFE70A98406D20B1E5
:10296000FFE701208DF82F0003E000208DF82F00F5
:10297000FFE79DF82F000CB080BD000080B584B04B
:10298000029001910092029820B9FFE701208DF892
:102990000F002FE0029890F8490040B9FFE7029934
:1029A000002081F84800029800F028F8FFE702991B
:1029B00051F8080BFEF7C2FA029A01991068926862
:1029C000FEF71AFB029B009958689A681B6BFEF78A
:1029D00083FA02980168826851F8220040F00100F1
:1029E00041F822000299012081F8490000208DF869
:1029F0000F00FFE79DF80F0004B080BD80B582B0E6
:102A00000190FEF76DFB02B080BD000080B582B082
:102A10000190019800F024FD02B080BD80B582B025
:102A20000090009820B9FFE701208DF8070040E0F2
:102A30000098806908B1FFE700E0FFE7009890F890
:102A4000410040B9FFE70099002081F8400000985C
:102A500000F034F8FFE70099242081F84100009845
:102A60000168C86820F40050C860009800F0D8FDE4
:102A700000980168086920F4904008610098016896
:102A8000486920F02A00486100980168C86840F44D
:102A90000050C860009900204864009A202182F804
:102AA0004110009A82F84210009948638DF807009F
:102AB000FFE79DF8070002B080BD000080B588B038
:102AC00007900020069005900490039002900798CC
:102AD000006841F20001C4F20101884234D1FFE7ED
:102AE000FFE70020019043F64400C4F202000168B1
:102AF00041F010010160006800F0100001900198A1
:102B0000FFE7FFE70020009043F63000C4F2020028
:102B1000016841F001010160006800F001000090CF
:102B20000098FFE74FF4C06002900220039000205D
:102B3000049003200590072006900020C4F20200B4
:102B400002A9FEF771FBFFE708B080BD80B58AB02F
:102B500008900791ADF81A2005930020029008987C
:102B600090F84100202840F08180FFE7079820B1CD
:102B7000FFE7BDF81A0020B9FFE701208DF8270014
:102B800078E00899002048640899212081F84100E4
:102B9000FEF73EFD0290BDF81A0008998884BDF842
:102BA0001A000899C88408988068B0F5805F09D138
:102BB000FFE70898006928B9FFE70020049007980C
:102BC000039004E00798049000200390FFE7FFE7DC
:102BD0000898C08C78B3FFE70898029B05996A466D
:102BE00011608021002200F0B9FD40B1FFE7089993
:102BF000202081F8410003208DF827003AE0049856
:102C000058B9FFE7039800886FF35F2008990968B7
:102C1000486003980230039008E00498007808990F
:102C200009684860049801300490FFE70899C88C4F
:102C30000138C884CCE70898029B05996A46116060
:102C40004021002200F08AFD40B1FFE708992020D2
:102C500081F8410003208DF827000BE0089920201F
:102C600081F8410000208DF8270003E002208DF854
:102C70002700FFE79DF827000AB080BDFFE7FEE7C9
:102C800080B581B0ADF80200BDF8021040F6F22028
:102C9000C2F200000180028841F27011C2F200010C
:102CA0000B68D21A00EE102AB8EEC01A40F20802E1
:102CB000C2F2000292ED000A41F27413C2F2000364
:102CC00093ED002AB8EEC22A20EE020A30EE010A85
:102CD000BDEEC00A40F6F422C2F2000282ED000A04
:102CE000D2F800C040F6E42EC2F2000EAEF800C0EA
:102CF00012681A600088086001B080BD80B590B08D
:102D0000002100910F910E910D910C910B910A9160
:102D100009910891079106910591049103910291FF
:102D200041F2D400C2F2000001904FF02042026054
:102D300040F20412CAF20002426006228260C160C0
:102D40000161102343618161C161016241624FF4FD
:102D500080528262C1624FF48042026341638163A8
:102D600041644FF00F0CCDF824C0CDF828C0FF22ED
:102D70000B92CDF830C00D9311220E920F914FF0AF
:102D8000090ECDF808E0CDF80CC04FF0080CCDF8D6
:102D900010C0059106930792089109A902AAFFF7AE
:102DA000EDFD18B1FFE7FDF727FFFFE710B080BD8D
:102DB00080B592B00020119010900F900E900D9061
:102DC000FFE700200C9043F63000C4F202000168D7
:102DD00041F080010160006800F080000C900C98C8
:102DE000FFE7FFE700200B9043F63000C4F202003B
:102DF000016841F001010160006800F001000B90E2
:102E00000B98FFE7FFE700200A9043F63000C4F27A
:102E10000200016841F004010160006800F0040054
:102E20000A900A98FFE7FFE70020099043F6300078
:102E3000C4F20200016841F020010160006800F066
:102E4000200009900998FFE7FFE70020089043F66B
:102E50003000C4F20200016841F010010160006816
:102E600000F0100008900898FFE7FFE700200790A7
:102E700043F63000C4F20200016841F0080101602D
:102E8000006800F0080007900798FFE7FFE70020C0
:102E9000069043F63000C4F20200016841F04001A0
:102EA0000160006800F0400006900698FFE70020EF
:102EB000C4F202000190E021009100220492FEF78A
:102EC0008FFB009A019804990D92012202920E92B2
:102ED0000F91022110910DA90391FEF7A5F9029817
:102EE000039910220D924FF404120E920F9040F6A7
:102EF0000000C4F20200FEF797F9049A0A20059038
:102F00001146FEF727FC0598FEF71AFC12B080BDAB
:102F100080B582B041F27C00C2F20000019043F61D
:102F20000041C4F2000101604FF482714160002150
:102F30008160C1600161012242614FF400728261CF
:102F40002022C2610162416281620A21C162FFF7EF
:102F50006FFA18B1FFE7FDF74FFEFFE702B080BD43
:102F600080B582B041F22410C2F20000019041F21B
:102F70000001C4F2010101604FF4E1314160002120
:102F80008160C16001610C2242618161C161FFF712
:102F900045FD18B1FFE7FDF72FFEFFE702B080BD4A
:102FA000FFE7FEE7FFE7FEE788B00790069105928E
:102FB000079800F0070004900498C0F10700052866
:102FC00003D3FFE70420019004E00498C0F1070058
:102FD0000190FFE70198039004980430062803D875
:102FE000FFE70020009003E0049803380090FFE71B
:102FF0000098029006980399012202FA01F1013922
:103000000840029B984005999A40013A11400843B4
:1030100008B070477047000080B541F27C00C2F2F2
:103020000000FFF7EDF880BD80B582B001900198F7
:10303000806B009000990020C8870099C88600988E
:10304000FFF7DAF802B080BD80B586B00490039136
:1030500002920498039B02996A46116002210122A0
:1030600000F058F848B1FFE70499486D40F020009F
:10307000486503208DF8170048E040F20400C2F2D2
:10308000000000684AF6AB21CAF6AA21A0FB011095
:1030900000094DF68361C4F21B31A0FB0110800CC6
:1030A0004FF47A714843019004984068B0F5827FEC
:1030B00015D1FFE70498039B02996A4611608021AD
:1030C000002200F027F848B1FFE70499486D40F06E
:1030D0002000486503208DF8170017E012E0FFE795
:1030E000019808B9FFE70CE0019801380190FFE76B
:1030F000049800688068C1B20020B0EBD11FEFD106
:10310000FFE7FFE700208DF81700FFE79DF81700A5
:1031100006B080BD80B58AB0DDF830C00890079158
:103120008DF81B20059305980190FEF771FA024671
:1031300001980C99891A08440390FEF769FA0290E5
:10314000039840F20401C2F200010968C1F3CB31D7
:1031500048430490FFE70898006880680799084092
:10316000401AB0FA80F040099DF81B1088425ED0EA
:10317000FFE705980130002858D0FFE7FEF748FA2E
:103180000299401A0399884204D2FFE70398002865
:1031900042D1FFE708980168486820F0E0004860E5
:1031A00008984068B0F5827F13D1FFE708988068DF
:1031B000B0F5004F06D0FFE708988068B0F5806F43
:1031C00007D1FFE708980168086820F04000086010
:1031D000FFE70898806AB0F5005F0FD1FFE7FFE7CF
:1031E00008980168086820F4005008600898016891
:1031F000086840F400500860FFE7FFE708990120E5
:1032000081F85100FFE70899002081F85000FFE79E
:1032100003208DF827000EE0049818B9FFE700207E
:103220000390FFE7049801380490FFE793E700203C
:103230008DF82700FFE79DF827000AB080BD000049
:10324000704700000000000080B5A2B021908DED15
:103250001E0B21985030FDF74DFC10EE100AFDF7C3
:10326000C3F941EC100B219880ED000B9DED1E0B76
:10327000219880ED080B21980E9090ED020B8DEDBA
:10328000000B90ED040B8DED060B90ED060B90ED11
:10329000081B51EC110B53EC102B0B930A92FDF70A
:1032A000EBF89DED000B02460E9803920A46039937
:1032B00042EC111B8DED041B90ED0A1B51EC110B20
:1032C00053EC102BFDF766F80A9A0B9B41EC100BA0
:1032D00051EC100BFDF7D0F89DED041B41EC100BE9
:1032E00051EC110B53EC102BFDF74EF89DED060B36
:1032F00002460E9809920A46099942EC111B8DED7F
:103300000C1B90ED0C1B51EC110B53EC102BFDF72B
:1033100041F80A9A0B9B41EC100B51EC100BFDF796
:10332000ABF89DED0C1B41EC100B51EC110B53EC69
:10333000102BFDF729F802460E980F920A460F99B6
:1033400042EC101B80ED0E0B2198149090ED000BB9
:103350008DED100B90ED0C0B8DED120B90ED0E0B17
:1033600090ED121B51EC110B53EC102BFCF76BFF83
:103370009DED100B41EC110B51EC110B53EC102B8C
:10338000FDF708F841EC100B51EC100B9FED320BE0
:1033900053EC102B19931892FDF76EF89DED120B5C
:1033A00041EC110B53EC112B51EC100BFCF74BFFC4
:1033B0000246149815920A46159942EC101B80EDAE
:1033C0000C0B21981C9090ED000B8DED160B90EDE1
:1033D0000A0B8DED1A0B90ED0C0B90ED101B51ECC0
:1033E000110B53EC102BFCF72EFF9DED160B41EC4F
:1033F000110B51EC110B53EC102BFCF7CBFF189A6F
:10340000199B41EC100B51EC100BFDF735F89DEDBD
:103410001A0B41EC110B53EC112B51EC100BFCF778
:1034200012FF02461C981D920A461D9942EC101B81
:1034300080ED0A0B219890ED0C0B80ED100B21987C
:1034400090ED0E0B80ED120B219890ED0A0B22B03F
:1034500080BD00BF00BF00BF0000000000000040B2
:1034600080B582B0009000980138B0F1807F03D31E
:10347000FFE70120019019E0009801384EF2140195
:10348000CEF2000108604FF0FF300F2100F012FA79
:103490004EF21801CEF20001002008604EF2100238
:1034A000CEF20002072111600190FFE7019802B0FF
:1034B00080BD000080B5FEF7B1F880BD80B594B046
:1034C00008A83021FCF7B4FE002007900690059074
:1034D00004900390FFE70020029043F64000C4F2FE
:1034E0000200016841F080510160006800F08050E6
:1034F00002900298FFE7FFE70020019047F20000EA
:10350000C4F20000016841F480410160006800F4E9
:10351000804001900198FFE7012008904FF480302F
:10352000099002210E914FF480000F90042010901A
:10353000A82211921291139008A8FEF7FDFA18B173
:10354000FFE7FDF759FBFFE70F20039002200490EF
:10355000002005904FF4A05006904FF48050079043
:1035600003A80521FEF718F918B1FFE7FDF744FBA2
:10357000FFE714B080BD00004EF68851CEF2000186
:10358000086840F4700008607047000084B0039041
:10359000FFE7FFE70398006850E8030F20F49070FE
:1035A0000290FFE702990398026842E8031000289E
:1035B000F0D1FFE7FFE7FFE7FFE70398006850E877
:1035C000050F20F001000190FFE7019903980268C0
:1035D00042E805100028F0D1FFE7FFE70398006BF1
:1035E000012814D1FFE7FFE7FFE70398006850E8E0
:1035F000030F20F010000090FFE700990398026885
:1036000042E803100028F0D1FFE7FFE7FFE7039946
:10361000202081F8420003990020086304B070471D
:1036200080B586B0059005980068006920F4405088
:10363000059A1168D26810430861059988680B697A
:103640004A69C96918431043084304900598006803
:10365000C06849F20C6188430499084305990968D8
:10366000C86005980068406920F44070059A1168A8
:103670009269104348610598006841F20001C4F264
:103680000101884209D0FFE70598006841F2004136
:10369000C4F20101884204D1FFE7FEF7C7F90390A5
:1036A00003E0FEF7B1F90390FFE70598C069B0F5B4
:1036B000004F29D1FFE703981921A0FB0101059ACA
:1036C0001368029353685A00DB0FFCF779FD0299E7
:1036D000864648F21F53C5F2EB13AEFB03204209A6
:1036E00010014FF0640C02FB1CEC322202EBCC0206
:1036F000A2FB0332F82303EA521300EB4300C2F3A8
:1037000042121044886026E003981921A0FB0101B1
:10371000059A1368019353689A009B0FFCF750FDBC
:103720000199844648F21F52C5F2EB12ACFB0230FD
:103730004309642003FB10CC322000EB0C10A0FBEB
:103740000202F02000EA521000EB0310C2F3431211
:1037500010448860FFE706B080BD000080B586B0E9
:10376000DDF820C0049003918DF80B200193FFE752
:1037700004980068006803990840401AB0FA80F085
:1037800040099DF80B1088424DD1FFE708980130A1
:10379000002847D0FFE7FDF73BFF0199401A089941
:1037A000884203D8FFE7089820B9FFE703208DF887
:1037B00017003CE004980068C0684007002830D536
:1037C000FFE7039880282CD0FFE70398402828D0F3
:1037D000FFE704980068006800F008010120B0EBE2
:1037E000D10F1DD1FFE7FFE700200090049800688B
:1037F0000068009004980068406800900098FFE717
:103800000498FFF7C3FE049908204864FFE7049971
:10381000002081F84000FFE701208DF8170006E046
:10382000FFE7FFE7A4E700208DF81700FFE79DF80A
:10383000170006B080BD0000FFE7FEE781B08DF8FD
:1038400003009DF90300002812D4FFE79DF903103F
:1038500001F01F02012090404A094EF28011CEF281
:10386000000141F82200BFF34F8FBFF36F8FFFE7D6
:1038700001B0704781B08DF803009DF90300002866
:103880000ED4FFE79DF9031001F01F0201209040C4
:103890004A094EF20011CEF2000141F82200FFE782
:1038A00001B070474EF60C50CEF200000068C0F335
:1038B0000220704782B08DF8070000919DF9070043
:1038C00000280AD4FFE7009800019DF907104EF286
:1038D0000042CEF2000288540BE0009800019DF8EF
:1038E000071001F00F014EF61452CEF20002885478
:1038F000FFE702B07047000083B00290029800F02A
:10390000070000904EF60C51CEF2000108680190BD
:1039100001984FF6FF02104001900198009A40EA8A
:1039200002200022C0F2FA52104301900198086070
:1039300003B0704782B000208DF80700FFE79DF8C4
:10394000070001283EDCFFE79DF8072002EB42005C
:1039500040F6E723C2F200031844C07840F2200189
:10396000C2F20001009141F822009DF8072051F8B1
:103970002200000241F822009DF8072002EB4200DD
:10398000184490F804C051F8220040EA0C0041F8B5
:1039900022009DF8072051F82200000241F8220081
:1039A0009DF8072002EB42001844437951F82200A9
:1039B000184341F82200FFE79DF8070001308DF819
:1039C0000700BCE740F22001C2F2000108680012C3
:1039D0000860486800124860088808608888486065
:1039E0000A6840F24000C2F200000280496841804B
:1039F000B0F9000000EE100AB8EEC00A9FED071AF9
:103A000020EE010A9FED061A80EE010A40F6FC2026
:103A1000C2F2000080ED000A02B0704748E11A408F
:103A200000FEFF4680B582B0ADF80600BDF8060086
:103A3000FDF734FB02B080BD82B001900020009001
:103A4000FFE700980199884206D2FFE700BFFFE731
:103A5000009801300090F4E702B0704780B588B05C
:103A6000ADF81E00BDF91E004FF49671484344F6B0
:103A7000D351C1F2620150FB01F1480900EBD17052
:103A8000C0F16E00ADF81A0040F20C00C2F2000066
:103A90000078E0B1FFE7BDF81A100A2005904FF654
:103AA000FF7200F0A3FA059841F26C11C2F2000116
:103AB0000880BDF81A0041F26E11C2F200010880C0
:103AC00040F20C01C2F200010020087047E041F210
:103AD0006C10C2F2000000880130ADF81C00BDF887
:103AE0001C00B0F5EB7F20DAFFE741F26C10C2F268
:103AF00000000390008841F26E11C2F200010491AF
:103B00000988BDF81C20BDF81A30EE464FF6FF7C40
:103B1000CEF800C000F0D2F9039A0499BDF81C0059
:103B20001080BDF81A00088018E0002000F090F81E
:103B3000BDF81A100A2002904FF6FF7200F056FAF4
:103B4000029841F26C11C2F200010880BDF81A001F
:103B500041F26E11C2F200010880FFE7FFE708B0F2
:103B600080BD000080B582B00190009141F2241028
:103B7000C2F2000001A901224FF0FF33FEF7E6FF79
:103B8000019802B080BD000082B0009041F2740044
:103B9000C2F200000068A8B9FFE741F27401C2F266
:103BA000000101200860009841F27801C2F2000192
:103BB0000860009841F27001C2F200010860002024
:103BC000019042E0009841F27001C2F200010968E0
:103BD000884207DCFFE7009841F27001C2F2000161
:103BE00008602FE041F27800C2F20000006841F264
:103BF0007001C2F200010968401A40F21001C2F2DD
:103C00000001096888420FDBFFE7009841F2780164
:103C1000C2F200010860009841F27001C2F2000196
:103C200008600120019010E0009841F27801C2F292
:103C300000010860009841F27001C2F200010860C2
:103C4000FFE7FFE700200190FFE7019802B070470F
:103C500080B584B0ADF80E0000210091029141F2D0
:103C60007810C2F200000288019242880198504305
:103C70000190084603F076FB03F07EFE0098029068
:103C8000FFE70298019988420BD2FFE7BDF80E00CA
:103C90008021C6F600410880FFE7029801300290BB
:103CA000EFE704B080BD000080B582B08DF807005A
:103CB0009DF8070041F27811C2F2000188719DF869
:103CC0000700002840F08080FFE741F27810C2F240
:103CD0000000F02101804FF4A0714180808845F2FE
:103CE0001051884214D1FFE741F27811C2F200016D
:103CF0004FF4305008814FF4285048814FF42C5035
:103D000088814FF4F07008804FF44870488026E0B6
:103D100041F27810C2F20000808841F663118842B7
:103D200011D1FFE741F27811C2F200012C20088185
:103D30002B2048812A2088814FF4F07008804FF4AE
:103D4000487048800AE041F27811C2F200012C204C
:103D500008812A2048812B208881FFE7FFE741F274
:103D60007810C2F20000808845F2103188420AD0F3
:103D7000FFE741F27810C2F20000808847F29671A6
:103D800088420BD1FFE741F27811C2F200014FF4F3
:103D9000A07008804FF4F0704880FFE741F278107F
:103DA000C2F20000808849F6060188420BD1FFE785
:103DB00041F27811C2F200014FF4F07008804FF424
:103DC00048704880FFE773E041F27810C2F20000CB
:103DD0004FF4A0710180F0214180808845F210519C
:103DE000884214D1FFE741F27811C2F200014FF48A
:103DF000305008814FF4285048814FF42C5088816E
:103E00004FF4487008804FF4F070488030E041F281
:103E10007810C2F20000808841F6631188420AD00F
:103E2000FFE741F27810C2F20000808849F60601EF
:103E3000884211D1FFE741F27811C2F200012C2033
:103E400008812A2048812B2088814FF448700880FF
:103E50004FF4F07048800AE041F27811C2F200019C
:103E60002C2008812A2048812B208881FFE7FFE74A
:103E700041F27810C2F20000808845F21031884289
:103E80000AD0FFE741F27810C2F20000808847F2C2
:103E9000967188420BD1FFE741F27811C2F200011E
:103EA0004FF4F07008804FF4A0704880FFE7FFE700
:103EB000002003F0A9F802B080BD000080B58CB0EE
:103EC00084460E98ADF82EC0ADF82C10ADF82A201F
:103ED000ADF82830ADF82600002008900790BDF816
:103EE0002A00BDF82E10401A0690BDF82800BDF833
:103EF0002C10401A0590BDF82E000190BDF82C0042
:103F000000900698012803DBFFE7012003900DE0F5
:103F1000069818B9FFE70020039006E04FF0FF3045
:103F20000390069840420690FFE7FFE705980128B6
:103F300003DBFFE7012002900DE0059818B9FFE7C9
:103F40000020029006E04FF0FF30029005984042BA
:103F50000590FFE7FFE706980599884203DDFFE734
:103F60000698049002E005980490FFE70020ADF861
:103F70002400FFE7BDF8240004990131884233DCB6
:103F8000FFE7BDF80400BDF80010BDF8262000F0E2
:103F90002DF8069908980844089005990798084450
:103FA000079008980499884209DDFFE7049908986A
:103FB000401A08900399019808440190FFE7079878
:103FC0000499884209DDFFE704990798401A079091
:103FD0000299009808440090FFE7FFE7BDF824002D
:103FE0000130ADF82400C5E70CB080BD80B582B0CB
:103FF000ADF80600ADF804100092BDF80600BDF85B
:10400000041003F0AFF903F0B7FC00988021C6F666
:104010000041088002B080BD80B58CB0CF2003F095
:104020009BFC00200A9003F087FCC120009003F065
:1040300083FC3020019003F07FFCED2003F08CFC2A
:10404000642003F079FC032003F076FC122003F0D7
:1040500073FC812003F070FCE82003F07DFC8520D8
:1040600003F06AFC1020049003F066FC7A2003F051
:1040700063FCCB2003F070FC392003F05DFC2C20A6
:1040800003F05AFC0A9803F057FC342003F054FC68
:10409000022003F051FCF72003F05EFC202003F027
:1040A0004BFCEA2003F058FC0A9803F045FC0A9800
:1040B00003F042FCC02003F04FFC1B2003F03CFC4B
:1040C000009803F049FC0120079003F035FCC5205F
:1040D00003F042FC019803F02FFC019803F02CFC44
:1040E000C72003F039FCB72003F026FC362003F08C
:1040F00033FC482003F020FC3A2003F02DFC55202F
:1041000003F01AFCB12003F027FC0A9803F014FC1A
:104110001A2003F011FCB62003F01EFC0A200390C5
:1041200003F00AFCA22003F007FCF22003F014FCC9
:104130000A9803F001FC262003F00EFC079803F018
:10414000FBFBE02003F008FC0F20059003F0F4FBDC
:104150002A20099003F0F0FB282003F0EDFB082053
:10416000029003F0E9FB0E2003F0E6FB029803F057
:10417000E3FB542003F0E0FBA92003F0DDFB432028
:1041800003F0DAFB039803F0D7FB059803F0D4FBA8
:104190000A9803F0D1FB0A9803F0CEFB0A9803F0CB
:1041A000CBFB0A9803F0C8FBE12003F0D5FB0A988B
:1041B00003F0C2FB152003F0BFFB172003F0BCFB8C
:1041C000072003F0B9FB11200B9003F0B5FB06208C
:1041D00003F0B2FB2B20069003F0AEFB562003F059
:1041E000ABFB3C2003F0A8FB052003F0A5FB0498E3
:1041F00003F0A2FB059803F09FFB3F20089003F01B
:104200009BFB089803F098FB059803F095FB069834
:1042100003F0A2FB0A9803F08FFB0A9803F08CFBD3
:10422000079803F089FB089803F086FB099803F0D0
:1042300093FB0A9803F080FB0A9803F07DFB0A9831
:1042400003F07AFBEF2003F077FB0B9803F084FB7D
:104250007820FFF7E7FB292003F07EFB0CB080BD40
:1042600080B596B0FF20019003F076FB019803F033
:1042700063FB982003F060FB06200D9003F05CFBCD
:10428000BC2003F069FB0120129003F055FB0F20C6
:10429000109003F051FB612003F04EFB019803F0F6
:1042A0004BFB129803F048FB129803F045FB0B20E0
:1042B0000A9003F041FB1020099003F03DFB3720EA
:1042C00003F03AFB632003F037FB019803F034FB63
:1042D000019803F031FB129803F02EFB129803F0C3
:1042E0002BFB0020159003F027FB159803F024FB0F
:1042F000019803F021FB522003F01EFB129803F0FB
:104300001BFB159803F018FB4020069003F014FBEC
:10431000BD2003F021FB129803F00EFB2320029036
:1043200003F00AFB4520039003F006FB672004908E
:1043300003F002FB129803F0FFFA029803F0FCFA74
:10434000039803F0F9FA049803F0F6FABE2003F09C
:1043500003FB159803F0F0FA129803F0EDFAAB2086
:1043600003F0EAFA602003F0E7FA2220059003F058
:10437000E3FA059803F0E0FA059803F0DDFA0598F2
:1043800003F0DAFA059803F0D7FAC72003F0E4FA4D
:104390003620149003F0D0FAED2003F0DDFA7F20F0
:1043A00003F0CAFA109803F0C7FAC02003F0D4FA59
:1043B000109803F0C1FA0A9803F0BEFA0A200E9092
:1043C00003F0BAFAFC2003F0C7FA082003F0B4FAAD
:1043D000DF20139003F0C0FA159803F0ADFA15989A
:1043E00003F0AAFA159803F0A7FA159803F0A4FAB7
:1043F000159803F0A1FA2020089003F09DFAF3200D
:1044000003F0AAFA742003F097FAB42003F0A4FA98
:10441000159803F091FA159803F08EFA159803F0A9
:104420008BFAF72003F098FA822003F085FAB12086
:1044300003F092FA159803F07FFA13200B9003F023
:104440007BFA0B9803F078FAF22003F085FA8020CB
:1044500003F072FA042003F06FFA069803F06CFA86
:10446000282003F069FAC12003F076FA172003F040
:1044700063FA8820079003F05FFA079803F05CFA6C
:10448000089803F059FAE02003F066FA159803F053
:1044900053FA0E9803F050FA122003F04DFA0998DF
:1044A00003F04AFA0E200F9003F046FA089803F042
:1044B00043FACC2003F040FA072003F03DFA0D98B0
:1044C00003F03AFA0A9803F037FA0F9803F034FA37
:1044D000109803F031FA0D200C9003F02DFA1520FE
:1044E000119003F029FA099803F026FA159803F0C1
:1044F00023FAE12003F030FA159803F01DFA0A9828
:1045000003F01AFA0B9803F017FA0C9803F014FA58
:104510000F9803F011FA1B2003F00EFA712003F03C
:104520000BFA0D9803F008FA0D9803F005FA0E98AF
:1045300003F002FA109803F0FFF90F9803F0FCF96A
:10454000109803F0F9F9119803F0F6F90C2003F034
:10455000F3F9159803F0F0F92A2003F0FDF9159806
:1045600003F0EAF9159803F0E7F9129803F0E4F97B
:10457000139803F0E1F92B2003F0EEF9159803F0FE
:10458000DBF9159803F0D8F9032003F0D5F91F20C3
:1045900003F0D2F93A2003F0DFF9552003F0CCF90B
:1045A000149803F0D9F9159803F0C6F9112003F017
:1045B000D3F97820FFF736FA292003F0CDF914203B
:1045C000FFF730FA2C2003F0C7F916B080BD0000C9
:1045D00080B5CEB0ED2003F0BFF90120219003F0AB
:1045E000ABF9FE2003F0A8F9EE2003F0B5F9DE20C8
:1045F00003F0A2F921200B9003F09EF9F12003F0C3
:10460000ABF9219803F098F9DF2003F0A5F9102009
:10461000459003F091F9C4202D9003F09DF98F206F
:1046200003F08AF9C620089003F096F900204A901A
:1046300003F082F9E220169003F07EF9169803F059
:104640007BF9169803F078F9BF2003F085F9AA20CA
:10465000419003F071F9B02003F07EF90D20009035
:1046600003F06AF94A9803F067F9009803F064F9D7
:104670004A9803F061F91120479003F05DF94A98D8
:1046800003F05AF9192003F057F94A9803F054F946
:104690000B9803F051F94A9803F04EF92D2003F0DE
:1046A0004BF94A9803F048F93D2003F045F94A9840
:1046B00003F042F95D20269003F03EF94A9803F09A
:1046C0003BF9269803F038F94A9803F035F9B12000
:1046D00003F042F9802003F02FF94A9803F02CF9F7
:1046E0008B20109003F028F94A9803F025F99620C2
:1046F000019003F021F94A9803F01EF9B22003F06B
:104700002BF94A9803F018F94A9803F015F902209A
:10471000239003F011F94A9803F00EF90320029058
:1047200003F00AF94A9803F007F9B3202B9003F03D
:1047300013F94A9803F000F94A9803F0FDF84A98F3
:1047400003F0FAF84A9803F0F7F84A9803F0F4F8FF
:104750004A9803F0F1F84A9803F0EEF84A9803F00B
:10476000EBF84A9803F0E8F84A9803F0E5F84A981D
:1047700003F0E2F84A9803F0DFF84A9803F0DCF817
:104780004A9803F0D9F84A9803F0D6F84A9803F00B
:10479000D3F84A9803F0D0F84A9803F0CDF84A9835
:1047A00003F0CAF84A9803F0C7F84A9803F0C4F82F
:1047B0004A9803F0C1F84A9803F0BEF84A9803F00B
:1047C000BBF8B42003F0C8F8109803F0B5F84A9885
:1047D00003F0B2F8019803F0AFF84A9803F0ACF890
:1047E000A12003F0A9F84A9803F0A6F8B52003F039
:1047F000B3F8239803F0A0F84A9803F09DF80298C4
:1048000003F09AF84A9803F097F80420039003F015
:1048100093F84A9803F090F8B62003F09DF84A9870
:1048200003F08AF84A9803F087F8B7201D9003F048
:1048300093F84A9803F080F84A9803F07DF83F20F7
:1048400003F07AF84A9803F077F85E2003F074F8E2
:104850004A9803F071F86420489003F06DF84A9884
:1048600003F06AF88C2003F067F84A9803F064F8C4
:10487000AC2003F061F84A9803F05EF8DC20309039
:1048800003F05AF84A9803F057F8702003F054F8F0
:104890004A9803F051F8902003F04EF84A9803F03C
:1048A0004BF8EB2003F048F84A9803F045F83098AD
:1048B00003F042F84A9803F03FF8B82003F04CF8B0
:1048C0004A9803F039F84A9803F036F84A9803F00A
:1048D00033F84A9803F030F84A9803F02DF84A98D4
:1048E00003F02AF84A9803F027F84A9803F024F8CE
:1048F000BA2003F031F82420069003F01DF84A98FE
:1049000003F01AF84A9803F017F84A9803F014F8DD
:10491000C12003F021F82020099003F00DF84A98F7
:1049200003F00AF8542003F007F84A9803F004F85B
:10493000FF204B9003F000F84A9802F0FDFFC220E0
:104940001E9003F009F80A20189002F0F5FF4A982B
:1049500002F0F2FF039802F0EFFF4A9802F0ECFF3A
:10496000C32002F0F9FF3C20249002F0E5FF4A98B2
:1049700002F0E2FF3A20469002F0DEFF4A9802F091
:10498000DBFF392002F0D8FF4A9802F0D5FF37202C
:1049900002F0D2FF4A9802F0CFFF249802F0CCFF39
:1049A0004A9802F0C9FF36200D9002F0C5FF4A98E0
:1049B00002F0C2FF3220339002F0BEFF4A9802F0AC
:1049C000BBFF2F20049002F0B7FF4A9802F0B4FF1B
:1049D0002C204D9002F0B0FF4A9802F0ADFF292044
:1049E000499002F0A9FF4A9802F0A6FF2620059000
:1049F00002F0A2FF4A9802F09FFF069802F09CFF87
:104A00004A9802F099FF069802F096FF4A9802F041
:104A100093FF2320379002F08FFF4A9802F08CFF1B
:104A2000249802F089FF4A9802F086FF0D9802F060
:104A300083FF4A9802F080FF339802F07DFF4A9886
:104A400002F07AFF049802F077FF4A9802F074FFB0
:104A50004D9802F071FF4A9802F06EFF499802F0FB
:104A60006BFF4A9802F068FF059802F065FF4A98CC
:104A700002F062FF069802F05FFF4A9802F05CFFC6
:104A8000069802F059FF4A9802F056FF379802F054
:104A900053FF4A9802F050FF2D9802F05DFF62200C
:104AA0001A9002F049FF4A9802F046FF052017903D
:104AB00002F042FF4A9802F03FFF8420289002F063
:104AC0003BFF4A9802F038FFF020429002F034FF9A
:104AD0004A9802F031FF1820079002F02DFF4A9803
:104AE00002F02AFFA42002F027FF4A9802F024FFD8
:104AF000079802F021FF4A9802F01EFF50204390D1
:104B000002F01AFF4A9802F017FF0C2002F014FF7F
:104B10004A9802F011FF17200A9002F00DFF4A9800
:104B200002F00AFF952002F007FF4A9802F004FF06
:104B3000F320449002F000FF4A9802F0FDFEE620C8
:104B4000319002F0F9FE4A9802F0F6FEC52002F01C
:104B500003FF339802F0F0FE4A9802F0EDFE442085
:104B6000409002F0E9FE4A9802F0E6FE652002F06D
:104B7000E3FE4A9802F0E0FE7620349002F0DCFE7C
:104B80004A9802F0D9FE88203C9002F0D5FE4A985F
:104B900002F0D2FE089802F0DFFE099802F0CCFE87
:104BA0004A9802F0C9FE0A9802F0C6FE4A9802F03E
:104BB000C3FE219802F0C0FE4A9802F0BDFEC72055
:104BC0001F9002F0C9FE4A9802F0B6FE4A9802F021
:104BD000B3FE4A9802F0B0FE4A9802F0ADFEC8203B
:104BE00002F0BAFE4A9802F0A7FE4A9802F0A4FE2C
:104BF0004A9802F0A1FE4A9802F09EFEC92002F0F7
:104C0000ABFE4A9802F098FE4A9802F095FE4A9848
:104C100002F092FE4A9802F08FFE4A9802F08CFE53
:104C20004A9802F089FE4A9802F086FE4A9802F0FD
:104C300083FE4A9802F080FE4A9802F07DFE4A9870
:104C400002F07AFE4A9802F077FE4A9802F074FE6B
:104C50004A9802F071FE4A9802F06EFE4A9802F0FD
:104C60006BFEE020159002F077FE16200C9002F00B
:104C700063FE4A9802F060FE1C20199002F05CFE70
:104C80004A9802F059FE0B9802F056FE4A9802F03C
:104C900053FE0D9802F050FE4A9802F04DFE462059
:104CA00002F04AFE4A9802F047FE52200E9002F0AF
:104CB00043FE4A9802F040FE489802F03DFE4A98B2
:104CC00002F03AFE7A200F9002F036FE4A9802F087
:104CD00033FE109802F030FE4A9802F02DFE992023
:104CE0003E9002F029FE4A9802F026FEA82011907C
:104CF00002F022FE4A9802F01FFEB920129002F044
:104D00001BFE4A9802F018FE2D9802F015FE4A98F4
:104D100002F012FECA20139002F00EFE4A9802F032
:104D20000BFED220149002F007FE4A9802F004FE17
:104D3000D92002F001FE4A9802F0FEFD159802F01B
:104D4000FBFD4A9802F0F8FD449802F0F5FD4A9800
:104D500002F0F2FDE12002F0FFFD0C9802F0ECFD04
:104D60004A9802F0E9FD199802F0E6FD4A9802F02F
:104D7000E3FD222002F0E0FD4A9802F0DDFD0D98EF
:104D800002F0DAFD4A9802F0D7FD4520399002F092
:104D9000D3FD4A9802F0D0FD0E9802F0CDFD4A985E
:104DA00002F0CAFD489802F0C7FD4A9802F0C4FD1F
:104DB0000F9802F0C1FD4A9802F0BEFD109802F073
:104DC000BBFD4A9802F0B8FD3E9802F0B5FD4A9846
:104DD00002F0B2FD119802F0AFFD4A9802F0ACFD6E
:104DE000129802F0A9FD4A9802F0A6FD2D9802F053
:104DF000A3FD4A9802F0A0FD139802F09DFD4A9889
:104E000002F09AFD149802F097FD4A9802F094FD82
:104E1000D82002F091FD4A9802F08EFD159802F01C
:104E20008BFD4A9802F088FD449802F085FD4A986F
:104E300002F082FD169802F08FFD179802F07CFDBB
:104E40004A9802F079FD0B2002F076FD4A9802F0B4
:104E500073FD1B2002F070FD4A9802F06DFD3420B6
:104E6000329002F069FD4A9802F066FD409802F027
:104E700063FD4A9802F060FD4F2002F05DFD4A9804
:104E800002F05AFD612002F057FD4A9802F054FDED
:104E9000792002F051FD4A9802F04EFD3C9802F054
:104EA0004BFD4A9802F048FD97201B9002F044FD0C
:104EB0004A9802F041FDA6201C9002F03DFD4A9860
:104EC00002F03AFD1D9802F037FD4A9802F034FDD9
:104ED0001E9802F031FD4A9802F02EFD1F9802F054
:104EE0002BFD4A9802F028FDD120209002F024FDED
:104EF0004A9802F021FDD62002F01EFD4A9802F0E9
:104F00001BFDDD20229002F017FD4A9802F014FDEF
:104F1000449802F011FD4A9802F00EFDE32002F0E1
:104F20001BFD179802F008FD4A9802F005FD18983D
:104F300002F002FD4A9802F0FFFC199802F0FCFC16
:104F40004A9802F0F9FC3320389002F0F5FC4A98B8
:104F500002F0F2FC409802F0EFFC4A9802F0ECFC00
:104F6000439802F0E9FC4A9802F0E6FC1A9802F035
:104F7000E3FC4A9802F0E0FC782002F0DDFC4A985D
:104F800002F0DAFC3C9802F0D7FC4A9802F0D4FC1C
:104F90001B9802F0D1FC4A9802F0CEFC1C9802F05B
:104FA000CBFC4A9802F0C8FC1D9802F0C5FC4A9858
:104FB00002F0C2FC1E9802F0BFFC4A9802F0BCFC52
:104FC0001F9802F0B9FC4A9802F0B6FC209802F053
:104FD000B3FC4A9802F0B0FCD52002F0ADFC4A9830
:104FE00002F0AAFC229802F0A7FC4A9802F0A4FC66
:104FF000449802F0A1FC4A9802F09EFCE42002F0E2
:10500000ABFC219802F098FC4A9802F095FC21989C
:1050100002F092FC4A9802F08FFC239802F08CFC7C
:105020004A9802F089FC2A2002F086FC4A9802F095
:1050300083FC249802F080FC4A9802F07DFC4B200F
:10504000259002F079FC4A9802F076FC269802F04E
:1050500073FC4A9802F070FC7420279002F06CFCFC
:105060004A9802F069FC289802F066FC4A9802F01F
:1050700063FC9320299002F05FFC4A9802F05CFCEC
:10508000A2202A9002F058FC4A9802F055FC2B9876
:1050900002F052FC4A9802F04FFCBE202C9002F025
:1050A0004BFC4A9802F048FC2D9802F045FC4A98C7
:1050B00002F042FCCD202E9002F03EFC4A9802F015
:1050C0003BFCD3202F9002F037FC4A9802F034FCCE
:1050D000229802F031FC4A9802F02EFC449802F02B
:1050E0002BFC4A9802F028FCE52002F035FC4A9897
:1050F00002F022FC4A9802F01FFC4A9802F01CFCC5
:105100004A9802F019FC239802F016FC4A9802F023
:1051100013FC499802F010FC4A9802F00DFC249808
:1051200002F00AFC4A9802F007FC259802F004FC01
:105130004A9802F001FC269802F0FEFB4A9802F021
:10514000FBFB279802F0F8FB4A9802F0F5FB289841
:1051500002F0F2FB4A9802F0EFFB299802F0ECFB18
:105160004A9802F0E9FB2A9802F0E6FB4A9802F01E
:10517000E3FB2B9802F0E0FB4A9802F0DDFB2C9851
:1051800002F0DAFB4A9802F0D7FB2D9802F0D4FB2C
:105190004A9802F0D1FB2E9802F0CEFB4A9802F01A
:1051A000CBFB2F9802F0C8FB4A9802F0C5FB309861
:1051B00002F0C2FB4A9802F0BFFB449802F0BCFB2D
:1051C0004A9802F0B9FB319802F0C6FB479802F00A
:1051D000B3FB4A9802F0B0FB329802F0ADFB4A985C
:1051E00002F0AAFB5620369002F0A6FB4A9802F085
:1051F000A3FB349802F0A0FB4A9802F09DFB7720B5
:105200003B9002F099FB4A9802F096FB66203F9093
:1052100002F092FB4A9802F08FFB3C9802F08CFB64
:105220004A9802F089FB3E9802F086FB4A9802F009
:1052300083FBBB203D9002F07FFB4A9802F07CFB91
:105240003E9802F079FB4A9802F076FB3F9802F014
:1052500073FB4A9802F070FB55204C9002F06CFBF7
:105260004A9802F069FB4C9802F066FB4A9802F0FB
:1052700063FB399802F060FB4A9802F05DFB432023
:1052800002F05AFB4A9802F057FB409802F054FB98
:105290004A9802F051FBE72002F05EFB339802F0DF
:1052A0004BFB4A9802F048FB4C9802F045FB4A98A9
:1052B00002F042FB349802F03FFB4A9802F03CFBBC
:1052C0003F9802F039FB4A9802F036FB6720359090
:1052D00002F032FB4A9802F02FFB359802F02CFBCB
:1052E0004A9802F029FB87203A9002F025FB4A9861
:1052F00002F022FB3E9802F01FFB4A9802F01CFBD2
:105300003D9802F019FB4A9802F016FB3E9802F015
:1053100013FB4A9802F010FB3B9802F00DFB4A98F1
:1053200002F00AFB409802F007FB4A9802F004FBE7
:10533000369802F001FB4A9802F0FEFA379802F024
:10534000FBFA4A9802F0F8FA389802F0F5FA4A980F
:1053500002F0F2FA399802F0EFFA4A9802F0ECFA09
:10536000E82002F0F9FA4A9802F0E6FA4A9802F0C8
:10537000E3FA3E9802F0E0FA4A9802F0DDFA3A9831
:1053800002F0DAFA4A9802F0D7FA3C9802F0D4FA1E
:105390004A9802F0D1FA3B9802F0CEFA4A9802F00D
:1053A000CBFA3F9802F0C8FA4A9802F0C5FA3C9846
:1053B00002F0C2FA4A9802F0BFFA419802F0BCFA31
:1053C0004A9802F0B9FA3D9802F0B6FA4A9802F00B
:1053D000B3FA3E9802F0B0FA4A9802F0ADFA3F985C
:1053E00002F0AAFA4A9802F0A7FA4C9802F0A4FA3E
:1053F0004A9802F0A1FA4C9802F09EFA4A9802F0FC
:105400009BFA409802F098FA4A9802F095FA409870
:1054100002F092FA4A9802F08FFA4C9802F08CFA55
:105420004A9802F089FAE92002F096FA419802F0CF
:1054300083FA4A9802F080FA4A9802F07DFA4A9874
:1054400002F07AFA4A9802F087FA419802F074FA68
:10545000CF2002F081FA4A9802F06EFA4A9802F0E0
:105460006BFA4A9802F068FA4A9802F065FA4A988C
:1054700002F062FA4A9802F05FFA4A9802F05CFA87
:105480004A9802F059FA4A9802F056FA4A9802F0FD
:1054900053FA4A9802F050FA4A9802F04DFA4A98A4
:1054A00002F04AFA4A9802F047FA4A9802F044FA9F
:1054B0004A9802F041FA4A9802F03EFA429802F005
:1054C0004BFA4A9802F038FA439802F035FA4A98B3
:1054D00002F032FA4A9802F02FFA4A9802F02CFAB7
:1054E000449802F039FA4A9802F026FAF92002F0BC
:1054F00033FA062002F020FA459802F01DFA499886
:1055000002F01AFA4A9802F017FA469802F024FAC2
:105510004C9802F011FA479802F01EFA4898FEF7EC
:1055200081FA499802F018FA352002F015FA4A98E3
:1055300002F002FA512002F00FFA4B9802F0FCF947
:10554000532002F009FA4D9802F0F6F94C9802F057
:1055500003FA822002F0F0F94D9802F0FDF94EB006
:1055600080BD000080B5B4B04FF470401990552153
:10557000329102F00BFA4FF201001A90AA211B910E
:1055800002F004FA4FF202001C9052211D9102F029
:10559000FDF94FF203001E9008211F9102F0F6F969
:1055A0004FF2040020900121289102F0EFF94FF40E
:1055B00030400D21009102F0E9F900994BF2010011
:1055C00002F0E4F900994BF2020002F0DFF94FF427
:1055D0003640239034210D9102F0D8F90D994BF209
:1055E000016002F0D3F90D994BF2026002F0CEF99E
:1055F00000994FF43140219002F0C8F900994BF224
:105600000110229002F0C2F900994BF2021002F050
:10561000BDF90D994FF43740249002F0B7F90D9978
:105620004BF20170259002F0B1F90D994BF2027026
:1056300002F0ACF94FF432400021319102F0A6F9AA
:1056400031994BF2012002F0A1F931994BF202207D
:1056500002F09CF94FF4384027902421029102F087
:1056600095F902994BF60100299002F08FF9029901
:105670004BF602002A9002F089F928994FF43F4036
:1056800002F084F94FF433400F21019102F07EF9CA
:1056900001994BF2013002F079F901994BF2023095
:1056A00002F074F90D994FF4394002F06FF90D9939
:1056B0004BF6011002F06AF90D994BF6021002F058
:1056C00065F91F994FF4354002F060F91F994BF2CC
:1056D000015002F05BF91F994BF2025002F056F9AB
:1056E0004FF4424003212B9102F050F902994FF4FC
:1056F0003A4002F04BF902994BF6012002F046F9CC
:1057000002994BF6022002F041F931994FF43C40E6
:105710002C9002F03BF94BF601402D90782133910B
:1057200002F034F931994BF602402E9002F02EF936
:1057300031994FF43D4002F029F933994BF601506D
:1057400002F024F931994BF6025002F01FF9319919
:105750004FF43E4002F01AF94BF60160642102F06A
:1057600015F931994FF4514002F010F94DF2011042
:105770003321179102F00AF931994DF2021002F02B
:1057800005F90D994DF2031002F000F931994DF22F
:10579000041002F0FBF84DF205103A21039102F0DB
:1057A000F5F831994DF2061002F0F0F84DF20710BD
:1057B0004A21049102F0EAF831994DF2081002F002
:1057C000E5F84DF209105C21059102F0DFF83199FE
:1057D0004DF20A1002F0DAF84DF20B108121069119
:1057E00002F0D4F831994DF20C1002F0CFF84DF2DE
:1057F0000D10A621079102F0C9F831994DF20E1053
:1058000002F0C4F84DF20F10E521089102F0BEF845
:1058100028994DF2101002F0B9F84DF21110132131
:10582000099102F0B3F828994DF2121002F0AEF887
:105830004DF2131054210A9102F0A8F828994DF264
:10584000141002F0A3F84DF2151082210B9102F012
:105850009DF828994DF2161002F098F84DF21710A5
:10586000CA210C9102F092F84DF2181002212F91EA
:1058700002F08CF831994DF2191002F087F82F9947
:105880004DF21A1002F082F828994DF21B1002F026
:105890007DF82F994DF21C1002F078F80D994DF219
:1058A0001D1002F073F82F994DF21E1002F06EF8E1
:1058B0004DF21F1067210E9102F068F82F994DF2FA
:1058C000201002F063F84DF2211084210F9102F0B4
:1058D0005DF82F994DF2221002F058F84DF2231086
:1058E000A421109102F052F82F994DF2241002F0E9
:1058F0004DF84DF22510B721119102F047F82F997C
:105900004DF2261002F042F84DF22710CF211291ED
:1059100002F03CF82F994DF2281002F037F84DF2C2
:105920002910DE21139102F031F82F994DF22A103F
:1059300002F02CF84DF22B10F221149102F026F80F
:105940002F994DF22C1002F021F84DF22D10FE216E
:10595000159102F01BF82B994DF22E1002F016F85B
:105960004DF22F101021169102F010F82B994DF2E4
:10597000301002F00BF817994DF2311002F006F8D2
:105980002B994DF2321002F001F84DF233106D21D7
:10599000189101F0FBFF31994FF4524001F0F6FFEE
:1059A00017994DF2012001F0F1FF31994DF20220DB
:1059B00001F0ECFF0D994DF2032001F0E7FF319962
:1059C0004DF2042001F0E2FF03994DF2052001F0B1
:1059D000DDFF31994DF2062001F0D8FF04994DF218
:1059E000072001F0D3FF31994DF2082001F0CEFFDE
:1059F00005994DF2092001F0C9FF31994DF20A20B5
:105A000001F0C4FF06994DF20B2001F0BFFF319960
:105A10004DF20C2001F0BAFF07994DF20D2001F074
:105A2000B5FF31994DF20E2001F0B0FF08994DF20B
:105A30000F2001F0ABFF28994DF2102001F0A6FFD6
:105A400009994DF2112001F0A1FF28994DF2122081
:105A500001F09CFF0A994DF2132001F097FF28995D
:105A60004DF2142001F092FF0B994DF2152001F038
:105A70008DFF28994DF2162001F088FF0C994DF208
:105A8000172001F083FF2F994DF2182001F07EFFBF
:105A900031994DF2192001F079FF2F994DF21A201A
:105AA00001F074FF28994DF21B2001F06FFF2F9930
:105AB0004DF21C2001F06AFF0D994DF21D2001F0FE
:105AC00065FF2F994DF21E2001F060FF0E994DF2F7
:105AD0001F2001F05BFF2F994DF2202001F056FFAF
