:020000040800F2
:10000000A81100209D010008A52F00087D2C0008E4
:10001000A12F0008B10A00081D36000800000000EA
:100020000000000000000000000000004132000855
:10003000C90B0008000000001530000899320008C4
:10004000B7010008B7010008B7010008B7010008B0
:10005000B7010008B7010008B7010008B7010008A0
:10006000B7010008B7010008CD0B0008B701000870
:10007000B7010008B7010008B7010008B701000880
:10008000B7010008B7010008B7010008B701000870
:10009000B7010008B7010008B7010008B701000860
:1000A000B7010008B7010008B7010008B701000850
:1000B000B7010008B7010008B7010008B701000840
:1000C000B7010008B7010008B7010008B701000830
:1000D000B7010008B7010008B7010008B701000820
:1000E000B7010008B7010008B7010008B701000810
:1000F000B7010008B7010008B7010008B701000800
:10010000B7010008B7010008B7010008193000085E
:10011000B7010008B7010008B7010008B7010008DF
:10012000B7010008B7010008B7010008B7010008CF
:10013000B7010008B7010008B7010008B7010008BF
:10014000B7010008B7010008B7010008B7010008AF
:10015000B7010008B7010008B7010008B70100089F
:10016000B7010008B7010008B7010008B70100088F
:10017000B7010008B7010008B7010008000000003F
:10018000B7010008B7010008DFF80CD000F014FB3D
:1001900000480047057A0008A8110020064880475B
:1001A00006480047FEE7FEE7FEE7FEE7FEE7FEE75C
:1001B000FEE7FEE7FEE7FEE75D3300088901000881
:1001C0002DE9F05F0546002092469B46884606468C
:1001D000814640241BE0284641464746224600F01F
:1001E0003BFA53465A46C01A914110D3114618465D
:1001F000224600F022FA2D1A67EB01084F462246EC
:100200000120002100F019FA17EB00094E41201ED1
:10021000A4F10104DFDC484631462A464346BDE8E6
:10022000F09FD2B201E000F8012B491EFBD27047CB
:100230000022F6E710B513460A4604461946FFF7B2
:10024000F0FF204610BD2DE9FE4F804681EA0300F5
:10025000C00F0C46009021F0004123F00045B8EBA0
:100260000200A94105D24046214690461C460B4655
:10027000024623F00040104347D0270DC7F30A0081
:10028000C3F30A510290401A019040286BDAC3F37D
:10029000130040F4801B0098924620B10023D2EB5B
:1002A000030A63EB0B0B01985946C0F1400250461C
:1002B00000F0C3F906460D4650465946019A00F033
:1002C000DBF910EB08006141002487EA115284EA4F
:1002D000E7731A4340D0009A62B3019A012A4FEAA9
:1002E000075215DC001B61EB02014FF0004202EAED
:1002F0000752CDE90042001C41F5801132462B46E1
:1003000000F0DBF903B0BDE8F08F40462146F9E785
:10031000001B61EB0201001C41F5801300185B41DA
:100320002018A2F5001747EB030140EAD570B61973
:100330006D4111E06D084FEA360645EAC0754FEA97
:100340000752001B61EB0201001C41F580114908B6
:100350004FEA30000019514132462B4603B0BDE848
:10036000F04F00F09BB90098012240000023D0EB31
:10037000020263EBE073009821464FEAE074B8EBA9
:10038000000061EB0401E9E783F000435BE781F0E3
:10039000004158E72DE9FE4F81EA030404F00044D0
:1003A00021F0004100944FF0000B23F0004350EA8D
:1003B00001045ED052EA03045BD0C3F30A54C1F3D4
:1003C0000A552C44A4F2F3340194A0FB0254C1F367
:1003D000130141F48011C3F3130343F4801301FBB1
:1003E000024400FB034E840A970A44EA815447EA18
:1003F0008357A4FB076802958D0A05FB07854FEA22
:10040000932C04FB0C542705029D4FEA065847EA3B
:100410001637B5EB08056EEB070C870E920E47EA10
:10042000811742EA8312A7FB0201B6EB0B0164EBD2
:1004300000042B0D43EA0C335E1844EB1C50DA46E3
:100440005146E7FB0201C5F313044FEA0B3343EABD
:1004500014534FEA0432019C43EA0603A4F10C044E
:100460000294009CCDE900B400F027F903B0BDE888
:10047000F08F00200146F9E72DE9F04D81EA0304F1
:1004800004F0004B21F0004514464FF0000A23F021
:10049000004150EA050220D054EA01021DD0C5F304
:1004A0000A570246C5F31303C1F31300C1F30A56FA
:1004B00040F4801543F48013A7EB0608101BD646C2
:1004C00008F2FD3873EB050002D308F1010801E0E2
:1004D00092185B41B8F1000F03DA00200146BDE835
:1004E000F08D00204FF48011064684460EE0171B65
:1004F00073EB050705D3121B63EB050306434CEAB8
:10050000010C49084FEA300092185B4150EA01079C
:10051000EDD152EA030012D082EA040083EA050119
:10052000084305D0101BAB4106D20122002306E090
:1005300000224FF0004302E06FF0010253101AEB6B
:1005400006004CEB085110EB0A0041EB0B01BDE833
:10055000F04D00F0A3B80EB5C10F80EAE07008447A
:10056000CA07002140F233438DE80E000A460B46CD
:1005700000F0A3F803B000BD70B5C1F30A5201F05A
:1005800000450024C1F3130140F2FF3341F4801110
:100590009A4201DA002070BD40F233439A42A2F23F
:1005A000334203DC524200F057F800E090402C4305
:1005B000F1D0404270BDC1F30A5210B5C1F313012E
:1005C00040F2FF3341F480119A4201DA002010BD5D
:1005D00040F233439A42A2F2334203DC524200F02B
:1005E0003BF810BD904010BD00F0004230F00040DC
:1005F0000AD0C10D01F56071C0F3160042EA015145
:10060000C20840071143704700200146704730B5CB
:100610000B46014600202022012409E021FA02F5C0
:100620009D4205D303FA02F5491B04FA02F528445A
:10063000151EA2F10102F1DC30BD202A04DB203AB4
:1006400000FA02F1002070479140C2F1200320FA25
:1006500003F3194390407047202A04DB203A21FA23
:1006600002F00021704721FA02F3D040C2F12002CB
:100670009140084319467047202A06DBCB17203AE1
:1006800041FA02F043EAE07306E041FA02F3D04097
:10069000C2F12002914008431946704710B5141E5C
:1006A00073F1000408DA401C41F1000192185B412B
:1006B0001A4301D120F0010010BD2DE9F04D924602
:1006C0009B4611B1B1FA81F202E0B0FA80F2203219
:1006D0009046FFF7B2FF04460F4640EA0A0041EA9F
:1006E0000B0153465A46084313D0114653EA010002
:1006F00019D0C8F140025046FFF7AEFF05460E463E
:10070000504659464246FFF798FF084305D001205E
:1007100004E020463946BDE8F08D0020054346EA56
:10072000E0762C4337430A986305E40AA0EB0800FF
:100730000022FD0A44EA47540A3002D5002001464F
:10074000E9E7010510196941DDE90845001969412A
:10075000BDE8F04DA2E7C1F30A52C1F3130140F224
:10076000FF3341F480119A4202DA002001467047BB
:1007700040F233439A42A2F2334202DC5242FFF784
:100780006BBFFFF75ABF000030B5041E71F10004C3
:1007900004DB4FF00044404264EB0101141E73F18E
:1007A000000405DB1C464FF00043524263EB040398
:1007B000994208BF904230BD064C074D06E0E06804
:1007C00040F0010394E8070098471034AC42F6D398
:1007D000FFF7DEFCD8430108F843010880B584B078
:1007E0008DF80F000020C4F2020001902021029138
:1007F000002200F0F5FE6420009003F017F99DF848
:100800000F0000F027F9009803F010F90198029901
:10081000012200F0E5FE04B080BD000080B582B08A
:100820000A2000F083FF0020C4F202000190202182
:100830000122009200F0D4FE009A0198402100F0BD
:10084000CFFE01988021002200F0CAFE00F002F8DD
:1008500002B080BD80B588B00020C4F202000390D1
:1008600040210022029200F0BBFE039820210122C9
:10087000059200F0B5FE029A03988021049100F0E1
:10088000AFFE03980499059A00F0AAFE4FF47A701F
:10089000079000F003FC11200690FFF79FFF0798D8
:1008A00000F0FCFB0620FFF799FF079800F0F6FB2D
:1008B0000698FFF793FF079800F0F0FBFFE740F280
:1008C000F060C2F2000001780020732901900AD084
:1008D000FFE740F2F060C2F200000078533818BF22
:1008E00001200190FFE70198C00770B1FFE72020C9
:1008F000002100F033F840F2F061C2F2000108700C
:100900004FF47A7000F0CAFBD9E740F2E861C2F216
:100910000001012008704220A32100F01FF80A20E6
:1009200000F0BCFB41200221009100F017F84420A8
:10093000002100F013F84520152100F00FF84620A3
:100940002C2100F00BF80099492000F007F84A200C
:10095000032100F003F808B080BD000080B582B02C
:100960008DF806008DF805100020C4F20200202149
:100970000022009200F034FE642003F057F89DF846
:10098000060000F067F8009800F064F89DF8060093
:100990008006002806D5FFE7002000F05BF88DF800
:1009A000070012E09DF8050000F054F8FFE764200E
:1009B00003F03CF80020C4F202002021012200F0E4
:1009C0000FFE00208DF80700FFE79DF8070002B03A
:1009D00080BD000080B584B00020C4F20200202158
:1009E0000022019200F0FCFD01980290FFE70298BE
:1009F000092805DCFFE7FFE7029801300290F6E7DF
:100A000000200390FFE7039808280EDCFFE7FF2093
:100A100000F020F8039A40F2DF61C2F2000188542E
:100A2000FFE7039801300390EDE700200290FFE715
:100A30000298092805DCFFE7FFE7029801300290E1
:100A4000F6E70020C4F202002021012200F0C8FDD8
:100A500004B080BD80B582B08DF807009DF8070016
:100A60008DF8060000208DF8050069460A20086010
:100A700040F67440C2F200000DF106010DF10502CE
:100A8000012301F0A9FD9DF8050002B080BD000022
:100A900080B51020FFF7A2FE0020C4F20200402122
:100AA000012200F09DFD0A2000F04AFE80BD0000FA
:100AB000FFE7FEE781B041F20400CEF200000068DB
:100AC0000090009840F22C01C2F2000109688842AF
:100AD00008D2FFE740F23001C2F20001086801309D
:100AE0000860FFE7009840F22C01C2F200010860A4
:100AF00001B0704780B584B0039041F20400CEF29B
:100B0000000000680290029803990968401A00EEFC
:100B1000100AB8EE400A40F22000C2F2000090ED48
:100B2000001AB8EE411A80EE010A8DED010A029812
:100B300003990860FFF7BEFF9DED010A04B080BD78
:100B400081B000904EF6FC51CEF20001086840F0F2
:100B50008070086041F20401CEF2000100200860BC
:100B600041F20002CEF20002116841F00101116071
:100B7000009944F24022C0F20F024A4340F22001A1
:100B8000C2F200010A600A6844F6D353C1F262035C
:100B9000A2FB0332920940F22403C2F200031A605E
:100BA00009684DF68362C4F21B32A1FB0221890C55
:100BB00040F22802C2F20002116040F23001C2F29B
:100BC0000001086001B070477047000080B5102038
:100BD00000F00EFB40F2DE60C2F20000007848B97F
:100BE000FFE7FFF7F7FE40F2DE61C2F200010120ED
:100BF0000870FFE780BD000072B6FFE7FEE7000067
:100C000080B58EB0ADF83600BDF9360040F20E0169
:100C1000C2F20001B1F90010884201D1FFE700E102
:100C2000BDF8360040F20E01C2F200010880FFE775
:100C300040F2C060C2F20000079007F09FF80798EA
:100C4000BDF9361007F0C6F8079800210B910A91FC
:100C5000A021099181680891006808B9FFE7E0E0E8
:100C600040F2C061C2F200018868C96888423FDC76
:100C7000FFE7FFE7089840F2C061C2F20001C968CF
:100C8000884234DCFFE740F2C060C2F200004068F6
:100C9000089950F82100FFF75EFC41EC100B099910
:100CA00048F22870C0F6000000EBC10090ED001B78
:100CB0009DED0A2B8DED042B53EC112B51EC100BF9
:100CC000FFF768FB9DED040B41EC110B51EC110B90
:100CD00053EC102BFFF7B7FA41EC100B8DED0A0B1C
:100CE000099801380990089801300890C2E781E01E
:100CF000FFE7089840F2C061C2F2000109690139BA
:100D0000884235DCFFE740F2C060C2F20000406874
:100D1000089950F82100FFF71EFC41EC100B0999CF
:100D200048F22870C0F6000000EBC10090ED001BF7
:100D30009DED0A2B8DED022B53EC112B51EC100B7A
:100D4000FFF728FB9DED020B41EC110B51EC110B51
:100D500053EC102BFFF777FA41EC100B8DED0A0BDB
:100D6000099801380990FFE7089801300890C0E71A
:100D700000200890FFE7089840F2C061C2F200012D
:100D8000C968884235DCFFE740F2C060C2F200006B
:100D90004068089950F82100FFF7DDFB41EC100B8B
:100DA000099948F22870C0F6000000EBC10090EDF0
:100DB000001B9DED0A2B8DED002B53EC112B51ECFC
:100DC000100BFFF7E7FA9DED000B41EC110B51EC16
:100DD000110B53EC102BFFF736FA41EC100B8DED95
:100DE0000A0B099801380990FFE70898013008902C
:100DF000C1E7FFE7FFE79DED0A0B51EC100B9FEDFC
:100E00000A0B53EC102BFFF7C5FA41EC100B51EC19
:100E1000100BFFF7B1FB40F2D461C2F20001088071
:100E2000FFE70EB080BD00BF0000000000001040D2
:100E300080B584B040F2C060C2F2000040F23C4194
:100E4000C2F20001A12206F083FF01200390FFE718
:100E50000398A1280CDCFFE740F2C060C2F200005A
:100E6000002106F0B7FFFFE7039801300390EFE79A
:100E70004FF4FA6000F012F900200290FFE70298A8
:100E8000A02823DCFFE70299019148F22870C0F600
:100E9000000000EBC10090ED000B51EC100B9FED3A
:100EA0000C0B53EC102BFFF775FA0A46019942EC34
:100EB000100B40F25070C2F2000000EBC10080ED58
:100EC000000BFFE7029801300290D8E704B080BD24
:100ED000000000000000F04080B584B00390029153
:100EE000019200930098B0F5804F1DD1FFE7039861
:100EF000019950F821000021CCF6F0710840029BC6
:100F00001968D3F804E0D3F808C0DA6841EA0E1192
:100F100041EA0C219B69194341EA024108430399C4
:100F2000019A41F8220006E00399019A6FF070409F
:100F300041F82200FFE7002004B080BD80B585B0F5
:100F40000490039104990398026851F8220020F05C
:100F5000010041F8220003988068082803D1FFE7C8
:100F60004020029002E000200290FFE702980399DF
:100F7000D1F804E0D1F808C0CB680A6940EA0E0055
:100F800040EA0C00184310434A691043CA691043F1
:100F90000A6A10434A6A10438A6A1043CA6A1043B5
:100FA000096B0843019003988169019808430190F7
:100FB0000398C16B0198084301904FF67F30C0F24F
:100FC00008000090009840F480600090009840F481
:100FD000E020009004980399096850F821000099D6
:100FE0008843019908430499039A126841F8220042
:100FF000002005B080BD000080B583B00290019153
:1010000000920298009900EB8100406800F0404097
:10101000019A1168D2F804E0D2F808C0D36841EA16
:101020000E1141EA0C2141EA0341D2F810C000231D
:10103000CFF6F07303EB0C5319435369FE3341EAC7
:1010400003619269114308430299009A01EB8201FE
:101050004860002003B080BD82B00090009890F8F6
:101060003500022807D0FFE700998020486501205D
:101070008DF807000EE00099052081F835000098F2
:101080000168086820F001000860FFE700208DF883
:101090000700FFE79DF8070002B0704780B584B0F5
:1010A000039000F0B5FA0290039801900198013086
:1010B00048B1FFE740F21000C2F200000178019849
:1010C00008440190FFE7FFE700F0A2FA0299401AF6
:1010D0000199884201D2FFE7F6E704B080BD000025
:1010E00080B58CB000200B900A9009900890079072
:1010F00040F2D860C2F20000006808B1FFE76EE07D
:1011000040F2D861C2F2000101200860FFE7002030
:10111000069043F63800C4F20200016841F0010174
:101120000160006800F0010006900698FFE74FF4A8
:1011300080500590079002200090089000200190B8
:101140000990032002900A900C2003900B9041F22A
:101150000040C4F2020007A9049100F065F8DDF830
:1011600000C0019B029A039804994FF6807ECDF847
:101170001CE0CDF820C009930A920B9041F20000C8
:10118000C4F2020000F050F8DDF800C0019B029AA2
:10119000039804994CF2337ECDF81CE0CDF820C0C2
:1011A00009930A920B9040F60040C4F2020000F04E
:1011B0003BF8DDF800C0019B029A03980499DDF822
:1011C00014E0CDF81CE0CDF820C009930A920B90F2
:1011D00041F60000C4F2020000F026F8FFE70CB070
:1011E00080BD000081B0ADF8020001B07047000082
:1011F00080B582B0ADF8060043F61440C4F2010099
:101200000068BDF8061008420CD0FFE7BDF80600E4
:1012100043F61441C4F201010860BDF80600FFF76F
:10122000E1FFFFE702B080BD8EB00D900C91002071
:101230000A90099008900B90FFE70B980F2800F296
:10124000CC81FFE70B99012088400A900C98006838
:101250000A990840099009980A99884240F0B88193
:10126000FFE70C98406800F00300012807D0FFE773
:101270000C98406800F0030002282FD1FFE70D987A
:10128000806808900B984100032000FA01F108984B
:10129000884308900C98C0680B99490000FA01F146
:1012A00008980843089008980D9988600D98406840
:1012B00008900B99012000FA01F1089888430890E2
:1012C0000C984068C0F300100B9900FA01F10898DF
:1012D0000843089008980D994860FFE70C9840680B
:1012E00000F00300032818D0FFE70D98C0680890AD
:1012F0000B984100032000FA01F1089888430890F8
:101300000C9880680B99490000FA01F1089808438D
:10131000089008980D99C860FFE70C98406800F0A5
:101320000300022826D1FFE70D980B996FF0030206
:1013300002EA51010844006A08900B9800F0070087
:1013400081000F2000FA01F10898884308900C985A
:1013500000690B9901F00701890000FA01F1089872
:101360000843089008980D990B9B02EA5302114418
:101370000862FFE70D98006808900B984100032071
:1013800000FA01F10898884308900C98406800F032
:1013900003000B99490000FA01F1089808430890EE
:1013A00008980D9908600C9880798007002800F053
:1013B0000E81FFE7FFE70020079043F64400C4F2E8
:1013C0000200016841F480410160006800F480403F
:1013D00007900798FFE70B9820F0030043F60801F9
:1013E000C4F20101405808900B9800F003008100FE
:1013F0000F2000FA01F10898884308900D98002109
:10140000C4F20201884203D1FFE7002006905EE0AB
:101410000D9840F20041C4F20201884203D1FFE777
:101420000120059050E00D9840F60001C4F2020141
:10143000884203D1FFE70220049042E00D9840F675
:101440000041C4F20201884203D1FFE70320039068
:1014500034E00D9841F20001C4F20201884203D148
:10146000FFE70420029026E00D9841F20041C4F20B
:101470000201884203D1FFE70520019018E00D9892
:1014800041F60001C4F20201884203D1FFE70620C1
:1014900000900AE00D9941F60042C4F202020820D1
:1014A000914208BF07200090FFE700980190FFE7F6
:1014B00001980290FFE702980390FFE703980490D9
:1014C000FFE704980590FFE705980690FFE7069868
:1014D000C0B20B9901F00301890000FA01F10898EC
:1014E0000843089008980B9921F0030143F608027D
:1014F000C4F20102885043F60840C4F201000068BB
:10150000089009990898884308900C988079C0063B
:10151000002805D5FFE70999089808430890FFE7D8
:10152000089843F60841C4F20101086043F60C40F4
:10153000C4F201000068089009990898884308904F
:101540000C9880798006002805D5FFE7099908984E
:1015500008430890FFE7089843F60C41C4F20101E4
:10156000086043F60440C4F201000068089009993D
:101570000898884308900C9880798007002805D542
:10158000FFE70999089808430890FFE7089843F691
:101590000441C4F20101086043F60040C4F20100B6
:1015A0000068089009990898884308900C988079F9
:1015B000C00728B1FFE70999089808430890FFE79A
:1015C000089843F60041C4F201010860FFE7FFE715
:1015D000FFE70B9801300B902FE60EB0704700002C
:1015E00082B00190ADF802108DF801209DF8010045
:1015F00028B1FFE7BDF802000199886105E0BDF858
:101600000200000401998861FFE702B07047000002
:1016100040F6A450C2F200000068704740F210008B
:10162000C2F20000027840F6A451C2F2000108683C
:10163000104408607047000080B543F60041C4F2D2
:101640000201086840F400700860086840F4806097
:101650000860086840F480700860032000F094F887
:101660000F2000F005F800F03BF8002080BD0000DE
:1016700080B582B0009040F20400C2F20000006821
:1016800040F21001C2F200010A784FF47A71B1FB06
:10169000F2F1B0FBF1F001F0B9F920B1FFE7012060
:1016A0008DF8070018E000980F280DD8FFE7009983
:1016B0004FF0FF30002200F04DF8009840F2140186
:1016C000C2F20001086003E001208DF8070003E08A
:1016D00000208DF80700FFE79DF8070002B080BDED
:1016E00082B0FFE70020019043F64400C4F20200FC
:1016F000016841F480410160006800F4804001907D
:101700000198FFE7FFE70020009043F64000C4F295
:101710000200016841F080510160006800F08050D3
:1017200000900098FFE702B07047000080B582B0DB
:101730008DF807009DF9070001F072FF02B080BD2F
:1017400080B582B08DF807009DF9070001F084FF95
:1017500002B080BD80B586B08DF817000491039269
:101760000020029001F090FF02909DF91700019077
:1017700002980499039A01F017FC0146019801F0C0
:101780008BFF06B080BD000080B582B0019001984B
:1017900001F0A4FF02B080BD80B584B00290019139
:1017A000029820B9FFE701208DF80F0021E1019890
:1017B00043F60041C4F20201096801F007018842C2
:1017C00012D9FFE7019943F60040C4F2020001700C
:1017D000006800F007000199884204D0FFE701206B
:1017E0008DF80F0005E1FFE70298007880070028D8
:1017F0002AD5FFE7029800784007002809D5FFE7BF
:1018000043F60801C4F20201086840F4E0500860A1
:10181000FFE7029800780007002809D5FFE743F6A4
:101820000801C4F20201086840F460400860FFE764
:1018300043F60801C4F20201086820F0F000029AA1
:10184000926810430860FFE702980078C0070028FC
:101850006ED0FFE702984068012811D1FFE743F6F8
:101860000000C4F20200006800F400310020B0EB78
:10187000514F04D1FFE701208DF80F00B9E02CE0B3
:1018800002984068022805D0FFE7029840680328C4
:1018900011D1FFE743F60000C4F20200006800F037
:1018A00000710020B0EB516F04D1FFE701208DF8EB
:1018B0000F009EE010E043F60000C4F20200006852
:1018C00000F002010020B0EB510F04D1FFE701202E
:1018D0008DF80F008DE0FFE7FFE743F60801C4F243
:1018E0000201086820F00300029A52681043086061
:1018F000FFF78EFE0090FFE743F60800C4F20200F7
:10190000006800F00C0002994968B0EB810F0ED01E
:10191000FFE7FFF77DFE0099401A41F289318842C6
:1019200004D3FFE703208DF80F0062E0E4E7FFE750
:10193000019843F60041C4F20201096801F0070171
:10194000884212D2FFE7019943F60040C4F2020038
:101950000170006800F007000199884204D0FFE799
:1019600001208DF80F0044E0FFE70298007840075F
:1019700000280CD5FFE743F60801C4F2020108680D
:1019800020F4E050029AD26810430860FFE7029802
:101990000078000700280DD5FFE743F60801C4F2E0
:1019A0000201086820F46040029A126940EAC2000D
:1019B0000860FFE700F04CF843F60801C4F20201AA
:1019C0000968C9B20A0948F20E71C0F60001895CC3
:1019D000C84040F20401C2F20001086040F2140065
:1019E000C2F200000068FFF743FE00208DF80F00F0
:1019F000FFE79DF80F0004B080BD000040F2040036
:101A0000C2F200000068704780B5FFF7F7FF43F6A9
:101A10000801C4F202010968C1F3822248F21E7172
:101A2000C0F60001895CC84080BD000080B5FFF7AA
:101A3000E5FF43F60801C4F20201096889B24A0BC6
:101A400048F21E71C0F60001895CC84080BD0000EC
:101A500080B586B00020059004900390029043F674
:101A60000800C4F20200006800F00C000146019179
:101A700040B1FFE7019804280AD0FFE70198082841
:101A80000CD04FE042F20040C0F2F40002904FE070
:101A900041F20020C0F27A00029049E043F60400CF
:101AA000C4F20200016801F03F01059100684002A4
:101AB000002813D5FFE743F60400C4F202000068D3
:101AC000C0F3881041F20021C0F27A01A0FB0101AD
:101AD000059A0023FEF774FB049012E043F604001D
:101AE000C4F202000068C0F3881042F20041C0F264
:101AF000F401A0FB0101059A0023FEF761FB0490AD
:101B0000FFE743F60400C4F20200006800F440312D
:101B1000022000EBD130039004980399B0FBF1F060
:101B2000029005E042F20040C0F2F4000290FFE7AC
:101B3000029806B080BD000080B586B0049004987D
:101B400020B9FFE701208DF8170050E304980078D2
:101B5000C007002800F0A580FFE743F60800C4F2A4
:101B60000200006800F00C00042813D0FFE743F6E1
:101B70000800C4F20200006800F00C0008281ED122
:101B8000FFE743F60400C4F20200006840020028A8
:101B900015D5FFE743F60000C4F20200006800F428
:101BA00000310020B0EB514F08D0FFE704984068A7
:101BB00020B9FFE701208DF8170018E370E0FFE778
:101BC00004984068B0F5803F09D1FFE743F6000173
:101BD000C4F20201086840F48030086020E00498F4
:101BE0004068B0F5A02F0DD1FFE743F60001C4F225
:101BF0000201086840F480200860086840F48030E2
:101C000008600CE043F60001C4F20201086820F409
:101C100080300860086820F480200860FFE7FFE754
:101C2000FFE704984068E8B1FFE7FFF7F1FC039095
:101C3000FFE743F60000C4F20200006800F4003140
:101C40000020B0EB514F0CD1FFE7FFF7E1FC039907
:101C5000401A652804D3FFE703208DF81700C6E279
:101C6000E7E71CE0FFF7D4FC0390FFE743F6000032
:101C7000C4F20200006800F400310020B0EB514FC4
:101C80000CD0FFE7FFF7C4FC0399401A652804D382
:101C9000FFE703208DF81700A9E2E7E7FFE7FFE77A
:101CA000FFE7049800788007002840F19680FFE75E
:101CB00043F60800C4F20200006810F00C0F13D0C5
:101CC000FFE743F60800C4F20200006800F00C00D1
:101CD00008282CD1FFE743F60400C4F20200006894
:101CE0004002002823D4FFE743F60000C4F20200BC
:101CF000006800F002010020B0EB510F09D0FFE7AF
:101D00000498C068012804D0FFE701208DF817006F
:101D10006DE243F60001C4F20201086820F0F80009
:101D2000049A126940EAC2000860FFE754E0049890
:101D3000C06870B3FFE70021C4F2472101200860AA
:101D4000FFF766FC0390FFE743F60000C4F20200D1
:101D5000006800F002010020B0EB510F0CD1FFE74A
:101D6000FFF756FC0399401A032804D3FFE703202A
:101D70008DF817003BE2E7E743F60001C4F20201E9
:101D8000086820F0F800049A126940EAC20008606E
:101D900021E00021C4F2472100200860FFF738FC51
:101DA0000390FFE743F60000C4F20200006800F071
:101DB00002010020B0EB510F0CD0FFE7FFF728FC29
:101DC0000399401A032804D3FFE703208DF8170076
:101DD0000DE2E7E7FFE7FFE7FFE704980078000779
:101DE00000284BD5FFE70498406918B3FFE740F699
:101DF0008061C4F2472101200860FFF709FC0390CD
:101E0000FFE743F67400C4F20200006800F002012C
:101E10000020B0EB510F0CD1FFE7FFF7F9FB03995E
:101E2000401A032804D3FFE703208DF81700DEE1F2
:101E3000E7E722E040F68061C4F247210020086015
:101E4000FFF7E6FB0390FFE743F67400C4F20200DD
:101E5000006800F002010020B0EB510F0CD0FFE74A
:101E6000FFF7D6FB0399401A032804D3FFE70320AA
:101E70008DF81700BBE1E7E7FFE7FFE7049800787C
:101E80004007002840F1CE80FFE700208DF80700D2
:101E900043F64000C4F202000068C000002815D4D8
:101EA000FFE7FFE70020009043F64000C4F2020085
:101EB000016841F080510160006800F0805000909E
:101EC0000098FFE701208DF80700FFE747F20000C8
:101ED000C4F200000068C005002822D4FFE747F2E2
:101EE0000001C4F20001086840F480700860FFF748
:101EF0008FFB0390FFE747F20000C4F20000006888
:101F0000C00500280CD4FFE7FFF782FB0399401AB5
:101F1000032804D3FFE703208DF8170067E1EAE701
:101F2000FFE7FFE704988068012809D1FFE743F63F
:101F30007001C4F20201086840F0010008601FE06F
:101F40000498806805280DD1FFE743F67001C4F2BC
:101F50000201086840F004000860086840F00100D1
:101F600008600CE043F67001C4F20201086820F03A
:101F700001000860086820F004000860FFE7FFE740
:101F8000FFE704988068F8B1FFE7FFF741FB039093
:101F9000FFE743F67000C4F20200006800F002019F
:101FA0000020B0EB510F0ED1FFE7FFF731FB039993
:101FB000401A41F28931884204D3FFE703208DF8AB
:101FC000170014E1E5E71EE0FFF722FB0390FFE7AF
:101FD00043F67000C4F20200006800F00201002025
:101FE000B0EB510F0ED0FFE7FFF712FB0399401A39
:101FF00041F28931884204D3FFE703208DF81700AE
:10200000F5E0E5E7FFE79DF80700012809D1FFE7C4
:1020100043F64001C4F20201086820F080500860D5
:10202000FFE7FFE704988069002800F0DC80FFE705
:1020300043F60800C4F20200006800F00C00082813
:1020400000F08580FFE70498806902285CD1FFE7F3
:102050006021C4F2472100200860FFF7D9FA0390FD
:10206000FFE743F60000C4F20200006800F00071D0
:102070000020B0EB516F0CD0FFE7FFF7C9FA0399CE
:10208000401A032804D3FFE703208DF81700AEE0C1
:10209000E7E70499C869D1F820C04B6A8A6A40EA28
:1020A0000C0040EA8310D2034FF6FF739A43A2F567
:1020B00080321043C96A40EA016043F60401C4F269
:1020C000020108606021C4F2472101200860FFF787
:1020D0009FFA0390FFE743F60000C4F20200006895
:1020E00000F000710020B0EB516F0CD1FFE7FFF75B
:1020F0008FFA0399401A032804D3FFE703208DF8D1
:10210000170074E0E7E721E06021C4F247210020D6
:102110000860FFF77DFA0390FFE743F60000C4F282
:102120000200006800F000710020B0EB516F0CD08D
:10213000FFE7FFF76DFA0399401A032804D3FFE77E
:1021400003208DF8170052E0E7E7FFE74AE0049824
:102150008069012804D1FFE701208DF8170046E0CF
:1021600043F60400C4F202000068029004988069FB
:10217000012831D0FFE7029800F480000499C96972
:10218000884229D1FFE7029800F03F000499096ACC
:10219000884221D1FFE7029847F6C07108400499B0
:1021A000496AB0EB811F17D1FFE7029800F4403075
:1021B0000499896AC9034FF6FF729143A1F58031F2
:1021C000884209D1FFE7029800F070600499C96A5B
:1021D000B0EB016F04D0FFE701208DF8170006E097
:1021E000FFE7FFE7FFE700208DF81700FFE79DF806
:1021F000170006B080BD000081B0009001B07047AC
:1022000080B588B0079007980068406806900798E6
:102210000068806805909DF8140000F040010020DF
:10222000B0EB911F11D1FFE70598C00768B1FFE738
:102230009DF8180000F040010020B0EB911F04D081
:10224000FFE70798016C8847F0E09DF8140000F064
:1022500002010020B0EB510F0BD0FFE79DF81810E2
:102260000020B0EBD11F04D0FFE70798416C8847EE
:10227000DCE09DF8140000F020010020B0EB511FBD
:1022800010D1FFE79DF8140000F040010020B0EBF2
:10229000911F07D1FFE79DF81500C007002800F047
:1022A000C580FFE79DF8180000F020010020B0EB8A
:1022B000511F00F0BB80FFE79DF8140000F04001C3
:1022C0000020B0EB911F28D0FFE7079890F851004D
:1022D000032813D0FFE70799486D40F004004865D4
:1022E000FFE70020049007980068C06804900798F2
:1022F0000068806804900498FFE70DE0FFE7002085
:10230000039007980068C068039007980068806889
:1023100003900398FFE789E0FFE79DF8140000F0C1
:1023200020010020B0EB511F15D0FFE70799486D41
:1023300040F001004865FFE7002002900798006820
:102340008068029007980168086820F040000860E3
:102350000298FFE7FFE79DF81500C00778B1FFE797
:102360000799486D40F008004865FFE7002001909C
:1023700007980068806801900198FFE7FFE70798D9
:10238000406D002851D0FFE707980168486820F0A9
:10239000E00048600799012081F85100069800F09C
:1023A0000200022805D0FFE79DF81800C007B8B367
:1023B000FFE707980168486820F003004860079825
:1023C000C06CA0B1FFE70798C16C43F22900C0F6CA
:1023D000000008650798C06CFEF73EFE30B1FFE7CD
:1023E0000799486D40F040004865FFE7FFE7079810
:1023F000806CA0B1FFE70798816C43F22900C0F61A
:10240000000008650798806CFEF726FE30B1FFE7F4
:102410000799486D40F040004865FFE7FFE703E09B
:102420000798FFF7E9FEFFE7FFE7FFE708B080BD89
:1024300080B584B00290029820B9FFE701208DF8A2
:102440000F0071E00298406A60B9FFE702984068A7
:10245000B0F5827F01D1FFE703E002990020C86157
:10246000FFE705E002990020086102994861FFE753
:10247000029900208862029890F8510040B9FFE765
:102480000299002081F85000029800F051F8FFE70F
:102490000299022081F8510002980168086820F032
:1024A00040000860029A019211685068D2F808C092
:1024B000D36800F482700CF4044C604403F40063AD
:1024C0001844136903F002031844536903F001032D
:1024D0001844936903F400731844D36903F0380374
:1024E0001844136A03F080031843926A02F40052FE
:1024F00010430860029A508B00F004001168526A81
:1025000002F010021044486002980168C86920F483
:102510000060C861029900204865029A012182F892
:1025200051108DF80F00FFE79DF80F0004B080BD3B
:1025300080B58AB009900020089007900690059019
:1025400004900998006843F60041C4F200018842F3
:102550003FD1FFE7FFE70020039043F64000C4F2BD
:102560000200016841F400410160006800F400408D
:1025700003900398FFE7FFE70020029043F6300046
:10258000C4F20200016841F004010160006800F03B
:10259000040002900298FFE74FF4E05004900220FC
:1025A00005900020009006900320079006200890D8
:1025B00040F60000C4F2020004A9FEF735FE009ABE
:1025C000332001901146FFF7C5F80198FFF7B8F8DE
:1025D000FFE70AB080BD000080B58CB0DDF838C0E0
:1025E0000A9009910892ADF81E3001200390FFF780
:1025F0000FF804900A9890F851008DF817000A9887
:1026000040680690BDF81E00ADF81C009DF817004C
:10261000012812D0FFE70698B0F5827F09D1FFE7C5
:102620000A98806828B9FFE79DF81700042804D0AD
:10263000FFE702208DF82F009BE1099838B1FFE7F2
:10264000089820B1FFE7BDF81E0020B9FFE7012080
:102650008DF82F008DE1FFE70A9890F850000128CF
:1026600004D1FFE702208DF82F0082E10A990120B2
:1026700081F85000FFE7FFE70A9890F8510004281E
:1026800005D0FFE70A99052081F85100FFE70A9974
:102690000020486508990A9A9163BDF81E100A9AAD
:1026A000D187BDF81E100A9A918709990A9A116379
:1026B000BDF81E100A9AD186BDF81E100A9A91869E
:1026C0000A9908640A9948640A980068006800F04A
:1026D0004000402807D0FFE70A980168086840F0EA
:1026E00040000860FFE70A98C068B0F5006F40F04E
:1026F0008180FFE70A98406828B1FFE7BDF81C0019
:1027000001280ED1FFE70A980168006B0088C860B5
:102710000A99086B023008630A99C88E0138C88686
:10272000FFE7FFE70A98C18E0120019039B9FFE762
:102730000A98C08F002818BF01200190FFE7019878
:10274000C007002855D0FFE70A9800688068800716
:10275000002818D5FFE70A98C08EA0B1FFE70398BC
:10276000012810D1FFE70A980168006B0088C86053
:102770000A99086B023008630A99C88E0138C88626
:1027800000200390FFE70A9800688068C007A8B19E
:10279000FFE70A98C08F88B1FFE70A980068C06811
:1027A0000A99896B08800A99886B023088630A99B4
:1027B000C88F0138C88701200390FFE7FEF728FF84
:1027C0000499401A0E99884212D3FFE70E980130FF
:1027D00070B1FFE70A99012081F85100FFE70A99DB
:1027E000002081F85000FFE703208DF82F00C0E0A3
:1027F00098E782E00A98406828B1FFE7BDF81C001E
:1028000001280ED1FFE70A980168006B0078087371
:102810000A99086B013008630A99C88E0138C88686
:10282000FFE7FFE70A98C18E0120009039B9FFE762
:102830000A98C08F002818BF01200090FFE7009879
:10284000C007002858D0FFE70A9800688068800712
:10285000002818D5FFE70A98C08EA0B1FFE70398BB
:10286000012810D1FFE70A980168006B007808730F
:102870000A99086B013008630A99C88E0138C88626
:1028800000200390FFE70A9800688068C007A8B19D
:10289000FFE70A98C08F88B1FFE70A980068C06810
:1028A0000A99896B08700A99886B013088630A99C4
:1028B000C88F0138C88701200390FFE7FEF7A8FE04
:1028C0000499401A0E99884204D3FFE70E9801300C
:1028D00018B9FFE70E9870B9FFE70A99012081F84F
:1028E0005100FFE70A99002081F85000FFE703201C
:1028F0008DF82F003DE095E7FFE70A980E99049ABE
:1029000000F0A2FB68B1FFE70A9920204865FFE7C5
:102910000A99002081F85000FFE701208DF82F0070
:1029200027E00A98806870B9FFE7FFE7002002906F
:102930000A980068C06802900A980068806802904F
:102940000298FFE7FFE70A99012081F85100FFE7AD
:102950000A99002081F85000FFE70A98406D20B1E5
:10296000FFE701208DF82F0003E000208DF82F00F5
:10297000FFE79DF82F000CB080BD000080B584B04B
:10298000029001910092029820B9FFE701208DF892
:102990000F002FE0029890F8490040B9FFE7029934
:1029A000002081F84800029800F028F8FFE702991B
:1029B00051F8080BFEF7C2FA029A01991068926862
:1029C000FEF71AFB029B009958689A681B6BFEF78A
:1029D00083FA02980168826851F8220040F00100F1
:1029E00041F822000299012081F8490000208DF869
:1029F0000F00FFE79DF80F0004B080BD80B582B0E6
:102A00000190FEF76DFB02B080BD000080B582B082
:102A10000190019800F016FC02B080BD80B582B034
:102A20000090009820B9FFE701208DF8070040E0F2
:102A30000098806908B1FFE700E0FFE7009890F890
:102A4000410040B9FFE70099002081F8400000985C
:102A500000F034F8FFE70099242081F84100009845
:102A60000168C86820F40050C860009800F0CAFCF3
:102A700000980168086920F4904008610098016896
:102A8000486920F02A00486100980168C86840F44D
:102A90000050C860009900204864009A202182F804
:102AA0004110009A82F84210009948638DF807009F
:102AB000FFE79DF8070002B080BD000080B588B038
:102AC00007900020069005900490039002900798CC
:102AD000006841F20001C4F20101884234D1FFE7ED
:102AE000FFE70020019043F64400C4F202000168B1
:102AF00041F010010160006800F0100001900198A1
:102B0000FFE7FFE70020009043F63000C4F2020028
:102B1000016841F001010160006800F001000090CF
:102B20000098FFE74FF4C06002900220039000205D
:102B3000049003200590072006900020C4F20200B4
:102B400002A9FEF771FBFFE708B080BD80B58AB02F
:102B500008900791ADF81A2005930020029008987C
:102B600090F84100202840F08180FFE7079820B1CD
:102B7000FFE7BDF81A0020B9FFE701208DF8270014
:102B800078E00899002048640899212081F84100E4
:102B9000FEF73EFD0290BDF81A0008998884BDF842
:102BA0001A000899C88408988068B0F5805F09D138
:102BB000FFE70898006928B9FFE70020049007980C
:102BC000039004E00798049000200390FFE7FFE7DC
:102BD0000898C08C78B3FFE70898029B05996A466D
:102BE00011608021002200F0ABFC40B1FFE70899A2
:102BF000202081F8410003208DF827003AE0049856
:102C000058B9FFE7039800886FF35F2008990968B7
:102C1000486003980230039008E00498007808990F
:102C200009684860049801300490FFE70899C88C4F
:102C30000138C884CCE70898029B05996A46116060
:102C40004021002200F07CFC40B1FFE708992020E1
:102C500081F8410003208DF827000BE0089920201F
:102C600081F8410000208DF8270003E002208DF854
:102C70002700FFE79DF827000AB080BDFFE7FEE7C9
:102C800080B581B0ADF80200BDF8021040F2EA60F4
:102C9000C2F200000180028840F66C51C2F20001CD
:102CA0000B68D21A00EE102AB8EEC01A40F20802E1
:102CB000C2F2000292ED000A40F67053C2F2000325
:102CC00093ED002AB8EEC22A20EE020A30EE010A85
:102CD000BDEEC00A40F2EC62C2F2000282ED000AD0
:102CE000D2F800C040F2DC6EC2F2000EAEF800C0B6
:102CF00012681A600088086001B080BD80B590B08D
:102D0000002100910F910E910D910C910B910A9160
:102D100009910891079106910591049103910291FF
:102D200040F6CC40C2F2000001904FF02042026019
:102D300040F20412CAF20002426006228260C160C0
:102D40000161102343618161C161016241624FF4FD
:102D500080528262C1624FF48042026341638163A8
:102D600041644FF00F0CCDF824C0CDF828C0FF22ED
:102D70000B92CDF830C00D9311220E920F914FF0AF
:102D8000090ECDF808E0CDF80CC04FF0080CCDF8D6
:102D900010C0059106930792089109A902AAFFF7AE
:102DA000EDFD18B1FFE7FDF727FFFFE710B080BD8D
:102DB00080B592B00020119010900F900E900D9061
:102DC000FFE700200C9043F63000C4F202000168D7
:102DD00041F080010160006800F080000C900C98C8
:102DE000FFE7FFE700200B9043F63000C4F202003B
:102DF000016841F001010160006800F001000B90E2
:102E00000B98FFE7FFE700200A9043F63000C4F27A
:102E10000200016841F004010160006800F0040054
:102E20000A900A98FFE7FFE70020099043F6300078
:102E3000C4F20200016841F020010160006800F066
:102E4000200009900998FFE7FFE70020089043F66B
:102E50003000C4F20200016841F010010160006816
:102E600000F0100008900898FFE7FFE700200790A7
:102E700043F63000C4F20200016841F0080101602D
:102E8000006800F0080007900798FFE7FFE70020C0
:102E9000069043F63000C4F20200016841F04001A0
:102EA0000160006800F0400006900698FFE70020EF
:102EB000C4F202000190E021009100220492FEF78A
:102EC0008FFB009A019804990D92012202920E92B2
:102ED0000F91022110910DA90391FEF7A5F9029817
:102EE000039910220D924FF404120E920F9040F6A7
:102EF0000000C4F20200FEF797F9049A0A20059038
:102F00001146FEF727FC0598FEF71AFC12B080BDAB
:102F100080B582B040F67440C2F20000019043F6E2
:102F20000041C4F2000101604FF482714160002150
:102F30008160C1600161012242614FF400728261CF
:102F40002022C2610162416281620A21C162FFF7EF
:102F50006FFA18B1FFE7FDF74FFEFFE702B080BD43
:102F600080B582B040F61C50C2F20000019041F2E0
:102F70000001C4F2010101604FF4E1314160002120
:102F80008160C16001610C2242618161C161FFF712
:102F900045FD18B1FFE7FDF72FFEFFE702B080BD4A
:102FA000FFE7FEE7FFE7FEE788B00790069105928E
:102FB000079800F0070004900498C0F10700052866
:102FC00003D3FFE70420019004E00498C0F1070058
:102FD0000190FFE70198039004980430062803D875
:102FE000FFE70020009003E0049803380090FFE71B
:102FF0000098029006980399012202FA01F1013922
:103000000840029B984005999A40013A11400843B4
:1030100008B070477047000080B540F67440C2F2B7
:103020000000FFF7EDF880BD80B582B001900198F7
:10303000806B009000990020C8870099C88600988E
:10304000FFF7DAF802B080BD80B586B00490039136
:1030500002920498039B02996A46116002210122A0
:1030600000F058F848B1FFE70499486D40F020009F
:10307000486503208DF8170048E040F20400C2F2D2
:10308000000000684AF6AB21CAF6AA21A0FB011095
:1030900000094DF68361C4F21B31A0FB0110800CC6
:1030A0004FF47A714843019004984068B0F5827FEC
:1030B00015D1FFE70498039B02996A4611608021AD
:1030C000002200F027F848B1FFE70499486D40F06E
:1030D0002000486503208DF8170017E012E0FFE795
:1030E000019808B9FFE70CE0019801380190FFE76B
:1030F000049800688068C1B20020B0EBD11FEFD106
:10310000FFE7FFE700208DF81700FFE79DF81700A5
:1031100006B080BD80B58AB0DDF830C00890079158
:103120008DF81B20059305980190FEF771FA024671
:1031300001980C99891A08440390FEF769FA0290E5
:10314000039840F20401C2F200010968C1F3CB31D7
:1031500048430490FFE70898006880680799084092
:10316000401AB0FA80F040099DF81B1088425ED0EA
:10317000FFE705980130002858D0FFE7FEF748FA2E
:103180000299401A0399884204D2FFE70398002865
:1031900042D1FFE708980168486820F0E0004860E5
:1031A00008984068B0F5827F13D1FFE708988068DF
:1031B000B0F5004F06D0FFE708988068B0F5806F43
:1031C00007D1FFE708980168086820F04000086010
:1031D000FFE70898806AB0F5005F0FD1FFE7FFE7CF
:1031E00008980168086820F4005008600898016891
:1031F000086840F400500860FFE7FFE708990120E5
:1032000081F85100FFE70899002081F85000FFE79E
:1032100003208DF827000EE0049818B9FFE700207E
:103220000390FFE7049801380490FFE793E700203C
:103230008DF82700FFE79DF827000AB080BD000049
:103240007047000080B582B0009000980138B0F15E
:10325000807F03D3FFE70120019019E00098013837
:103260004EF21401CEF2000108604FF0FF300F2142
:1032700000F012FA4EF21801CEF2000100200860B0
:103280004EF21002CEF20002072111600190FFE71A
:10329000019802B080BD000080B5FEF7BFF980BD87
:1032A00080B594B008A83021FCF7C2FF0020079039
:1032B0000690059004900390FFE70020029043F6EB
:1032C0004000C4F20200016841F0805101600068D2
:1032D00000F0805002900298FFE7FFE70020019085
:1032E00047F20000C4F20000016841F4804101602F
:1032F000006800F4804001900198FFE701200890E9
:103300004FF48030099002210E914FF480000F900D
:1033100004201090A82211921291139008A8FEF791
:103320000BFC18B1FFE7FDF767FCFFE70F200390E8
:1033300002200490002005904FF4A05006904FF416
:103340008050079003A80521FEF726FA18B1FFE781
:10335000FDF752FCFFE714B080BD00004EF6885127
:10336000CEF20001086840F4700008607047000069
:1033700084B00390FFE7FFE70398006850E8030F6D
:1033800020F490700290FFE702990398026842E8E7
:1033900003100028F0D1FFE7FFE7FFE7FFE70398FE
:1033A000006850E8050F20F001000190FFE7019947
:1033B0000398026842E805100028F0D1FFE7FFE714
:1033C0000398006B012814D1FFE7FFE7FFE703989C
:1033D000006850E8030F20F010000090FFE700990C
:1033E0000398026842E803100028F0D1FFE7FFE7E6
:1033F000FFE70399202081F8420003990020086329
:1034000004B0704780B586B00590059800680069E3
:1034100020F44050059A1168D2681043086105995C
:1034200088680B694A69C9691843104308430490C6
:1034300005980068C06849F20C6188430499084304
:1034400005990968C86005980068406920F44070D3
:10345000059A11689269104348610598006841F225
:103460000001C4F20101884209D0FFE70598006815
:1034700041F20041C4F20101884204D1FFE7FEF7A6
:10348000D5FA039003E0FEF7BFFA0390FFE7059833
:10349000C069B0F5004F29D1FFE703981921A0FBBF
:1034A0000101059A1368029353685A00DB0FFCF779
:1034B00087FE0299864648F21F53C5F2EB13AEFB16
:1034C0000320420910014FF0640C02FB1CEC322275
:1034D00002EBCC02A2FB0332F82303EA521300EB07
:1034E0004300C2F342121044886026E00398192179
:1034F000A0FB0101059A1368019353689A009B0F82
:10350000FCF75EFE0199844648F21F52C5F2EB12A9
:10351000ACFB02304309642003FB10CC322000EBEB
:103520000C10A0FB0202F02000EA521000EB031086
:10353000C2F3431210448860FFE706B080BD00006C
:1035400080B586B0DDF820C0049003918DF80B2083
:103550000193FFE704980068006803990840401A47
:10356000B0FA80F040099DF80B1088424DD1FFE77A
:1035700008980130002847D0FFE7FEF749F8019985
:10358000401A0899884203D8FFE7089820B9FFE756
:1035900003208DF817003CE004980068C0684007DD
:1035A000002830D5FFE7039880282CD0FFE7039848
:1035B000402828D0FFE704980068006800F0080160
:1035C0000120B0EBD10F1DD1FFE7FFE700200090F5
:1035D00004980068006800900498006840680090B3
:1035E0000098FFE70498FFF7C3FE04990820486499
:1035F000FFE70499002081F84000FFE701208DF8E3
:10360000170006E0FFE7FFE7A4E700208DF81700AA
:10361000FFE79DF8170006B080BD0000FFE7FEE75A
:1036200081B08DF803009DF90300002812D4FFE754
:103630009DF9031001F01F02012090404A094EF24B
:103640008011CEF2000141F82200BFF34F8FBFF38B
:103650006F8FFFE701B0704781B08DF803009DF9CF
:10366000030000280ED4FFE79DF9031001F01F02AC
:10367000012090404A094EF20011CEF2000141F8BB
:103680002200FFE701B070474EF60C50CEF200006A
:103690000068C0F30220704782B08DF807000091E7
:1036A0009DF9070000280AD4FFE7009800019DF962
:1036B00007104EF20042CEF2000288540BE0009850
:1036C00000019DF8071001F00F014EF61452CEF2E2
:1036D00000028854FFE702B07047000083B00290F8
:1036E000029800F0070000904EF60C51CEF2000157
:1036F0000868019001984FF6FF0210400190019870
:10370000009A40EA02200022C0F2FA5210430190CF
:103710000198086003B0704784B00390ADF80A10B8
:103720008DF809208DF80830FF208DF80700002063
:103730008DF80700BDF80A000399088003994CF240
:10374000D830C0F6000048609DF8090003998870E1
:103750009DF808000399C8700398008801460091FD
:10376000102856D0FFE70098402841D0FFE7009886
:10377000B0F5807F2BD0FFE70098B0F5806F15D0B3
:10378000FFE70098B0F5805F56D1FFE7039901206D
:1037900088810399C881039948F63040C0F600003B
:1037A000886003994FF06650086149E0039904204E
:1037B00088810399C881039948F63040C0F600001B
:1037C0000630886003994FF06A50086138E0039929
:1037D000102088810399C881039948F63040C0F6CB
:1037E00000001E30886003994FF06E50086127E09A
:1037F0000399402088810399C881039948F6304095
:10380000C0F600007E30886003994FF07250086166
:1038100016E003994FF4807088810399C881039959
:1038200048F63040C0F6000000F5FF70886003994C
:103830004FF07650086103E0FF208DF80700FFE7A6
:103840009DF9070004B0704787B006900591049277
:103850000393002000900698811C06910088ADF823
:103860000800059801380190FFE70198D0B1FFE703
:103870000698811C06910088ADF80A00BDF9080081
:10388000BDF90A10884209DAFFE7BDF80A00ADF871
:10389000080005980199401A0090FFE70198013847
:1038A0000190E2E7BDF808000499088000980399A8
:1038B000086007B07047000087B006900591049239
:1038C0000393002000900698811C06910088ADF8B3
:1038D0000800059801380190FFE70198D0B1FFE793
:1038E0000698811C06910088ADF80A00BDF9080011
:1038F000BDF90A10884209DDFFE7BDF80A00ADF8FE
:10390000080005980199401A0090FFE701980138D6
:103910000190E2E7BDF80800049908800098039937
:10392000086007B07047000082B000208DF80700E3
:10393000FFE79DF8070001283EDCFFE79DF8072020
:1039400002EB420040F2DF63C2F200031844C07889
:1039500040F21801C2F20001009141F822009DF8E6
:10396000072051F82200000241F822009DF80720AC
:1039700002EB4200184490F804C051F8220040EADB
:103980000C0041F822009DF8072051F822000002A7
:1039900041F822009DF8072002EB420018444379C9
:1039A00051F82200184341F82200FFE79DF8070074
:1039B00001308DF80700BCE740F21801C2F20001A7
:1039C00008680012086048680012486008880860AB
:1039D000888848600A6840F23800C2F2000002801D
:1039E00049684180B0F9000000EE100AB8EEC00A44
:1039F0009FED071A20EE010A9FED061A80EE010ADC
:103A000040F2F460C2F2000080ED000A02B070479C
:103A100048E11A4000FEFF4680B582B0ADF80600CE
:103A2000BDF80600FDF73AFB02B080BD82B0019000
:103A300000200090FFE700980199884206D2FFE736
:103A400000BFFFE7009801300090F4E702B0704734
:103A500080B58AB0ADF8260040F68E50C2F2000064
:103A60000088ADF8200040F68A50C2F200000088BD
:103A7000ADF81E004FF6D870ADF81C002820ADF848
:103A80001A00BDF91C00BDF92610BDF92030C91A75
:103A9000BDF91A20121A5143BDF91E20D21A91FB0A
:103AA000F2F10844ADF81800BDF918004FF4967112
:103AB000484344F6D351C1F2620150FB01F1480979
:103AC00000EBD170C0F16E00ADF8220040F20C00A6
:103AD000C2F200000078E0B1FFE7BDF822100A2032
:103AE00005904FF6FF7200F0ABFA059840F668516A
:103AF000C2F200010880BDF8220040F66A51C2F20D
:103B00000001088040F20C01C2F2000100200870A0
:103B100047E040F66850C2F2000000880130ADF87E
:103B20002400BDF82400B0F5EB7F20DAFFE740F673
:103B30006850C2F200000390008840F66A51C2F259
:103B4000000104910988BDF82420BDF82230EE461A
:103B50004FF6FF7CCEF800C000F0DAF9039A049922
:103B6000BDF824001080BDF82200088018E0002075
:103B700000F098F8BDF822100A2002904FF6FF726C
:103B800000F05EFA029840F66851C2F20001088027
:103B9000BDF8220040F66A51C2F200010880FFE73A
:103BA000FFE70AB080BD000080B582B001900091AF
:103BB00040F61C50C2F2000001A901224FF0FF3371
:103BC000FEF7C4FF019802B080BD000083B00190F1
:103BD00040F68250C2F20000B0F9000000EB907095
:103BE00080104000009040F66C40C2F20000006877
:103BF000A8B9FFE740F66C41C2F20001012008605D
:103C0000019840F67041C2F200010860019840F648
:103C10006841C2F200010860002002903EE0019875
:103C200040F66841C2F200010968884207DCFFE7FC
:103C3000019840F66841C2F2000108602BE040F6AE
:103C40007040C2F20000006840F66841C2F2000114
:103C50000968401A009988420FDBFFE7019840F697
:103C60007041C2F200010860019840F66841C2F25A
:103C7000000108600120029010E0019840F67041B8
:103C8000C2F200010860019840F66841C2F20001EA
:103C90000860FFE7FFE700200290FFE7029803B00B
:103CA0007047000080B584B0ADF80E00002100918F
:103CB000029140F67450C2F20000028801924288DC
:103CC000019850430190084603F076FB03F07CFE18
:103CD00000980290FFE70298019988420BD2FFE713
:103CE000BDF80E008021C6F600410880FFE702986B
:103CF00001300290EFE704B080BD000080B582B0D3
:103D00008DF807009DF8070040F67451C2F20001DB
:103D100088719DF80700002840F08080FFE740F69A
:103D20007450C2F20000F02101804FF4A071418074
:103D3000808845F21051884214D1FFE740F6745153
:103D4000C2F200014FF4305008814FF428504881EE
:103D50004FF42C5088814FF4F07008804FF4487075
:103D6000488026E040F67450C2F20000808841F698
:103D70006311884211D1FFE740F67451C2F200018D
:103D80002C2008812B2048812A2088814FF4F07054
:103D900008804FF4487048800AE040F67451C2F23F
:103DA00000012C2008812A2048812B208881FFE7F0
:103DB000FFE740F67450C2F20000808845F21031EF
:103DC00088420AD0FFE740F67450C2F200008088B3
:103DD00047F2967188420BD1FFE740F67451C2F268
:103DE00000014FF4A07008804FF4F0704880FFE7A6
:103DF00040F67450C2F20000808849F606018842FD
:103E00000BD1FFE740F67451C2F200014FF4F0709D
:103E100008804FF448704880FFE773E040F6745024
:103E2000C2F200004FF4A0710180F021418080882F
:103E300045F21051884214D1FFE740F67451C2F2A6
:103E400000014FF4305008814FF4285048814FF45E
:103E50002C5088814FF4487008804FF4F0704880EF
:103E600030E040F67450C2F20000808841F66311E1
:103E700088420AD0FFE740F67450C2F20000808802
:103E800049F60601884211D1FFE740F67451C2F2AB
:103E900000012C2008812A2048812B2088814FF4A2
:103EA000487008804FF4F07048800AE040F6745182
:103EB000C2F200012C2008812A2048812B20888111
:103EC000FFE7FFE740F67450C2F20000808845F239
:103ED000103188420AD0FFE740F67450C2F2000069
:103EE000808847F2967188420BD1FFE740F6745103
:103EF000C2F200014FF4F07008804FF4A0704880C7
:103F0000FFE7FFE7002003F0A9F802B080BD000042
:103F100080B58CB084460E98ADF82EC0ADF82C104C
:103F2000ADF82A20ADF82830ADF826000020089022
:103F30000790BDF82A00BDF82E10401A0690BDF873
:103F40002800BDF82C10401A0590BDF82E000190F5
:103F5000BDF82C0000900698012803DBFFE7012044
:103F600003900DE0069818B9FFE70020039006E0E3
:103F70004FF0FF300390069840420690FFE7FFE7BE
:103F80000598012803DBFFE7012002900DE005986A
:103F900018B9FFE70020029006E04FF0FF300290D2
:103FA000059840420590FFE7FFE70698059988428B
:103FB00003DDFFE70698049002E005980490FFE710
:103FC0000020ADF82400FFE7BDF82400049901317A
:103FD000884233DCFFE7BDF80400BDF80010BDF8EF
:103FE000262000F02DF806990898084408900599B5
:103FF00007980844079008980499884209DDFFE76C
:1040000004990898401A089003990198084401906F
:10401000FFE707980499884209DDFFE704990798AC
:10402000401A07900299009808440090FFE7FFE7C4
:10403000BDF824000130ADF82400C5E70CB080BD08
:1040400080B582B0ADF80600ADF804100092BDF85E
:104050000600BDF8041003F0AFF903F0B5FC0098BA
:104060008021C6F60041088002B080BD80B58CB0CA
:10407000CF2003F099FC00200A9003F085FCC120BA
:10408000009003F081FC3020019003F07DFCED20D6
:1040900003F08AFC642003F077FC032003F074FC37
:1040A000122003F071FC812003F06EFCE82003F085
:1040B0007BFC852003F068FC1020049003F064FC76
:1040C0007A2003F061FCCB2003F06EFC392003F072
:1040D0005BFC2C2003F058FC0A9803F055FC3420BC
:1040E00003F052FC022003F04FFCF72003F05CFCCD
:1040F000202003F049FCEA2003F056FC0A9803F064
:1041000043FC0A9803F040FCC02003F04DFC1B2048
:1041100003F03AFC009803F047FC0120079003F0FD
:1041200033FCC52003F040FC019803F02DFC0198FE
:1041300003F02AFCC72003F037FCB72003F024FC6F
:10414000362003F031FC482003F01EFC3A2003F037
:104150002BFC552003F018FCB12003F025FC0A9835
:1041600003F012FC1A2003F00FFCB62003F01CFC35
:104170000A20039003F008FCA22003F005FCF220C3
:1041800003F012FC0A9803F0FFFB262003F00CFC5E
:10419000079803F0F9FBE02003F006FC0F200590E0
:1041A00003F0F2FB2A20099003F0EEFB282003F035
:1041B000EBFB0820029003F0E7FB0E2003F0E4FB8A
:1041C000029803F0E1FB542003F0DEFBA92003F08A
:1041D000DBFB432003F0D8FB039803F0D5FB0598E5
:1041E00003F0D2FB0A9803F0CFFB0A9803F0CCFB54
:1041F0000A9803F0C9FB0A9803F0C6FBE12003F01C
:10420000D3FB0A9803F0C0FB152003F0BDFB172079
:1042100003F0BAFB072003F0B7FB11200B9003F06B
:10422000B3FB062003F0B0FB2B20069003F0ACFBA1
:10423000562003F0A9FB3C2003F0A6FB052003F069
:10424000A3FB049803F0A0FB059803F09DFB3F201F
:10425000089003F099FB089803F096FB059803F08B
:1042600093FB069803F0A0FB0A9803F08DFB0A98D5
:1042700003F08AFB079803F087FB089803F084FBA0
:10428000099803F091FB0A9803F07EFB0A9803F06B
:104290007BFB0A9803F078FBEF2003F075FB0B988B
:1042A00003F082FB7820FFF7B7FB292003F07CFBAB
:1042B0000CB080BD80B596B0FF20019003F074FB78
:1042C000019803F061FB982003F05EFB06200D903F
:1042D00003F05AFBBC2003F067FB0120129003F0AF
:1042E00053FB0F20109003F04FFB612003F04CFBB9
:1042F000019803F049FB129803F046FB129803F073
:1043000043FB0B200A9003F03FFB1020099003F0C1
:104310003BFB372003F038FB632003F035FB0198AB
:1043200003F032FB019803F02FFB129803F02CFBF3
:10433000129803F029FB0020159003F025FB159837
:1043400003F022FB019803F01FFB522003F01CFB3B
:10435000129803F019FB159803F016FB4020069005
:1043600003F012FBBD2003F01FFB129803F00CFBBF
:104370002320029003F008FB4520039003F004FB88
:104380006720049003F000FB129803F0FDFA0298F6
:1043900003F0FAFA039803F0F7FA049803F0F4FA3A
:1043A000BE2003F001FB159803F0EEFA129803F01B
:1043B000EBFAAB2003F0E8FA602003F0E5FA2220E4
:1043C000059003F0E1FA059803F0DEFA059803F092
:1043D000DBFA059803F0D8FA059803F0D5FAC72060
:1043E00003F0E2FA3620149003F0CEFAED2003F049
:1043F000DBFA7F2003F0C8FA109803F0C5FAC0205A
:1044000003F0D2FA109803F0BFFA0A9803F0BCFA4E
:104410000A200E9003F0B8FAFC2003F0C5FA082039
:1044200003F0B2FADF20139003F0BEFA159803F000
:10443000ABFA159803F0A8FA159803F0A5FA1598A9
:1044400003F0A2FA159803F09FFA2020089003F0D9
:104450009BFAF32003F0A8FA742003F095FAB42035
:1044600003F0A2FA159803F08FFA159803F08CFA6E
:10447000159803F089FAF72003F096FA822003F0EA
:1044800083FAB12003F090FA159803F07DFA132017
:104490000B9003F079FA0B9803F076FAF22003F010
:1044A00083FA802003F070FA042003F06DFA069876
:1044B00003F06AFA282003F067FAC12003F074FAC7
:1044C000172003F061FA8820079003F05DFA07983F
:1044D00003F05AFA089803F057FAE02003F064FA60
:1044E000159803F051FA0E9803F04EFA122003F0DB
:1044F0004BFA099803F048FA0E200F9003F044FAA3
:10450000089803F041FACC2003F03EFA072003F0AC
:104510003BFA0D9803F038FA0A9803F035FA0F9831
:1045200003F032FA109803F02FFA0D200C9003F0EC
:104530002BFA1520119003F027FA099803F024FABA
:10454000159803F021FAE12003F02EFA159803F0F4
:104550001BFA0A9803F018FA0B9803F015FA0C9856
:1045600003F012FA0F9803F00FFA1B2003F00CFA75
:10457000712003F009FA0D9803F006FA0D9803F084
:1045800003FA0E9803F000FA109803F0FDF90F9863
:1045900003F0FAF9109803F0F7F9119803F0F4F921
:1045A0000C2003F0F1F9159803F0EEF92A2003F03E
:1045B000FBF9159803F0E8F9159803F0E5F912985E
:1045C00003F0E2F9139803F0DFF92B2003F0ECF984
:1045D000159803F0D9F9159803F0D6F9032003F0E4
:1045E000D3F91F2003F0D0F93A2003F0DDF955206C
:1045F00003F0CAF9149803F0D7F9159803F0C4F939
:10460000112003F0D1F97820FFF706FA292003F0F2
:10461000CBF91420FFF700FA2C2003F0C5F916B0EF
:1046200080BD000080B5CEB0ED2003F0BDF90120C3
:10463000219003F0A9F9FE2003F0A6F9EE2003F083
:10464000B3F9DE2003F0A0F921200B9003F09CF9D0
:10465000F12003F0A9F9219803F096F9DF2003F087
:10466000A3F91020459003F08FF9C4202D9003F09A
:104670009BF98F2003F088F9C620089003F094F985
:1046800000204A9003F080F9E220169003F07CF9B4
:10469000169803F079F9169803F076F9BF2003F025
:1046A00083F9AA20419003F06FF9B02003F07CF960
:1046B0000D20009003F068F94A9803F065F900981E
:1046C00003F062F94A9803F05FF91120479003F074
:1046D0005BF94A9803F058F9192003F055F94A9804
:1046E00003F052F90B9803F04FF94A9803F04CF994
:1046F0002D2003F049F94A9803F046F93D2003F0D4
:1047000043F94A9803F040F95D20269003F03CF904
:104710004A9803F039F9269803F036F94A9803F0DD
:1047200033F9B12003F040F9802003F02DF94A98C5
:1047300003F02AF98B20109003F026F94A9803F031
:1047400023F99620019003F01FF94A9803F01CF911
:10475000B22003F029F94A9803F016F94A9803F0B9
:1047600013F90220239003F00FF94A9803F00CF993
:104770000320029003F008F94A9803F005F9B320EA
:104780002B9003F011F94A9803F0FEF84A9803F0D1
:10479000FBF84A9803F0F8F84A9803F0F5F84A98BD
:1047A00003F0F2F84A9803F0EFF84A9803F0ECF8B7
:1047B0004A9803F0E9F84A9803F0E6F84A9803F0BB
:1047C000E3F84A9803F0E0F84A9803F0DDF84A98D5
:1047D00003F0DAF84A9803F0D7F84A9803F0D4F8CF
:1047E0004A9803F0D1F84A9803F0CEF84A9803F0BB
:1047F000CBF84A9803F0C8F84A9803F0C5F84A98ED
:1048000003F0C2F84A9803F0BFF84A9803F0BCF8E6
:104810004A9803F0B9F8B42003F0C6F8109803F0F2
:10482000B3F84A9803F0B0F8019803F0ADF84A984D
:1048300003F0AAF8A12003F0A7F84A9803F0A4F81F
:10484000B52003F0B1F8239803F09EF84A9803F0DE
:104850009BF8029803F098F84A9803F095F8042022
:10486000039003F091F84A9803F08EF8B62003F015
:104870009BF84A9803F088F84A9803F085F8B72027
:104880001D9003F091F84A9803F07EF84A9803F0DF
:104890007BF83F2003F078F84A9803F075F85E2023
:1048A00003F072F84A9803F06FF86420489003F020
:1048B0006BF84A9803F068F88C2003F065F84A9882
:1048C00003F062F8AC2003F05FF84A9803F05CF85C
:1048D000DC20309003F058F84A9803F055F8702027
:1048E00003F052F84A9803F04FF8902003F04CF888
:1048F0004A9803F049F8EB2003F046F84A9803F091
:1049000043F8309803F040F84A9803F03DF8B82097
:1049100003F04AF84A9803F037F84A9803F034F85D
:104920004A9803F031F84A9803F02EF84A9803F0B9
:104930002BF84A9803F028F84A9803F025F84A988B
:1049400003F022F8BA2003F02FF82420069003F099
:104950001BF84A9803F018F84A9803F015F84A989B
:1049600003F012F8C12003F01FF82020099003F093
:104970000BF84A9803F008F8542003F005F84A9819
:1049800003F002F8FF204B9002F0FEFF4A9802F07D
:10499000FBFFC2201E9003F007F80A20189002F0D7
:1049A000F3FF4A9802F0F0FF039802F0EDFF4A98F7
:1049B00002F0EAFFC32002F0F7FF3C20249002F04F
:1049C000E3FF4A9802F0E0FF3A20469002F0DCFF55
:1049D0004A9802F0D9FF392002F0D6FF4A9802F037
:1049E000D3FF372002F0D0FF4A9802F0CDFF249881
:1049F00002F0CAFF4A9802F0C7FF36200D9002F07D
:104A0000C3FF4A9802F0C0FF3220339002F0BCFF8F
:104A10004A9802F0B9FF2F20049002F0B5FF4A989F
:104A200002F0B2FF2C204D9002F0AEFF4A9802F047
:104A3000ABFF2920499002F0A7FF4A9802F0A4FF9B
:104A40002620059002F0A0FF4A9802F09DFF0698EC
:104A500002F09AFF4A9802F097FF069802F094FF3E
:104A60004A9802F091FF2320379002F08DFF4A9878
:104A700002F08AFF249802F087FF4A9802F084FF30
:104A80000D9802F081FF4A9802F07EFF339802F001
:104A90007BFF4A9802F078FF049802F075FF4A986D
:104AA00002F072FF4D9802F06FFF4A9802F06CFF1F
:104AB000499802F069FF4A9802F066FF059802F0F3
:104AC00063FF4A9802F060FF069802F05DFF4A9883
:104AD00002F05AFF069802F057FF4A9802F054FF7E
:104AE000379802F051FF4A9802F04EFF2D9802F0DD
:104AF0005BFF62201A9002F047FF4A9802F044FFE1
:104B00000520179002F040FF4A9802F03DFF8420F4
:104B1000289002F039FF4A9802F036FFF0204290C8
:104B200002F032FF4A9802F02FFF1820079002F09F
:104B30002BFF4A9802F028FFA42002F025FF4A9894
:104B400002F022FF079802F01FFF4A9802F01CFFB4
:104B50005020439002F018FF4A9802F015FF0C20F5
:104B600002F012FF4A9802F00FFF17200A9002F09D
:104B70000BFF4A9802F008FF952002F005FF4A98C3
:104B800002F002FFF320449002F0FEFE4A9802F089
:104B9000FBFEE620319002F0F7FE4A9802F0F4FEA8
:104BA000C52002F001FF339802F0EEFE4A9802F0B1
:104BB000EBFE4420409002F0E7FE4A9802F0E4FE4B
:104BC000652002F0E1FE4A9802F0DEFE7620349085
:104BD00002F0DAFE4A9802F0D7FE88203C9002F0FC
:104BE000D3FE4A9802F0D0FE089802F0DDFE099844
:104BF00002F0CAFE4A9802F0C7FE0A9802F0C4FE0C
:104C00004A9802F0C1FE219802F0BEFE4A9802F0D6
:104C1000BBFEC7201F9002F0C7FE4A9802F0B4FE08
:104C20004A9802F0B1FE4A9802F0AEFE4A9802F0AD
:104C3000ABFEC82002F0B8FE4A9802F0A5FE4A98E2
:104C400002F0A2FE4A9802F09FFE4A9802F09CFEF3
:104C5000C92002F0A9FE4A9802F096FE4A9802F096
:104C600093FE4A9802F090FE4A9802F08DFE4A9810
:104C700002F08AFE4A9802F087FE4A9802F084FE0B
:104C80004A9802F081FE4A9802F07EFE4A9802F0AD
:104C90007BFE4A9802F078FE4A9802F075FE4A9828
:104CA00002F072FE4A9802F06FFE4A9802F06CFE23
:104CB0004A9802F069FEE020159002F075FE162079
:104CC0000C9002F061FE4A9802F05EFE1C201990E2
:104CD00002F05AFE4A9802F057FE0B9802F054FE7A
:104CE0004A9802F051FE0D9802F04EFE4A9802F0EA
:104CF0004BFE462002F048FE4A9802F045FE522044
:104D00000E9002F041FE4A9802F03EFE489802F0F2
:104D10003BFE4A9802F038FE7A200F9002F034FEF3
:104D20004A9802F031FE109802F02EFE4A9802F0E6
:104D30002BFE99203E9002F027FE4A9802F024FEB6
:104D4000A820119002F020FE4A9802F01DFEB92022
:104D5000129002F019FE4A9802F016FE2D9802F009
:104D600013FE4A9802F010FECA20139002F00CFEC7
:104D70004A9802F009FED220149002F005FE4A98EB
:104D800002F002FED92002F0FFFD4A9802F0FCFD7D
:104D9000159802F0F9FD4A9802F0F6FD449802F0E9
:104DA000F3FD4A9802F0F0FDE12002F0FDFD0C98C1
:104DB00002F0EAFD4A9802F0E7FD199802F0E4FDDE
:104DC0004A9802F0E1FD222002F0DEFD4A9802F04E
:104DD000DBFD0D9802F0D8FD4A9802F0D5FD452084
:104DE000399002F0D1FD4A9802F0CEFD0E9802F003
:104DF000CBFD4A9802F0C8FD489802F0C5FD4A98DC
:104E000002F0C2FD0F9802F0BFFD4A9802F0BCFD0F
:104E1000109802F0B9FD4A9802F0B6FD3E9802F0F3
:104E2000B3FD4A9802F0B0FD119802F0ADFD4A982A
:104E300002F0AAFD129802F0A7FD4A9802F0A4FD24
:104E40002D9802F0A1FD4A9802F09EFD139802F001
:104E50009BFD4A9802F098FD149802F095FD4A983F
:104E600002F092FDD82002F08FFD4A9802F08CFDEE
:104E7000159802F089FD4A9802F086FD449802F0E8
:104E800083FD4A9802F080FD169802F08DFD179878
:104E900002F07AFD4A9802F077FD0B2002F074FDD3
:104EA0004A9802F071FD1B2002F06EFD4A9802F054
:104EB0006BFD3420329002F067FD4A9802F064FDE9
:104EC000409802F061FD4A9802F05EFD4F2002F02A
:104ED0005BFD4A9802F058FD612002F055FD4A98AA
:104EE00002F052FD792002F04FFD4A9802F04CFD8D
:104EF0003C9802F049FD4A9802F046FD97201B902D
:104F000002F042FD4A9802F03FFDA6201C9002F0FC
:104F10003BFD4A9802F038FD1D9802F035FD4A9895
:104F200002F032FD1E9802F02FFD4A9802F02CFD8F
:104F30001F9802F029FD4A9802F026FDD12020900A
:104F400002F022FD4A9802F01FFDD62002F01CFD5F
:104F50004A9802F019FDDD20229002F015FD4A98D2
:104F600002F012FD449802F00FFD4A9802F00CFD89
:104F7000E32002F019FD179802F006FD4A9802F0AE
:104F800003FD189802F000FD4A9802F0FDFC199804
:104F900002F0FAFC4A9802F0F7FC3320389002F055
:104FA000F3FC4A9802F0F0FC409802F0EDFC4A98BD
:104FB00002F0EAFC439802F0E7FC4A9802F0E4FCB5
:104FC0001A9802F0E1FC4A9802F0DEFC782002F028
:104FD000DBFC4A9802F0D8FC3C9802F0D5FC4A98D9
:104FE00002F0D2FC1B9802F0CFFC4A9802F0CCFCF5
:104FF0001C9802F0C9FC4A9802F0C6FC1D9802F009
:10500000C3FC4A9802F0C0FC1E9802F0BDFC4A980E
:1050100002F0BAFC1F9802F0B7FC4A9802F0B4FC08
:10502000209802F0B1FC4A9802F0AEFCD52002F0C4
:10503000ABFC4A9802F0A8FC229802F0A5FC4A9822
:1050400002F0A2FC449802F09FFC4A9802F09CFCFB
:10505000E42002F0A9FC219802F096FC4A9802F0A4
:1050600093FC219802F090FC4A9802F08DFC239862
:1050700002F08AFC4A9802F087FC2A2002F084FCA5
:105080004A9802F081FC249802F07EFC4A9802F0D3
:105090007BFC4B20259002F077FC4A9802F074FCD0
:1050A000269802F071FC4A9802F06EFC742027905A
:1050B00002F06AFC4A9802F067FC289802F064FC4F
:1050C0004A9802F061FC9320299002F05DFC4A9816
:1050D00002F05AFCA2202A9002F056FC4A9802F0F4
:1050E00053FC2B9802F050FC4A9802F04DFCBE2075
:1050F0002C9002F049FC4A9802F046FC2D9802F0F0
:1051000043FC4A9802F040FCCD202E9002F03CFC7B
:105110004A9802F039FCD3202F9002F035FC4A98CF
:1051200002F032FC229802F02FFC4A9802F02CFC8C
:10513000449802F029FC4A9802F026FCE52002F08F
:1051400033FC4A9802F020FC4A9802F01DFC4A9871
:1051500002F01AFC4A9802F017FC239802F014FCA3
:105160004A9802F011FC499802F00EFC4A9802F0AD
:105170000BFC249802F008FC4A9802F005FC2598E4
:1051800002F002FC4A9802F0FFFB269802F0FCFBBA
:105190004A9802F0F9FB279802F0F6FB4A9802F0D1
:1051A000F3FB289802F0F0FB4A9802F0EDFB2998F7
:1051B00002F0EAFB4A9802F0E7FB2A9802F0E4FBCF
:1051C0004A9802F0E1FB2B9802F0DEFB4A9802F0CD
:1051D000DBFB2C9802F0D8FB4A9802F0D5FB2D9807
:1051E00002F0D2FB4A9802F0CFFB2E9802F0CCFBE3
:1051F0004A9802F0C9FB2F9802F0C6FB4A9802F0C9
:10520000C3FB309802F0C0FB4A9802F0BDFB449803
:1052100002F0BAFB4A9802F0B7FB319802F0C4FBE7
:10522000479802F0B1FB4A9802F0AEFB329802F0C8
:10523000ABFB4A9802F0A8FB5620369002F0A4FB84
:105240004A9802F0A1FB349802F09EFB4A9802F0C3
:105250009BFB77203B9002F097FB4A9802F094FB6F
:1052600066203F9002F090FB4A9802F08DFB3C983C
:1052700002F08AFB4A9802F087FB3E9802F084FB1A
:105280004A9802F081FBBB203D9002F07DFB4A98DA
:1052900002F07AFB3E9802F077FB4A9802F074FB2A
:1052A0003F9802F071FB4A9802F06EFB55204C903B
:1052B00002F06AFB4A9802F067FB4C9802F064FB2C
:1052C0004A9802F061FB399802F05EFB4A9802F0BE
:1052D0005BFB432002F058FB4A9802F055FB4098D4
:1052E00002F052FB4A9802F04FFBE72002F05CFB11
:1052F000339802F049FB4A9802F046FB4C9802F0C2
:1053000043FB4A9802F040FB349802F03DFB4A9878
:1053100002F03AFB3F9802F037FB4A9802F034FB68
:105320006720359002F030FB4A9802F02DFB35984B
:1053300002F02AFB4A9802F027FB87203A9002F0FD
:1053400023FB4A9802F020FB3E9802F01DFB4A988E
:1053500002F01AFB3D9802F017FB4A9802F014FB8A
:105360003E9802F011FB4A9802F00EFB3B9802F0C7
:105370000BFB4A9802F008FB409802F005FB4A98A4
:1053800002F002FB369802F0FFFA4A9802F0FCFAAB
:10539000379802F0F9FA4A9802F0F6FA389802F0D3
:1053A000F3FA4A9802F0F0FA399802F0EDFA4A98C6
:1053B00002F0EAFAE82002F0F7FA4A9802F0E4FA7A
:1053C0004A9802F0E1FA3E9802F0DEFA4A9802F0BA
:1053D000DBFA3A9802F0D8FA4A9802F0D5FA3C98EB
:1053E00002F0D2FA4A9802F0CFFA3B9802F0CCFAD7
:1053F0004A9802F0C9FA3F9802F0C6FA4A9802F0B9
:10540000C3FA3C9802F0C0FA4A9802F0BDFA4198FB
:1054100002F0BAFA4A9802F0B7FA3D9802F0B4FAEC
:105420004A9802F0B1FA3E9802F0AEFA4A9802F0B9
:10543000ABFA3F9802F0A8FA4A9802F0A5FA4C9805
:1054400002F0A2FA4A9802F09FFA4C9802F09CFAF5
:105450004A9802F099FA409802F096FA4A9802F0B7
:1054600093FA409802F090FA4A9802F08DFA4C981C
:1054700002F08AFA4A9802F087FAE92002F094FAD8
:10548000419802F081FA4A9802F07EFA4A9802F0B6
:105490007BFA4A9802F078FA4A9802F085FA419825
:1054A00002F072FACF2002F07FFA4A9802F06CFA0A
:1054B0004A9802F069FA4A9802F066FA4A9802F0AD
:1054C00063FA4A9802F060FA4A9802F05DFA4A9844
:1054D00002F05AFA4A9802F057FA4A9802F054FA3F
:1054E0004A9802F051FA4A9802F04EFA4A9802F0AD
:1054F0004BFA4A9802F048FA4A9802F045FA4A985C
:1055000002F042FA4A9802F03FFA4A9802F03CFA56
:10551000429802F049FA4A9802F036FA439802F0AB
:1055200033FA4A9802F030FA4A9802F02DFA4A9873
:1055300002F02AFA449802F037FA4A9802F024FA64
:10554000F92002F031FA062002F01EFA459802F026
:105550001BFA499802F018FA4A9802F015FA469890
:1055600002F022FA4C9802F00FFA479802F01CFA67
:105570004898FEF751FA499802F016FA352002F0E1
:1055800013FA4A9802F000FA512002F00DFA4B98F3
:1055900002F0FAF9532002F007FA4D9802F0F4F9FC
:1055A0004C9802F001FA822002F0EEF94D9802F0D8
:1055B000FBF94EB080BD000080B5B4B04FF4704030
:1055C00019905521329102F009FA4FF201001A9018
:1055D000AA211B9102F002FA4FF202001C90522104
:1055E0001D9102F0FBF94FF203001E9008211F915C
:1055F00002F0F4F94FF2040020900121289102F00A
:10560000EDF94FF430400D21009102F0E7F90099D7
:105610004BF2010002F0E2F900994BF2020002F0B5
:10562000DDF94FF43640239034210D9102F0D6F984
:105630000D994BF2016002F0D1F90D994BF2026025
:1056400002F0CCF900994FF43140219002F0C6F9F4
:1056500000994BF20110229002F0C0F900994BF230
:10566000021002F0BBF90D994FF43740249002F07C
:10567000B5F90D994BF20170259002F0AFF90D9933
:105680004BF2027002F0AAF94FF43240002131913E
:1056900002F0A4F931994BF2012002F09FF93199FF
:1056A0004BF2022002F09AF94FF43840279024215F
:1056B000029102F093F902994BF60100299002F051
:1056C0008DF902994BF602002A9002F087F9289989
:1056D0004FF43F4002F082F94FF433400F21019123
:1056E00002F07CF901994BF2013002F077F901994F
:1056F0004BF2023002F072F90D994FF4394002F08A
:105700006DF90D994BF6011002F068F90D994BF601
:10571000021002F063F91F994FF4354002F05EF970
:105720001F994BF2015002F059F91F994BF20250A8
:1057300002F054F94FF4424003212B9102F04EF94C
:1057400002994FF43A4002F049F902994BF60120D0
:1057500002F044F902994BF6022002F03FF9319928
:105760004FF43C402C9002F039F94BF601402D905B
:105770007821339102F032F931994BF602402E90A4
:1057800002F02CF931994FF43D4002F027F933999A
:105790004BF6015002F022F931994BF6025002F01B
:1057A0001DF931994FF43E4002F018F94BF60160B3
:1057B000642102F013F931994FF4514002F00EF9CF
:1057C0004DF201103321179102F008F931994DF291
:1057D000021002F003F90D994DF2031002F0FEF8E9
:1057E00031994DF2041002F0F9F84DF205103A210A
:1057F000039102F0F3F831994DF2061002F0EEF841
:105800004DF207104A21049102F0E8F831994DF267
:10581000081002F0E3F84DF209105C21059102F046
:10582000DDF831994DF20A1002F0D8F84DF20B1064
:105830008121069102F0D2F831994DF20C1002F05C
:10584000CDF84DF20D10A621079102F0C7F831995D
:105850004DF20E1002F0C2F84DF20F10E521089142
:1058600002F0BCF828994DF2101002F0B7F84DF292
:1058700011101321099102F0B1F828994DF212107C
:1058800002F0ACF84DF2131054210A9102F0A6F880
:1058900028994DF2141002F0A1F84DF21510822152
:1058A0000B9102F09BF828994DF2161002F096F831
:1058B0004DF21710CA210C9102F090F84DF2181019
:1058C00002212F9102F08AF831994DF2191002F05D
:1058D00085F82F994DF21A1002F080F828994DF2B0
:1058E0001B1002F07BF82F994DF21C1002F076F895
:1058F0000D994DF21D1002F071F82F994DF21E1006
:1059000002F06CF84DF21F1067210E9102F066F85C
:105910002F994DF2201002F061F84DF221108421F0
:105920000F9102F05BF82F994DF2221002F056F819
:105930004DF22310A421109102F050F82F994DF24E
:10594000241002F04BF84DF22510B721119102F00E
:1059500045F82F994DF2261002F040F84DF227102D
:10596000CF21129102F03AF82F994DF2281002F04F
:1059700035F84DF22910DE21139102F02FF82F99FE
:105980004DF22A1002F02AF84DF22B10F221149158
:1059900002F024F82F994DF22C1002F01FF84DF26E
:1059A0002D10FE21159102F019F82B994DF22E10B1
:1059B00002F014F84DF22F101021169102F00EF89B
:1059C0002B994DF2301002F009F817994DF2311071
:1059D00002F004F82B994DF2321001F0FFFF4DF266
:1059E00033106D21189101F0F9FF31994FF45240B5
:1059F00001F0F4FF17994DF2012001F0EFFF31990A
:105A00004DF2022001F0EAFF0D994DF2032001F062
:105A1000E5FF31994DF2042001F0E0FF03994DF2CA
:105A2000052001F0DBFF31994DF2062001F0D6FF91
:105A300004994DF2072001F0D1FF31994DF2082071
:105A400001F0CCFF05994DF2092001F0C7FF319913
:105A50004DF20A2001F0C2FF06994DF20B2001F031
:105A6000BDFF31994DF20C2001F0B8FF07994DF2BE
:105A70000D2001F0B3FF31994DF20E2001F0AEFF81
:105A800008994DF20F2001F0A9FF28994DF210203E
:105A900001F0A4FF09994DF2112001F09FFF289910
:105AA0004DF2122001F09AFF0A994DF2132001F0F5
:105AB00095FF28994DF2142001F090FF0B994DF2BB
:105AC000152001F08BFF28994DF2162001F086FF7A
:105AD0000C994DF2172001F081FF2F994DF21820FB
